:020000040000FA
:100000000C948F000C94B7000C94B7000C94B700BC
:100010000C94B7000C94B7000C94B7000C94B70084
:100020000C94B7000C94B7000C94B7000C94B70074
:100030000C94B7000C94B7000C94B7000C94B70064
:100040000C9460130C94B7000C94D0130C94AA1366
:100050000C94B7000C94B7000C94B7000C94B70044
:100060000C9402140C94B70008000000BE922449BE
:10007000123EABAAAA2ABECDCCCC4C3E00000080DA
:10008000BEABAAAAAA3E00000000BF000000803F4D
:100090000000000000084178D3BB4387D1133D190D
:1000A0000E3CC3BD4282AD2B3E68EC8276BED98F3A
:1000B000E1A93E4C80EFFFBE01C4FF7F3F0000007E
:1000C000000000000000240027002A0000000000BB
:1000D000250028002B000000000023002600290036
:1000E00004040404040404040202020202020303DE
:1000F00003030303010204081020408001020408E6
:100100001020010204081020000000080002010075
:100110000003040700000000000000002115112466
:100120001FBECFEFD8E0DEBFCDBF11E0A0E0B1E051
:10013000EEE3F5E402C005900D92AC3CB107D9F7AF
:1001400024E0ACECB1E001C01D92A930B207E1F7A8
:1001500010E0CFE8D0E004C02197FE010E94C21E4B
:10016000CE38D107C9F70E9493150C949D220C94A8
:1001700000008091550290915602891B990B0895B9
:100180002F923F924F925F926F927F928F929F92A7
:10019000AF92BF92CF92DF92EF92FF920F931F9395
:1001A000CF93DF93CDB7DEB7AA970FB6F894DEBF33
:1001B0000FBECDBF0D871D8B298F3A8F4B8F5C8F64
:1001C0006F8F7BA3FE8EED8EE091E703F091E80345
:1001D000892B21F0E091E903F091EA03FF27EE0F6C
:1001E000FF1FEE0FFF1FE551FC4F6081718182817F
:1001F000938124E630E040E050E00E94691D522ED9
:10020000632E742E852E962E7A8B898B492E86012D
:100210007501110FEE08FE2C87019501A6016E2DC8
:100220007E2D8E2D9E2D0FE10E946B1EA12CEAECDF
:10023000BE2EFAE9CF2EABE3DA2EE12CF12C00E052
:1002400010E00E94961DA52CB62CC72CD82CE92CAA
:10025000FA880989142D0E94111D0FE10E94861E43
:1002600029833A834B835C836D837E838F83988756
:1002700029813A814B815C81550F220B322FA901D4
:1002800029873A874B875C87252D362D472D582D9A
:10029000692D7F2D8989942DA980BA80CB80DC803F
:1002A000E984FE2C0E2D1E2D0E94A11E2983398764
:1002B000498B5A8B6B8B7C8B1C016D847D88898C60
:1002C0009A8C3C8D3D8B4F8C5BA09301A4016B8D70
:1002D0007D89C201211534404B46544F644171055C
:1002E0008105910569F060F0612C24E0722E3BE6F7
:1002F000832E44EF942EB4E1BB8F1D8A412C512CE8
:10030000EB8DEF8F9301A4016E2F7D89C201211522
:1003100038454744584F6D4071058105910560F49B
:10032000612C08E5702E87E4882E98EF992E2DE039
:100330002F8F1D8A412C512CA980B984C988DA8855
:10034000EB88FC8881019301A4016F8D7D89C20136
:100350000E94C71D298F3A8F4B8F5C8F2D873E8758
:100360004F87588B8D859E85AF85B8891FE0A12E5C
:100370000F97A105B10558F02D853E854F85588909
:100380002B35310541055105B8F0BAE5AB2EB12C3E
:10039000C12CD12CE12CF12C00E010E02981398511
:1003A00049895A896B897C89C1010E94111D3901D3
:1003B0004A016F8F7D8B2C01A980B984C988DA88A6
:1003C000EB88FC8881019301A4016F8D7D89C201B6
:1003D0000E94C51DE0E4AE2EF2E4BF2EAFE0CA2EAF
:1003E000D12CE12CF12C00E010E00E94111DA9801D
:1003F000B984C988DA88EB88FC8881010E94C71D0E
:1004000049014CA35BA3C901DA0121E030E040E0DF
:1004100050E00097A105B10521F020E432E44FE05F
:1004200050E02D8B3E8B4F8B588FBC01CD0127E0C8
:10043000660F771F881F991F2A95D1F72D893E894E
:100440004F89588D0E94EF1C29013A016F8F78A3C4
:1004500089A39AA3A980B984C988DA88EB88FC8823
:10046000810194014CA15BA160E070E080E090E02C
:100470000E94111D2BA33CA34DA35EA36FA378A7DD
:1004800089A79AA78D859E85AF85B88937E0880FA3
:10049000991FAA1FBB1F3A95D1F79250A109B10924
:1004A000840D951DA61DB71DED8DFE8D8083918356
:1004B000A283B3832F8D38A149A15AA12483358308
:1004C000468357832D893E894F89588D20873187F0
:1004D00042875387298D3A8D4B8D5C8D60E070E0AB
:1004E00080E090E00E94111D29013A014B018987AB
:1004F00099838D899E89AF89B88D5C016D01E12C4E
:10050000F12C00E010E02BA13CA14DA15EA16FA158
:1005100078A589A59AA50E94C71D59016A017B018A
:100520008C019201A301B401898599810E94A11EC9
:10053000AA960FB6F894DEBF0FBECDBFDF91CF9164
:100540001F910F91FF90EF90DF90CF90BF90AF90F1
:100550009F908F907F906F905F904F903F902F90E3
:100560000895DF92EF92FF920F931F93CF93DF9343
:10057000FC01E080F18002811381D481C581B681C4
:10058000D7809701A8016D2F7C2F8B2F9D2D285987
:1005900038424C4151096109710981099109273992
:1005A00038424C415105610571058105910509F0FD
:1005B000D0F49701A8016D2F7C2F8B2F9D2D07E084
:1005C0000E946B1E2083318342835383648375832F
:1005D0008683978387E0DF91CF911F910F91FF90E2
:1005E000EF90DF9008959701A8016D2F7C2F8B2F3E
:1005F0009D2D2053314548435109610971098109F5
:1006000091092F3231454843510561057105810536
:10061000910509F098F49701A8016D2F7C2F8B2F7D
:100620009D2D06E00E946B1E2083318342835383FD
:10063000648375838683978386E0CDCF9701A80175
:100640006D2F7C2F8B2F9D2D2056324A404751090C
:1006500061097109810991092F35324A40475105D5
:10066000610571058105910509F098F49701A801CC
:100670006D2F7C2F8B2F9D2D05E00E946B1E2083FC
:10068000318342835383648375838683978385E0B4
:10069000A2CF9701A8016D2F7C2F8B2F9D2D205C61
:1006A0003444414E510961097109810991092F3B77
:1006B0003444414E5105610571058105910509F0EC
:1006C00098F49701A8016D2F7C2F8B2F9D2D04E0AE
:1006D0000E946B1E2083318342835383648375831E
:1006E0008683978384E077CF9701A8016D2F7C2FB5
:1006F0008B2F9D2D20583948424C5140610971097A
:10070000810991092F373948424C514061057105E3
:100710008105910509F098F49701A8016D2F7C2FB0
:100720008B2F9D2D03E00E946B1E2083318342831B
:100730005383648375838683978383E04CCF9701CB
:10074000A8016D2F7C2F8B2F9D2D33514548534091
:1007500061097109810991092F3F32414548534090
:10076000610571058105910509F098F49701A801CB
:100770006D2F7C2F8B2F9D2D02E00E946B1E2083FE
:10078000318342835383648375838683978382E0B6
:1007900022CF9701A8016D2F7C2F8B2F9D2D3652D4
:1007A0004A40574061097109810991092F3F35423B
:1007B0004A405740610571058105910509F098F49B
:1007C0009701A8016D2F7C2F8B2F9D2D01E00E949A
:1007D0006B1E2083318342835383648375838683B6
:1007E000978381E0F8CE80E0F6CE2F923F924F9231
:1007F0005F926F927F928F929F92AF92BF92CF92B1
:10080000DF92EF92FF920F931F93CF93DF93CDB7B9
:10081000DEB76C970FB6F894DEBF0FBECDBF322E99
:100820003D87242E5E872B013C01A982BF86C88AA2
:10083000D98AEA8AFB8A0C8B1D8B988E8F8A2115A8
:1008400001EC30070AE140070DE3500705E06007BF
:1008500071058105910509F0A0F52F3710EF3107DB
:100860001AEF410712E051076105710581059105F5
:1008700009F008F4B4C12F3F354D41415E47634054
:1008800071058105910509F008F48FC029813F8524
:10089000488959896A897B898C899D89A0E0992436
:1008A00093940E94B61E09F08EC011E01E8B94E056
:1008B000892E912CA12CB12C89869A86AB86BC8678
:1008C0002FC0312CB1ECBD872AE1222EEDE3EE875B
:1008D00035E0432E512C612C712CD8CFA32CBD8434
:1008E000C22CDE847201830120E034E04BE654EF39
:1008F00064E170E080E090E00E94C71D122FB32FEA
:10090000F42FE52FA7E00E94B61E21F416E0B0E018
:10091000F0E0E0E0CF011987BA879B87EC871E8A59
:1009200089849A84AB84BC84A501940160E070E062
:10093000CB01A32CBD84C22CDE84720183012983E8
:100940003A834B835C836D837E838F83988760E0DB
:1009500070E080E090E00E94111D29833F87488B62
:10096000598B6A8B7B8B8C8B9D8B0E89C12CD12CE8
:100970007601C39440E050E0BA01013009F0A9C00B
:10098000AF89B88D1D921D921D921C921397FD0187
:10099000148215821682178281E090E0A0E0B0E018
:1009A00080879187A287B387DEC029813F854889E8
:1009B00059896A897B898C899D89A0E00E94B61E2D
:1009C00009F48CCF912CA32CBD84C22CDE8472013F
:1009D000830129813F85488959896A897B898C8966
:1009E0009D890E94C71D29873A874B875C87298587
:1009F0003A854B855C8506E0A02EB12C263031056A
:100A00004105510568F089859A85AB85BC8589309B
:100A10009740A105B105D0F0B8E0AB2E17E0B12E9C
:100A2000C12CD12CE12CF12C00E010E029813F8574
:100A3000488959896A897B898C899D890E94C71D4B
:100A4000322E3D87242E5E872B013C01A32CBD84D2
:100A5000C22CDE847201830129813F85488959892E
:100A60006A897B898C899D890E94C51DE0E4AE2E30
:100A7000F2E4BF2EAFE0CA2ED12CE12CF12C00E025
:100A800010E00E94111DA32CBD84C22CDE847201D3
:100A900083010E94C71DA32FF42FE52F422F5A2F49
:100AA0006F2F7E2FA0E4CA2EA2E4DA2EAFE0EA2E4A
:100AB000F12C411551056105710521F4C12CD12C92
:100AC0007601C394AA24A3949A1409F46DC001E09A
:100AD0000E8BCB01BA0117E0660F771F881F991F95
:100AE0001A95D1F7A70196010E94EF1C298F3A8F22
:100AF0004B8F5C8F89849A84AB84BC8407E0880C1C
:100B0000991CAA1CBB1C0A95D1F7950184011250AF
:100B10002109310948015901298D3A8D4B8D5C8D90
:100B2000280D391D4A1D5B1DAF89B88D2D933D934E
:100B30004D935C931397FD0164837583868397833C
:100B40001896CD92DD92ED92FC921B978E888820AC
:100B500051F039829D849F86288AAE84A98A4A8A68
:100B60005B8A6C8A7D8A29813F85488959896A898F
:100B70007B898C899D896C960FB6F894DEBF0FBE79
:100B8000CDBFDF91CF911F910F91FF90EF90DF903C
:100B9000CF90BF90AF909F908F907F906F905F901D
:100BA0004F903F902F900895AF89B88D1D921D9260
:100BB0001D921C921397FD011482158216821782D2
:100BC00081E090E0A0E0B0E080879187A287B387C2
:100BD0003982FD85FF87288A8E84898AC0CF298142
:100BE0003F85488959896A897B898C899D89A0E0DC
:100BF000E0E83E2EF0EFFD87FAEF2F2E02E00E87A1
:100C0000412C512C612C712C0E94B61E09F0DACEB9
:100C100018E0B7E07DCEDF92EF92FF920F931F9323
:100C2000CF93DF93FC01E080F18002811381D481B6
:100C3000C581B681D7809701A8016D2F7C2F8B2F9E
:100C40009D2D20583A414640510961097109810999
:100C500091092F373A4146405105610571058105DB
:100C6000910509F0D0F49701A8016D2F7C2F8B2FEF
:100C70009D2D07E00E946B1E2083318342835383A6
:100C8000648375838683978387E0DF91CF911F917B
:100C90000F91FF90EF90DF9008959701A8016D2FBD
:100CA0007C2F8B2F9D2D35534C40510961097109C3
:100CB000810991092F3F34434C405105610571056D
:100CC0008105910509F098F49701A8016D2F7C2FFB
:100CD0008B2F9D2D06E00E946B1E20833183428363
:100CE0005383648375838683978386E0CECF970191
:100CF000A8016D2F7C2F8B2F9D2D3A56484151090D
:100D000061097109810991092F3F3946484151050F
:100D1000610571058105910509F098F49701A80115
:100D20006D2F7C2F8B2F9D2D05E00E946B1E208345
:100D3000318342835383648375838683978385E0FD
:100D4000A4CF9701A8016D2F7C2F8B2F9D2D345D93
:100D50004043510961097109810991092F3F334DC0
:100D600040435105610571058105910509F098F42D
:100D70009701A8016D2F7C2F8B2F9D2D04E00E94E1
:100D80006B1E208331834283538364837583868300
:100D9000978384E07ACF9701A8016D2F7C2F8B2F4A
:100DA0009D2D385A414651096109710981099109FE
:100DB0002F3F374A4146510561057105810591056F
:100DC00009F098F49701A8016D2F7C2F8B2F9D2D92
:100DD00003E00E946B1E208331834283538364832C
:100DE00075838683978383E050CF9701A8016D2F89
:100DF0007C2F8B2F9D2D3055434C51096109710972
:100E0000810991092F3F3F44434C5105610571050C
:100E10008105910509F098F49701A8016D2F7C2FA9
:100E20008B2F9D2D02E00E946B1E20833183428315
:100E30005383648375838683978382E026CF9701EB
:100E4000A8016D2F7C2F8B2F9D2D305A4648514085
:100E500061097109810991092F3F3F494648514075
:100E6000610571058105910509F098F49701A801C4
:100E70006D2F7C2F8B2F9D2D01E00E946B1E2083F8
:100E8000318342835383648375838683978381E0B0
:100E9000FCCE80E0FACE833081F028F4813099F0E6
:100EA0008230A9F008958730A9F08830C9F08430E5
:100EB000B1F4809180008F7D03C0809180008F7796
:100EC00080938000089584B58F7784BD089584B59C
:100ED0008F7DFBCF8091B0008F778093B000089515
:100EE0008091B0008F7DF9CFCF93DF93282F30E032
:100EF000F901E85FFE4F8491F901EC50FF4FD49166
:100F0000F901E052FF4FC491CC23A1F081110E945E
:100F10004B07EC2FF0E0EE0FFF1FEA52FF4FA591B9
:100F2000B491EC91ED2381E090E009F480E0DF9151
:100F3000CF91089580E090E0FACF1F93CF93DF9395
:100F4000282F30E0F901E85FFE4F8491F901EC5061
:100F5000FF4FD491F901E052FF4FC491CC23A9F087
:100F6000162F81110E944B07EC2FF0E0EE0FFF1FB0
:100F7000E453FF4FA591B4918FB7F894EC91111100
:100F800008C0D095DE23DC938FBFDF91CF911F91F6
:100F90000895DE2BF8CFCF93DF9390E0FC01EC5067
:100FA000FF4F249180529F4FFC0184918823C9F008
:100FB00090E0880F991FFC01EE53FF4FA591B4916B
:100FC000FC01E453FF4FC591D49161110DC09FB74F
:100FD000F8948C91209582238C93888128232883F0
:100FE0009FBFDF91CF910895623051F49FB7F8947D
:100FF0003C91822F809583238C93E8812E2BEFCF19
:101000008FB7F894EC912E2B2C938FBFEACF3FB77C
:10101000F8948091330290913402A0913502B091FE
:10102000360226B5A89B05C02F3F19F00196A11DD9
:10103000B11D3FBFBA2FA92F982F8827BC01CD0122
:10104000620F711D811D911D42E0660F771F881F81
:10105000991F4A95D1F708958F929F92AF92BF92B0
:10106000CF92DF92EF92FF924B015C010E94070842
:101070006B017C010E9407086C197D098E099F098C
:10108000683E734081059105A8F321E0821A91081A
:10109000A108B10888EEC80E83E0D81EE11CF11C3F
:1010A00081149104A104B10429F7FF90EF90DF901F
:1010B000CF90BF90AF909F908F900895089508951E
:1010C000AF92BF92CF92DF92EF92FF920F931F9356
:1010D000CF93DF936C017B018B01040F151FEB0194
:1010E0005E01AE18BF08C017D10759F06991D6014B
:1010F000ED91FC910190F081E02DC6010995892BBD
:1011000079F7C501DF91CF911F910F91FF90EF907B
:10111000DF90CF90BF90AF900895FC01538D448D28
:10112000252F30E0842F90E0821B930B541710F092
:10113000CF96089501970895FC01918D828D98179F
:1011400061F0A28DAE0FBF2FB11D5D968C91928D77
:101150009F5F9F73928F90E008958FEF9FEF0895A8
:10116000FC01918D828D981731F0828DE80FF11D71
:10117000858D90E008958FEF9FEF0895FC01918D8C
:10118000228D892F90E0805C9F4F821B91098F7385
:101190009927089587EC92E00E94BE0821E0892BF0
:1011A00009F420E0822F089580E090E0892B29F057
:1011B0000E94CA0881110C9400000895FC01A48DBE
:1011C000A80FB92FB11DA35ABF4F2C91848D90E069
:1011D00001968F739927848FA689B7892C93A0894C
:1011E000B1898C91837080648C93938D848D9813D6
:1011F00006C00288F389E02D80818F7D8083089569
:10120000EF92FF920F931F93CF93DF93EC0181E056
:10121000888F9B8D8C8D98131AC0E889F9898081FD
:1012200085FF15C09FB7F894EE89FF896083E88930
:10123000F98980818370806480839FBF81E090E022
:10124000DF91CF911F910F91FF90EF900895F62EAF
:101250000B8D10E00F5F1F4F0F731127E02E8C8D49
:101260008E110CC00FB607FCFACFE889F98980818E
:1012700085FFF5CFCE010E94DE08F1CFEB8DEC0F9C
:10128000FD2FF11DE35AFF4FF0829FB7F8940B8FAB
:10129000EA89FB8980818062CFCFCF93DF93EC0115
:1012A000888D8823B9F0AA89BB89E889F9898C914E
:1012B00085FD03C0808186FD0DC00FB607FCF7CF0A
:1012C0008C9185FFF2CF808185FFEDCFCE010E940A
:1012D000DE08E9CFDF91CF9108952091ED01260F2F
:1012E0003327331F21323105ECF420919D02FC019C
:1012F00090E080E0243069F082E00895A091ED0153
:101300002191AC0143535E4FA40FB52FB11D2C9317
:101310000196861798F38091ED01680F6093ED01B7
:1013200080E0089581E0089510929D0281E080930D
:101330009C021092770261E082E10E949D0761E0C9
:1013400083E10E949D07E9EBF0E080818E7F80833E
:1013500080818D7F808388E48093B80085E48093CA
:10136000BC000895CF93DF9391E09093CC01882344
:10137000B9F0C091B800D091BA008091BC008A7BCE
:101380008093BC0060E082E10E949D0760E083E101
:101390000E949D070E949409D093BA00C093B800A0
:1013A000DF91CF9108958F929F92AF92BF92CF928B
:1013B000DF92EF92FF920F931F93CF93DF93D09121
:1013C000C602D13208F0D7C0182FC091C5020E94C2
:1013D00007086B017C0180919D0281116BC082E046
:1013E00080939D0210939C028FEF80939B0210923A
:1013F0009A02D0939902A5EAB2E0E9E7F2E080E030
:10140000D81391C01092780280917802CC0FC82B2B
:10141000C093780280917702813009F088C01092E1
:1014200077020E9407086B017C018091780280930B
:10143000BB0080919F029091A002A091A102B09167
:10144000A202892B8A2B8B2BA1F00E940708009106
:101450009F021091A0022091A1023091A2026C196A
:101460007D098E099F09061717072807390708F411
:1014700042C08091BC0083FDD8CF85EC8093BC0036
:101480000E9407086B017C0180919D02823009F463
:1014900050C080919B028F3F09F46FC080919B02E6
:1014A000803209F46CC080919B02803309F469C0DA
:1014B00084E026C080919F029091A002A091A10299
:1014C000B091A202892B8A2B8B2B09F484CF0E9426
:1014D000070880909F029090A002A090A102B09077
:1014E000A2026C197D098E099F0986169706A80627
:1014F000B90608F070CF80919E020E94B20985E083
:101500001092A4021092C6021092A302DF91CF9112
:101510001F910F91FF90EF90DF90CF90BF90AF9011
:101520009F908F9008959D9191938F5F69CF85EEE5
:10153000A5CF80919F029091A002A091A102B091AD
:10154000A202892B8A2B8B2B09F49ECF0E940708BD
:1015500000919F021091A0022091A1023091A2025D
:101560006C197D098E099F09061717072807390787
:1015700008F08ACFC0CF81E0C3CF80E0C1CF82E046
:10158000BFCF83E0BDCF0895E09156028091550210
:10159000E81730F4F0E0E95AFD4F808190E00895BB
:1015A0008FEF9FEF089590915602809155022FEF93
:1015B0003FEF981748F4E92FF0E0E95AFD4F2081FA
:1015C00030E09F5F90935602C9010895CF92DF9259
:1015D000EF92FF920F931F93CF93DF937C01CB0188
:1015E0008A012091A302222389F0EB016B01C40E32
:1015F000D51ECC15DD0569F06991D701ED91FC91FF
:101600000190F081E02DC7010995F3CF642F0E946E
:101610006D09C801DF91CF911F910F91FF90EF905D
:10162000DF90CF900895CF93DF931F92CDB7DEB7B1
:1016300069832091A3022223F9F02091C60220326F
:1016400058F021E030E0FC013383228390E080E019
:101650000F90DF91CF9108958091A402E82FF0E0E0
:10166000EB55FD4F998190838F5F8093A402809307
:10167000C60281E090E0ECCF61E0CE0101960E94CD
:101680006D09F7CFCF93C62F9091FC0321E02093F3
:10169000A3029093C5021092A4021092C602682F72
:1016A00084E693E00E94130B6C2F84E693E00E9483
:1016B000130B81E0CF910C94D309EF92FF920F931B
:1016C0001F93CF93DF93062F7A019091FC0321E0C3
:1016D0002093A3029093C5021092A4021092C60216
:1016E000682F84E693E00E94130BE70110E0CE011F
:1016F0008E199F098017910734F4699184E693E06D
:101700000E94130BF4CF81E0DF91CF911F910F91D5
:10171000FF90EF900C94D309FC01848191E09093A9
:10172000A3028093C5021092A4021092C60284E61E
:1017300093E00E94130B81E00C94D309089590E08C
:1017400080E00895CF92DF92EF92FF920F931F9364
:10175000CF939091FC0321E02093A3029093C502C4
:101760001092A4021092C602682F84E693E00E94B1
:10177000130B81E00E94D309C091FC030E9407086B
:101780006B017C0180919D02811165C081E0809395
:101790009D0210929C029FEF90939B0210929A02DE
:1017A000109299028093780280917802CC0FC82B16
:1017B000C093780280917702813009F080C0109246
:1017C00077020E9407086B017C0180917802809368
:1017D000BB0080919F029091A002A091A102B091C4
:1017E000A202892B8A2B8B2BA1F00E940708009163
:1017F0009F021091A0022091A1023091A2026C19C7
:101800007D098E099F09061717072807390708F46D
:1018100043C08091BC0083FDD8CF85EC8093BC0091
:101820000E9407086B017C0180919D02813009F4C0
:1018300048C080919A02C1E0811102C0C0919A0211
:10184000E9E7F2E0A7E5B2E080E08C1751F1919171
:101850009D938F5FFACF80919F029091A002A091FB
:10186000A102B091A202892B8A2B8B2B09F48ACF7B
:101870000E94070800919F021091A0022091A102EE
:101880003091A2026C197D098E099F09061717076E
:101890002807390708F076CF80919E020E94B2098E
:1018A000C0E010925602C093550280E0909156021B
:1018B000C91749F184E693E00E94D30AF7CF85EE79
:1018C000ADCF80919F029091A002A091A102B09112
:1018D000A202892B8A2B8B2B09F4A6CF0E94070822
:1018E00000919F021091A0022091A1023091A202CA
:1018F0006C197D098E099F090617170728073907F4
:1019000008F092CFC9CFCF911F910F91FF90EF9028
:10191000DF90CF9008951F93CF93DF93C62F142F9E
:101920008E5E9E4FFC01D0818D2F0E94A20B83788A
:1019300011118C60F0E1CF9FB0011124682B8D2F25
:10194000DF91CF911F910C94420BCF93DF93D62F51
:10195000C0E1C80F8C2F0E94A20B682FD13031F448
:1019600060648C2FDF91CF910C94420B6F7BF9CF89
:10197000CF93DF9380E00E94A20BCEE7D3E0982FB5
:10198000991F9927991F9883282F86FB992790F9EB
:10199000998385FB992790F99A83229521702B834F
:1019A00083708C8381E00E94A20B982F991F992746
:1019B000991F9D8386FB992790F99E8385FB992724
:1019C00090F99F83829581708887DF91CF910895E8
:1019D000FF920F931F93CF93DF93EC018B01F82EAF
:1019E00080E1F80E8F2D0E94A20B682F01151105C2
:1019F00081F46F7D8F2D0E94420BCC0FDD1FC258EA
:101A0000DC4F1A870987DF91CF911F910F91FF90CB
:101A100008956062EFCF0F931F93CF93DF93EC0194
:101A2000042F6B8711E019878885880F9F81946048
:101A3000892B2A8598E0299F90011124822B607FB1
:101A4000682BCE010E948C0B19866885660F8A85EB
:101A500028E0829FC0011124682B8F81682B8B8521
:101A6000807F682BCE010E948C0B011131C08FE862
:101A700090E00197F1F719878F8184606885660F80
:101A8000682B8A8528E0829FC0011124682B8B85F2
:101A900020E1829FC0011124682BCE010E948C0B93
:101AA00019866885660F8A8528E0829FC001112407
:101AB000682B8F81682B8B8520E1829FC0011124C8
:101AC000682BCE01DF91CF911F910F910C948C0B5D
:101AD000DF91CF911F910F910895E0E7F3E0178216
:101AE00010866485862F826084876A6040E0CF011B
:101AF0000E940B0D8FE890E00197F1F70895E0E761
:101B0000F3E0178210866485862F81608487696080
:101B100040E0CF010E940B0D8FE890E00197F1F7B4
:101B20000895109277031092780390917603981796
:101B300008F480E0E82FF0E0E25FFE4F608160682B
:101B400040E080E793E00E940B0D8FE890E0019762
:101B5000F1F70895E0E7F3E01782108640E061E0D6
:101B6000CF010E940B0D83E398E10197F1F70895EF
:101B700021E0FC012783108640E00E940B0D8FE9D5
:101B800090E00197F1F781E090E008952F923F9265
:101B90004F925F926F927F928F929F92AF92BF927D
:101BA000CF92DF92EF92FF920F931F93CF93DF9329
:101BB000CDB7DEB72D970FB6F894DEBF0FBECDBF01
:101BC0003C01C982DA82EB82FC820D831E832F8363
:101BD000388749875A876B877C87BAA03C2C2D2C85
:101BE0005E2C0D87412E922EC984DA84EB84FC840E
:101BF00084E190E00E94D71E8C01FC01D082C1825A
:101C0000862D880F880F880F845D0E94A20BF52D0A
:101C1000F3705F2E8C7F582AF8015282238234821F
:101C20008CE0F694E794D794C7948A95D1F7FC2D6D
:101C3000F07FCF2E892D8F70C82AF801C582468289
:101C40008D85878393E06916710409F46CC0A8F54B
:101C5000F1E06F16710409F448C082E0681671045F
:101C600009F452C0A80168E08AE20E945D0B6A2D67
:101C700090E080E00E94A50C4B2D682D90E080E064
:101C80000E948B0CC8012D960FB6F894DEBF0FBED4
:101C9000CDBFDF91CF911F910F91FF90EF90DF901B
:101CA000CF90BF90AF909F908F907F906F905F90FC
:101CB0004F903F902F900C94731F94E0691671041D
:101CC00009F440C0E5E06E16710461F6A80168E011
:101CD00082E50E945D0B6A2D85E090E00E94A50CD4
:101CE0004B2D682D85E090E0CBCFA80168E082E322
:101CF0000E945D0B6A2D81E090E00E94A50C4B2DA7
:101D0000682D81E090E0BCCFA80168E08AE30E94E2
:101D10005D0B6A2D82E090E00E94A50C4B2D682D92
:101D200082E090E0ADCFA80168E082E40E945D0B04
:101D30006A2D83E090E00E94A50C4B2D682D83E076
:101D400090E09ECFA80168E08AE40E945D0B6A2DB6
:101D500084E090E00E94A50C4B2D682D84E090E07B
:101D60008FCF2F923F924F925F926F927F928F927E
:101D70009F92AF92BF92CF92DF92EF92FF920F931A
:101D80001F93CF93DF93CDB7DEB72E970FB6F8949E
:101D9000DEBF0FBECDBF19013A014B018D879E8773
:101DA0002801012B09F073C0E091E703F091E803EB
:101DB000EE0FFF1FEE0FFF1FED50FC4FA080B18014
:101DC000C280D380CE0101967C0189019301AB01D1
:101DD0006D857E8590E080E00E94C00084E190E007
:101DE0000E94D71E8C0189859A85AB85BC85F80138
:101DF0009083818339814A812B812370228343839D
:101E000034832CE0B695A795979587952A95D1F7B9
:101E1000807F2D813E819F819F70892B85833683B2
:101E200027834114510409F04BC0A80168E08AE1FE
:101E30000E945D0B2092D7033092D8036092D903A1
:101E40007092DA038092DB039092DC03FD85F093BD
:101E5000DD038E858093DE03C8012E960FB6F894BD
:101E6000DEBF0FBECDBFDF91CF911F910F91FF90CD
:101E7000EF90DF90CF90BF90AF909F908F907F902A
:101E80006F905F904F903F902F900C94731FE09154
:101E9000E903F091EA03EE0FFF1FEE0FFF1FED5075
:101EA000FC4FA080B180C280D380FE0131967F01BB
:101EB00081019A01AB016D857E8581E090E08CCF38
:101EC0004A94452849F6A80168E082E20E945D0B29
:101ED0002092DF033092E0036092E1037092E2030C
:101EE0008092E3039092E403ED85E093E503FE85A1
:101EF000F093E603B1CF2F923F924F925F926F9291
:101F00007F928F929F92AF92BF92CF92DF92EF9289
:101F1000FF920F931F93CF93DF93CDB7DEB7E19777
:101F20000FB6F894DEBF0FBECDBF022F29A3132F2B
:101F30003AA34BA35CA36DA37EA38FA398A798019C
:101F4000AFEF0E94AA1E2E373A4146405105610567
:101F500071058105910509F058F480E889A38AE1AB
:101F60008AA386E08BA31CA21DA21EA21FA218A6F4
:101F700029A13AA14BA15CA16DA17EA18FA198A539
:101F80002115314C4A415D4365407105810591053C
:101F900069F060F019A281EC8AA38AE18BA38DE33A
:101FA0008CA385E08DA31EA21FA218A679A0AAA0CB
:101FB0000BA11CA1BDA1AEA1FFA1F8A4272D3A2D14
:101FC000A8016B2F7A2F8F2F9F2D2115344E4B4058
:101FD0005445624071058105910509F008F409C175
:101FE000E0908703F090880387E9482E83E0582E1D
:101FF0008EE793E09AA789A78C01F201D12C20816A
:1020000031814281538164817581868197813896BF
:102010002115344E4B4054456240710581059105B0
:1020200059F050F0DD2041F0D80119968D919C9126
:102030008E159F0509F44DC1D3940E5F1F4FB6E076
:10204000DB12DDCF8091FD0381110BC083E00E9484
:10205000A20B682F6E7F83E00E94420B81E0809389
:10206000FD0329A13AA14BA15CA16DA17EA18FA185
:1020700098A5209397033093980340939903509326
:102080009A0360939B0370939C0380939D039093AA
:102090009E03FE013D964F01A12CB12CC12CD12CE9
:1020A000E12CF12C00E010E00E94F5032BA73CA7E7
:1020B0004DA75EA76FA778AB382E292E0091870316
:1020C000109188030E94B10E712C612CD201EC900A
:1020D0001196FC9011971296AC90129713960C9152
:1020E000139714961C9114971596BC91F201D68003
:1020F000C780F8E04F0E511C97014A2D502F612FD9
:102100007B2F8D2D9C2DA0E00E94B61E09F455C09A
:102110002091870330918803E9A5FAA581859285EE
:102120002817390709F049C0E98EFA8EAB8E0C8F5B
:102130001D8FBE8FDF8EC8A2CE0149960E940B066E
:1021400089AB298D3A8D4B8D5C8D6D8D7E8DCE0149
:1021500001964C01ABA4BCA4CDA4DEA4EFA4F8A8C6
:10216000032D122D8F8D98A10E94F503AA24A3940C
:10217000298D3A8D4B8D5C8D6D8D7E8D8F8D98A1C7
:102180002F3F354D41415E47634071058105910503
:1021900009F008F4A12CAF9289A8C980DA80EB80FD
:1021A000FC800D811E812F81388549855A856B857C
:1021B0007C85C3010E94C60D0F90BFEF6B1A7B0A8E
:1021C000E9A5FAA53296FAA7E9A7F6E06F16710419
:1021D00009F07CCF809187039091880360E200979B
:1021E00019F0019721F460E881EB0E94420B80E036
:1021F00071C070929703A092980300939903109373
:102200009A03B0939B03A0939C03F0939D03F092D9
:102210009E038091FD0381110BC083E00E94A20BFD
:10222000682F6E7F83E00E94420B81E08093FD0364
:10223000CE0181960E940B06782EE0918703F091E3
:10224000880329A13AA14BA15CA16DA17EA18FA118
:1022500098A5EF2B51F5A090D703B090D803C0906C
:10226000D903D090DA03E090DB03F090DC03009117
:10227000DD031091DE03DE011D964D010E94F50382
:102280001F92872CA12CCD84DE84EF84F8880989E5
:102290001A892B893C894D895E896F89788D90E0F8
:1022A00080E00E94C60D0F90A2CFA090DF03B090F7
:1022B000E003C090E103D090E203E090E303F090EC
:1022C000E4030091E5031091E603FE013D964F0102
:1022D000D5CF81E0E1960FB6F894DEBF0FBECDBF3B
:1022E000DF91CF911F910F91FF90EF90DF90CF90F2
:1022F000BF90AF909F908F907F906F905F904F9026
:102300003F902F9008954F925F926F927F928F929D
:102310009F92AF92BF92CF92DF92EF92FF920F9374
:102320001F93CF93DF93409014025090150260905A
:102330001602709017028090180290901902D091A6
:102340001A02C0911B0230911D0220911C02932F92
:10235000990F990BA0900001B0900101C09002016B
:10236000D0900301E0900401F09005010091060176
:1023700010910701492F592F692F792F892F0E941A
:10238000111D5201630174010D2F1C2F0E94A11E0B
:1023900089012F39E6E83E07E1E04E075105610566
:1023A00071058105910599F190F120931402109324
:1023B000150240931602509317026093180270930F
:1023C000190280931A0290931B02209114023091FB
:1023D00015024091160250911702609118027091F7
:1023E000190280911A0290911B02DF91CF911F91E7
:1023F0000F91FF90EF90DF90CF90BF90AF909F90A4
:102400008F907F906F905F904F900C947B0F109205
:1024100018021092190210921A0210921B02D5CFC4
:10242000FB0101900020E9F73197AF01461B570BE4
:10243000DC01ED91FC910280F381E02D0994CF93B2
:10244000DF93D0E0C0E0009731F0BC0187EC92E070
:102450000E941012EC016AE471E087EC92E00E94A5
:1024600010128C0F9D1FDF91CF9108952F923F92F4
:102470004F925F926F927F928F929F92AF92BF9294
:10248000CF92DF92EF92FF920F931F93CF93DF9340
:10249000CDB7DEB765970FB6F894DEBF0FBECDBFE0
:1024A000F22EE32E742E652E562E472E382E292E10
:1024B0000E94AA0D8DE491E00E941F128DB79EB775
:1024C0009D8B8C8B2F2D3E2D472D562D652D742DDC
:1024D000832D922D0E94291B0E94B81B20E030E022
:1024E00040E85FE30E94871A0E94F31A4B018E01B5
:1024F0000F5F1F4F9AE0891691040CF078C02F925D
:102500003F924F925F926F927F92EF92FF928AE595
:1025100091E09F938F937E01EBE0EE0EF11CFF9212
:10252000EF920E94FC1FE9E0F0E0E819F9090FB60C
:10253000F894DEBF0FBECDBFD80120E32D93CD01AF
:10254000801B910BE817F907CCF7D701E00FF11FBB
:10255000CF01801B910B0A971CF48D918193F8CFCA
:102560000FB6F894DEBF0FBECDBF0FB6F894DEBF36
:102570000FBECDBFC8010E941F1280E00E94910DC6
:10258000B80180E793E00E941012F801019000204A
:10259000E9F7CF010197801B910BAC015595479549
:1025A00055954795480F591FE7E3F2E0D80130E011
:1025B00020E06EE27D01E01AF10AE816F906F4F473
:1025C0007C91708311967C911197718312967C9106
:1025D00012977283790173E0E70EF11CE416F50699
:1025E00009F063832C5F3F4F13963496E3CF6EE57B
:1025F00071E087EC92E00E941012B7CF2A5C3D4F49
:10260000F901108287E392E00E941F1281E00E948C
:10261000910D67E372E080E793E00E9410126596E7
:102620000FB6F894DEBF0FBECDBFDF91CF911F91E3
:102630000F91FF90EF90DF90CF90BF90AF909F9061
:102640008F907F906F905F904F903F902F90089564
:1026500085ED8093BC0080919F029091A002A09193
:10266000A102B091A2020796A11DB11D23E0B6956B
:10267000A795979587952A95D1F72091BC0024FDC1
:1026800003C010929D02089540919F025091A002B4
:102690006091A1027091A202452B462B472B69F352
:1026A0000097A105B10541F02AE22A95F1F700C093
:1026B0000197A109B109E1CF80919E020C94B20962
:1026C0001F920F920FB60F9211242F933F938F9367
:1026D0009F93AF93BF9380912F0290913002A0916E
:1026E0003102B091320230912E0223E0230F2D37B8
:1026F00058F50196A11DB11D20932E0280932F0243
:1027000090933002A0933102B09332028091330251
:1027100090913402A0913502B09136020196A11D2C
:10272000B11D8093330290933402A0933502B0938D
:102730003602BF91AF919F918F913F912F910F9052
:102740000FBE0F901F90189526E8230F0296A11D2B
:10275000B11DD2CF1F920F920FB60F9211242F935B
:102760003F934F935F936F937F938F939F93AF9319
:10277000BF93EF93FF9387EC92E00E94DE08FF91F6
:10278000EF91BF91AF919F918F917F916F915F91E9
:102790004F913F912F910F900FBE0F901F90189562
:1027A0001F920F920FB60F9211242F938F939F9326
:1027B000EF93FF93E091D702F091D8028081E091EE
:1027C000DD02F091DE0282FD1BC090818091E0026B
:1027D0008F5F8F732091E102821741F0E091E00258
:1027E000F0E0E953FD4F958F8093E002FF91EF9168
:1027F0009F918F912F910F900FBE0F901F90189562
:102800008081F4CF1F920F920FB60F9211242F9355
:102810003F934F935F936F937F938F939F93AF9368
:10282000BF93EF93FF938091B900887F803609F4BE
:102830004AC0F0F5883209F4A7C018F5803109F4D0
:102840009BC0B8F4882309F4F9C0883009F494C017
:10285000FF91EF91BF91AF919F918F917F916F9178
:102860005F914F913F912F910F900FBE0F901F904E
:102870001895883109F488C0803251F780939B0203
:1028800014C0803409F49DC040F48033B9F3883318
:10289000F9F680939B0285ECB0C0803509F485C0C1
:1028A000883509F496C0883499F60E942813D0CF51
:1028B000883909F48CC038F5883729F050F4883607
:1028C00011F0803729F683E080939D0210920F0269
:1028D00057C0883809F47BC0803919F0803809F076
:1028E000B7CF80910F02803208F071C0E0910F02E3
:1028F00081E08E0F80930F028091BB00F0E0E151E8
:10290000FE4F80833DC0803B39F0E0F4803A09F40B
:1029100079C0883A09F09CCF84E080939D021092A0
:10292000EE011092ED01E0911202F091130209956F
:102930008091ED0181110FC081E08093ED01109233
:10294000CD0109C0803C09F4A6CF883C09F4A3CF8F
:10295000883B09F07DCFE091EE0181E08E0F8093FE
:10296000EE01F0E0E353FE4F80818093BB00909135
:10297000EE018091ED0129C0809178028093BB0027
:1029800085EC8093BC0064CF90919A02809199026B
:10299000981758F5E0919A0281E08E0F80939A0281
:1029A000F0E0E758FD4F8081E9CFE0919A0281E0A5
:1029B0008E0F80939A028091BB00F0E0E758FD4FA4
:1029C000808390919A02809199029817C8F285E8C5
:1029D000D8CFE0919A0281E08E0F80939A02809185
:1029E000BB00F0E0E758FD4F808380919C0281118D
:1029F0005CCF81E08093770284EA8093BC001092E0
:102A00009D0226CF85EC8093BC0010929D028091A0
:102A10000F02803230F4E0910F02F0E0E151FE4FFE
:102A2000108260910F0270E0E0911002F0911102AB
:102A30008FEE91E0099510920F020ACF10929B023F
:102A400034CFE7ECF2E01382128288EE93E0A0E04C
:102A5000B0E084839583A683B7832EE131E0318390
:102A6000208325EC30E03587248724EC30E037875D
:102A7000268720EC30E0318B208B21EC30E0338B4B
:102A8000228B22EC30E0358B248B26EC30E0378B28
:102A9000268B118E128E138E148EE4E6F3E01382D1
:102AA000128284839583A683B78380E391E0918328
:102AB0008083EEE7F3E085E0DF011D928A95E9F778
:102AC000158216821782108680E68093FC0380E4CC
:102AD00098E7ADE7B1E08093EB039093EC03A0930C
:102AE000ED03B093EE031092E8031092E703109207
:102AF000EA031092E9031092FB03E0E7F3E013828C
:102B0000128282E491E09183808387E284838FE064
:102B1000858381E08683178210861186128613864C
:102B2000148615860895CF93DF93CDB7DEB7A197AE
:102B30000FB6F894DEBF0FBECDBF789484B5826027
:102B400084BD84B5816084BD85B5826085BD85B551
:102B5000816085BD80916E00816080936E001092CF
:102B6000810080918100826080938100809181004A
:102B700081608093810080918000816080938000DB
:102B80008091B10084608093B1008091B000816039
:102B90008093B00080917A00846080937A00809165
:102BA0007A00826080937A0080917A0081608093BD
:102BB0007A0080917A00806880937A001092C10038
:102BC000E091D702F091D80282E08083E091D302B5
:102BD000F091D4021082E091D502F091D60280E10A
:102BE00080831092DF02E091DB02F091DC0286E04C
:102BF0008083E091D902F091DA0280818061808344
:102C0000E091D902F091DA02808188608083E091BE
:102C1000D902F091DA02808180688083E091D90244
:102C2000F091DA0280818F7D808361E08BE00E94E9
:102C3000CB0760E08BE00E949D0710925602109235
:102C400055021092A4021092C6020E9494098EE5C9
:102C500098E090931302809312028FE598E090938E
:102C60001102809310028091FC0391E09093A302E3
:102C70008093C50281E00E94D309F12C811137C1F4
:102C800080E00E94A20B90E0880F892F881F990B8B
:102C90000197B1F362E987EB0E94420B80E498E769
:102CA000ADE7B1E08093EB039093EC03A093ED03C9
:102CB000B093EE031092F3031092F4031092F50315
:102CC0001092F6032091D7033091D8034091D90395
:102CD0005091DA036091DB037091DC0310E000E0B7
:102CE0008091DD039091DE030E94B10E2091DF03FD
:102CF0003091E0034091E1035091E2036091E303DE
:102D00007091E40301E010E08091E5039091E60307
:102D10000E94B10E60E880E10E94420B60E881E110
:102D20000E94420B60E882E10E94420B60E883E16E
:102D30000E94420B60E884E10E94420B60E885E15A
:102D40000E94420B60E886E10E94420B60E887E146
:102D50000E94420B6CE080E10E94420B6CE081E13A
:102D60000E94420B6CE082E10E94420B6CE083E126
:102D70000E94420B6CE084E10E94420B6CE085E112
:102D80000E94420B6CE086E10E94420B6CE087E1FE
:102D90000E94420B10E000E020E030E24FE550EAF4
:102DA00062E170E080E090E00E94B10E01E010E08E
:102DB00020E030E24FE550EA62E170E080E090E030
:102DC0000E94B10E109288031092870310928A031A
:102DD0001092890310928C0310928B0310928E0331
:102DE00010928D031092900310928F031092920311
:102DF0001092910381E090E0909394038093930369
:102E0000909396038093950370E060E090E080E0FB
:102E10000E94E80C70E060E081E090E00E94E80C25
:102E200070E060E082E090E00E94E80C70E060E01A
:102E300083E090E00E94E80C70E060E084E090E0C5
:102E40000E94E80C70E060E085E090E00E94E80CF1
:102E500061E070E086E090E00E94E80C61E070E0E4
:102E600087E090E00E94E80C60E082EA0E94420B5A
:102E700060E083EA0E94420B60E084EA0E94420B19
:102E800060E281EB0E94420B60E881EB0E94420B02
:102E900007E913E04DEF842E43E0942EF12CE12C52
:102EA00066246394712CF8011082118212821382BD
:102EB0001482158216821782085F1F4F83E00E94DA
:102EC000A20BB3010E2C01C0660F0A94EAF7682B1F
:102ED00083E00E94420BF40111924F01FFEFEF1AC1
:102EE000FF0A28E0E216F104F1F6FF24F3948FE0E4
:102EF0000E94A20B1092E8031092E703682F6B7FE9
:102F00008FE00E94420B2091D7033091D80340916B
:102F1000D9035091DA036091DB037091DC0310E078
:102F200000E08091DD039091DE030E94B10E2091BC
:102F3000DF033091E0034091E1035091E20360919F
:102F4000E3037091E40301E010E08091E5039091C8
:102F5000E6030E94B10EF11004C084E991E00E94E2
:102F60001F128CE8809314028DE68093150285E78A
:102F70008093160286E8809317021092180210922E
:102F8000190210921A0210921B020E94B80C64E6F9
:102F900070E080E090E00E942C081092560210929F
:102FA00055021092A4021092C6020E9494098EE566
:102FB00098E090931302809312028FE598E090932B
:102FC00011028093100260E080E793E00E948C0B76
:102FD00062E370E080E090E00E942C08109277039A
:102FE0001092780362E370E080E090E00E942C0889
:102FF00041E060E380E793E00E940B0D8BE991E4F0
:103000000197F1F741E060E380E793E00E940B0D48
:1030100083E592E00197F1F741E060E380E793E018
:103020000E940B0D0FE810E0C8010197F1F741E095
:1030300060E280E793E00E940B0DC8010197F1F771
:1030400040E068E280E793E00E940B0DC801019721
:10305000F1F7109277031092780360917C036B7FF5
:1030600060937C03686040E080E793E00E940B0D72
:10307000C8010197F1F70E94AA0D109277031092F0
:10308000780360917D03862F826080937D03666064
:1030900040E080E793E00E940B0DC8010197F1F733
:1030A000109277031092780360917C03862F8460DE
:1030B00080937C036C6040E080E793E00E940B0DFE
:1030C000C8010197F1F781E080937A0368E080E717
:1030D00093E00E948C0B0E94AA0D6DE471E080E7E2
:1030E00093E00E94101281E00E94910D60EC71E06B
:1030F00080E793E00E9410128DE491E00E941F127D
:103100000E94B80C64E670E080E090E00E942C0819
:1031100062E082E00E94CB0762E084E00E94CB077D
:1031200062E083E00E94CB0782E00E9474079093E4
:1031300021028093200283E00E94740790931F0273
:1031400080931E0220EE37ED49E958E060E070E020
:1031500080E090E00E94361260E085E00E94CB079C
:1031600060E086E00E94CB0760E087E00E94CB072A
:1031700060E088E00E94CB0764E670E080E090E0C9
:103180000E942C082AE0222E312C412C512C4E0179
:103190008AE1880E911C3FE8632E712C80912602F3
:1031A000811116C02FB7F89480912F0290913002B0
:1031B000A0913102B09132022FBF809322029093EE
:1031C0002302A0932402B093250291E0909326025B
:1031D00086E00E947407892BD1F52091000130917F
:1031E000010140910201509103016091040170912D
:1031F00005019AE0A92EB12CC12CD12CE12CF12C87
:1032000000E010E080910601909107010E94C71D27
:10321000A3E60E94B61E09F008F44BC120930001FA
:103220003093010140930201509303016093040124
:1032300070930501809306019093070186E00E9438
:103240007407892BD9F30E946D0D0E947F0D85E0D4
:103250000E947407892B09F044C08AE0A82EB12C83
:10326000C12CD12CE12CF12C00E010E020910001C8
:1032700030910101409102015091030160910401DC
:103280007091050180910601909107010E94111D26
:1032900079018A012115E1EE3E07E5EF4E07E5E0F1
:1032A0005E07610571058105910511F008F013C1F4
:1032B00020930001F0920101409302011093030159
:1032C00060930401709305018093060190930701B8
:1032D00085E00E947407892BD9F30E946D0D0E942E
:1032E0007F0D0E94B80C80918003811105C08091F0
:1032F0007F0361E08823E9F02FB7F89480912F02D3
:1033000090913002A0913102B09132022FBF4091D2
:103310002202509123026091240270912502841BA5
:10332000950BA60BB70B893E9340A105B105B8F0EC
:1033300060E08BE00E949D072FB7F89480912F02E8
:1033400090913002A0913102B09132022FBF809350
:10335000220290932302A0932402B093250219A283
:103360008E010F5D1F4F28E03DE848E850E0CA019C
:10337000B901A20191010E94EF1C605DF801629306
:103380008F01E815F90599F7B40187EC92E00E94E6
:1033900010126AE471E087EC92E00E94101220E1C2
:1033A0003AE845E756E860E070E080E090E00E948F
:1033B0007B0F83E00E9474078C0182E00E947407F7
:1033C0006C0184E00E9474077C018091200290913E
:1033D0002102C816D906C1F1D0922102C092200262
:1033E000109277031092780360917C036E7F609354
:1033F0007C03686040E080E793E00E940B0DC3010E
:103400000197F1F7109277031092780360917C0393
:103410006D7F60937C03686040E080E793E00E94EA
:103420000B0DC3010197F1F765E070E080E090E0DB
:103430000E942C0820EE37ED49E958E060E070E08A
:1034400080E090E00E94361280911E0290911F024F
:103450000817190709F110931F0200931E02012B90
:10346000D9F4EF2809F44BC081E090E090931D025D
:1034700080931C020E94831165E070E080E090E080
:103480000E942C0820EE37ED49E958E060E070E03A
:1034900080E090E00E94361280E090E0892B09F4F1
:1034A0007DCE0E94CA08882309F478CE0E940000CD
:1034B00075CEE4E6E0930001109201011092020142
:1034C000109203011092040110920501109206015E
:1034D00010920701B3CE10920001F1EEF0930101BA
:1034E00025EF2093020185E08093030110920401EF
:1034F000109205011092060110920701E9CEEFEF3C
:10350000FFEFF0931D02E0931C02B4CF5058BB278D
:10351000AA270E949E1A0C947E1B0E94701B38F0F2
:103520000E94771B20F039F49F3F19F426F40C9485
:103530006D1B0EF4E095E7FB0C94671BE92F0E94CE
:103540008F1B58F3BA17620773078407950720F09B
:1035500079F4A6F50C94B11B0EF4E0950B2EBA2F5E
:10356000A02D0B01B90190010C01CA01A001112489
:10357000FF27591B99F0593F50F4503E68F11A1635
:10358000F040A22F232F342F4427585FF3CF4695C6
:1035900037952795A795F0405395C9F77EF41F16E8
:1035A000BA0B620B730B840BBAF09150A1F0FF0FB2
:1035B000BB1F661F771F881FC2F70EC0BA0F621F9E
:1035C000731F841F48F4879577956795B795F7958E
:1035D0009E3F08F0B0CF9395880F08F09927EE0F23
:1035E0009795879508950E94FA1A6894B1110C94E2
:1035F000B21B08950E94971B88F09F5798F0B92F2F
:103600009927B751B0F0E1F0660F771F881F991F17
:103610001AF0BA95C9F714C0B13091F00E94B11BED
:10362000B1E008950C94B11B672F782F8827B85FFD
:1036300039F0B93FCCF3869577956795B395D9F76F
:103640003EF490958095709561957F4F8F4F9F4F79
:103650000895E894F92F96EBFF2381F012161306D4
:103660001406440B9395F69587957795679557952E
:103670004040FF23B9F71BC099270895882351F4D0
:103680009850D2F7872B762F652F542F432F322F48
:1036900020E0B1F3121613061406440B88233AF007
:1036A0009A95440F551F661F771F881FCAF7552329
:1036B0004AF4440F551F11F460FF04C06F5F7F4F41
:1036C0008F4F9F4F880F9695879597F9089597F993
:1036D0009F6780E870E060E008959FEF80EC0895B8
:1036E00000240A94161617061806090608950024E1
:1036F0000A9412161306140605060895092E03945B
:10370000000C11F4882352F0BB0F40F4BF2B11F4CE
:1037100060FF04C06F5F7F4F8F4F9F4F089557FD2D
:103720009058440F551F59F05F3F71F04795880F2F
:1037300097FB991F61F09F3F79F0879508951216C6
:1037400013061406551FF2CF4695F1DF08C0161672
:1037500017061806991FF1CF869571056105089423
:103760000895E894BB2766277727CB0197F908953A
:103770000E94C81B29ED3BE54EED5EE30C94101C46
:1037800016F00C94BA1C0C946D1B68940C94671B77
:103790000E94971BA8F39923C1F3AEF3DF93CF9355
:1037A0001F930F93FF92C92FDD2788232AF02197BB
:1037B000660F771F881FDAF720E030E040E85FEB04
:1037C0009FE3883920F0803E38F021968F770E9461
:1037D000871AE8E6F0E004C00E94871AE5E9F0E005
:1037E0000E94C81C8B01BE01EC01FB2E6F577109B2
:1037F0007595771F880B990B0E947F1C28E132E793
:1038000041E35FE30E94231CAF2D9801AE01FF90BE
:103810000F911F91CF91DF910E949E1A0C947E1BF5
:103820000E94231C0C947E1B0E94701B38F00E9487
:10383000771B20F0952311F00C94671B0C946D1BE3
:1038400011240C94B21B0E948F1B70F3959FC1F33F
:10385000950F50E0551F629FF001729FBB27F00D3E
:10386000B11D639FAA27F00DB11DAA1F649F662793
:10387000B00DA11D661F829F2227B00DA11D621FE2
:10388000739FB00DA11D621F839FA00D611D221F9C
:10389000749F3327A00D611D231F849F600D211D80
:1038A000822F762F6A2F11249F5750409AF0F1F003
:1038B00088234AF0EE0FFF1FBB1F661F771F881F6C
:1038C00091505040A9F79E3F510580F00C94671B22
:1038D0000C94B21B5F3FE4F3983ED4F38695779542
:1038E0006795B795F795E7959F5FC1F7FE2B880F12
:1038F000911D9695879597F90895E89409C097FBCF
:103900003EF490958095709561957F4F8F4F9F4FB6
:103910009923A9F0F92F96E9BB279395F6958795FA
:1039200077956795B795F111F8CFFAF4BB0F11F4BD
:1039300060FF1BC06F5F7F4F8F4F9F4F16C0882364
:1039400011F096E911C0772321F09EE8872F762F9A
:1039500005C0662371F096E8862F70E060E02AF0DB
:103960009A95660F771F881FDAF7880F96958795C7
:1039700097F908959F3F31F0915020F487957795FE
:103980006795B795880F911D9695879597F9089536
:10399000DF93CF931F930F93FF92EF92DF927B0100
:1039A0008C01689406C0DA2EEF010E94231CFE01F0
:1039B000E894A5912591359145915591A6F3EF0194
:1039C0000E949E1AFE019701A801DA9469F7DF9020
:1039D000EF90FF900F911F91CF91DF910895A1E299
:1039E0001A2EAA1BBB1BFD010DC0AA1FBB1FEE1F79
:1039F000FF1FA217B307E407F50720F0A21BB30BC4
:103A0000E40BF50B661F771F881F991F1A9469F73F
:103A100060957095809590959B01AC01BD01CF019B
:103A20000895DF93CF931F930F939A9DF02D219FBD
:103A3000F00D8B9DF00D8A9DE02DF10D039FF00D93
:103A4000029FE00DF11D4E9DE00DF11D5E9DF00DFC
:103A50004F9DF00D7F936F93BF92AF925F934F9303
:103A6000D5010E94C81E8B01AC01D7010E94C81E5F
:103A7000EB01E80FF91FD6010E94601D2F913F91C5
:103A8000D6010E94C81EC60FD71FE81FF91FAF91AD
:103A9000BF910E94601D2F913F910E94C81EC60FCA
:103AA000D71FE81FF91FD6010E94C81EE60FF71F97
:103AB0009801BE01CF010F911F91CF91DF91089521
:103AC0000E94C81E460F571FC81FD91F08F4319601
:103AD0000895E894DF93CF93FC01DB010E94C81E98
:103AE0007F936F93E9019A01AC01BF93AF933F932A
:103AF0002F93DF010E94C81E26F46C1B7D0B820BE6
:103B0000930B9E01EB01FC010E94601DAF91BF91E0
:103B10002F913F910E94601DBE01CF01F9012F91AD
:103B20003F91CF91DF910895689401C0E894F92FF7
:103B3000F12B12F00C94C81DA0E0B0E0E2EAFDE128
:103B40000C943A1E092E059422F40E94241E11237F
:103B500092F4F0E80F26FFEFE094F09400951095B2
:103B6000B094C094D094A194BF0ACF0ADF0AEF0AA0
:103B7000FF0A0F0B1F0B0E94D31D07FC0E94241E7F
:103B8000CDB7DEB7ECE00C94561E689401C0E89403
:103B90008F929F92CF93DF930E94D31DDF91CF919D
:103BA0009F908F90089588249924F401E401B0E453
:103BB0009F93AA279A158B049C04ED05FE05CF055B
:103BC000D007A10798F4AD2FDC2FCF2FFE2FE92DC2
:103BD000982C892E982F872F762F652F542F432FBF
:103BE000322F2227B85031F7BF9127C01B2EBF912B
:103BF000BB27220F331F441F551F661F771F881FC7
:103C0000991F881C991CEE1FFF1FCC1FDD1FAA1FC8
:103C1000BB1F8A149B04EC05FD05CE05DF05A0073C
:103C2000B10748F08A189B08EC09FD09CE09DF09A5
:103C3000A00BB10B21601A94E1F62EF49401AF01B0
:103C4000BE01CD01000C089560957095809590950A
:103C500030954095509521953F4F4F4F5F4F6F4F97
:103C60007F4F8F4F9F4F08952F923F924F925F92B9
:103C70006F927F928F929F92AF92BF92CF92DF927C
:103C8000EF92FF920F931F93CF93DF93CDB7DEB7E1
:103C9000CA1BDB0B0FB6F894DEBF0FBECDBF099475
:103CA0002A88398848885F846E847D848C849B84CC
:103CB000AA84B984C884DF80EE80FD800C811B81DA
:103CC000AA81B981CE0FD11D0FB6F894DEBF0FBE09
:103CD000CDBFED010895002E083090F0982F872F6A
:103CE000762F652F542F432F322F22270850F4CFE1
:103CF000220F331F441F551F661F771F881F991FF0
:103D00000A95B2F7002D089597FD1094002E083003
:103D100098F00850232F342F452F562F672F782FD8
:103D2000892F912DF4CF1594979587957795679561
:103D300057954795379527950A95AAF71124002D91
:103D400008952A0D3B1D4C1D5D1D6E1D7F1D801F9E
:103D5000911F08950024A7FD00942A0F301D401DD7
:103D6000501D601D701D801D901D08950024A7FD2D
:103D700000942A1730054005500560057005800540
:103D800090050895EE0FFF1F0590F491E02D099422
:103D9000A29FB001B39FC001A39F700D811D11248C
:103DA000911DB29F700D811D1124911D08950F93D7
:103DB0001F93CF93DF938230910510F482E090E05F
:103DC000E0910704F091080430E020E0B0E0A0E0CA
:103DD000309799F42115310509F44AC0281B390B95
:103DE00024303105D8F58A819B816115710589F1EF
:103DF000FB0193838283FE0111C0408151810281C6
:103E0000138148175907E0F04817590799F410979C
:103E100061F012960C93129713961C933296CF0171
:103E2000DF91CF911F910F91089500930704109394
:103E30000804F4CF2115310551F04217530738F02B
:103E4000A901DB019A01BD01DF01F801C1CFEF013A
:103E5000F9CF9093080480930704CDCFFE01E20FC1
:103E6000F31F819391932250310939832883D7CF4F
:103E70002091050430910604232B41F420910A017E
:103E800030910B0130930604209305042091080122
:103E9000309109012115310541F42DB73EB740910C
:103EA0000C0150910D01241B350BE0910504F0919C
:103EB0000604E217F307A0F42E1B3F0B281739075F
:103EC00078F0AC014E5F5F4F2417350748F04E0F76
:103ED0005F1F5093060440930504819391939FCFF5
:103EE000F0E0E0E09CCFCF93DF930097E9F0FC0196
:103EF000329713821282A0910704B0910804ED0159
:103F000030E020E01097A1F420813181820F931FCF
:103F100020910504309106042817390709F061C083
:103F2000F0930604E0930504DF91CF910895EA0130
:103F3000CE17DF07E8F54A815B819E0141155105E7
:103F4000B1F7E901FB83EA8349915991C40FD51F69
:103F5000EC17FD0761F4808191810296840F951F13
:103F6000E90199838883828193819B838A83F0E02E
:103F7000E0E012968D919C9113970097B9F52D91E1
:103F80003C911197CD010296820F931F2091050459
:103F9000309106042817390739F6309751F51092F9
:103FA000080410920704B0930604A0930504BCCF44
:103FB000D383C28340815181840F951FC817D907CD
:103FC00061F44E5F5F4F88819981480F591F51837B
:103FD00040838A819B81938382832115310509F077
:103FE000B0CFF0930804E09307049ECFFD01DC01FD
:103FF000C0CF13821282D7CFAEE0B0E0E2E0F0E2B1
:104000000C94421E0D891E8986E08C831A830983D5
:104010008FEF9FE79E838D83AE01475E5F4F6F8971
:10402000788DCE0101960E941F202F813885020FC6
:10403000131FF80110822E96E4E00C945E1EABE094
:10404000B0E0E5E2F0E20C94341E7C013B018A0111
:10405000FC0117821682838181FFC8C1CE010196BF
:104060005C01F7019381F30193FD859193FF8191A9
:104070003F01882309F453C1853239F493FD8591BA
:1040800093FF81913F01853229F4B70190E00E94AE
:104090000F22E7CF912C212C312CFFE1F31538F0C2
:1040A0008B3211F190F4803209F1833229F137FC1F
:1040B0003CC020ED280F2A3050F536FE20C08AE0A3
:1040C000989E200D1124922E06C08D3291F08033DF
:1040D00071F7689430F8F30193FD859193FF819116
:1040E0003F018111DACF21C0689431F8689432F829
:1040F000F2CF689433F8EFCF689434F8ECCFEAE06D
:104100002E9E200D1124222E689435F8E4CF8E3295
:1041100029F436FC04C1689436F8DDCF8C3619F4E6
:10412000689437F8D8CF8836B1F2982F9F7D955490
:104130009330E0F08336A1F18337C1F1833509F084
:1041400063C02801F2E04F0E511CF801C080D180FD
:10415000692D70E036FC02C06FEF7FEFC6010E9450
:10416000F9214C01689437F882010AC00C5F1F4F97
:10417000FFE3F98388248394912C6501E89437F850
:1041800033FE2DC0522C8114910471F5552009F491
:1041900068CFB70180E290E00E940F225A94F6CFD8
:1041A000F801808189830E5F1F4FE4CF2801F2E080
:1041B0004F0E511CF801C080D180692D70E036FC93
:1041C00002C06FEF7FEFC6010E9404224C01820102
:1041D000D5CFB70180E290E00E940F222A942814E4
:1041E000190409F0B0F7CECFF60137FC859137FE00
:1041F00081916F01B70190E00E940F2251105A94F3
:10420000F1E08F1A9108BFCF843619F0893609F092
:1042100077C0F80137FE6BC0608171818281938124
:104220000C5F1F4FF32DFF763F2E97FF09C090952F
:104230008095709561957F4F8F4F9F4F689437F8A9
:104240002AE030E0A5010E943F22C82ECA188C2C1B
:10425000432C36FE0CC0E89440F8C91440F434FEF8
:1042600005C032FC03C0F32DFE7E4F2E892C44FE88
:1042700095C0FE01EC0DF11D8081803309F087C0EF
:10428000242D297E422E842D8870582E43FC95C003
:1042900040FE8FC09C2C821418F42C0C922C981881
:1042A00044FE91C0B70180E390E00E940F2242FEDD
:1042B00009C088E790E041FE02C088E590E0B701C0
:1042C0000E940F22C91408F48AC0CA94D12C9FEF0F
:1042D000C91AD90ACA0CDB1CF60182916F01B70119
:1042E00090E00E940F22AC14BD04B1F74FCF608163
:1042F0007181072E000C880B990B0E5F1F4F92CF18
:10430000D32CE894D4F82AE030E0853739F1232D16
:10431000297FD22E8F3601F148F48835A9F0F701B4
:10432000868197812B96E2E10C94501E803749F0EC
:104330008837A9F7D4FE02C06894D2F820E130E0B3
:104340000DC06894D4F8F6CF34FE03C0822F866087
:10435000D82E20E132E002C028E030E0F801D7FE9C
:104360000FC060817181828193810C5F1F4FA50115
:104370000E943F22C82ECA183D2CE89437F867CF18
:104380006081718190E080E00E5F1F4FF0CF42FCB2
:1043900002C0839478CF8394839475CF842D8678DC
:1043A00009F471CFF6CFB70180E290E00E940F22AE
:1043B00083948214C0F3512C73CF522C581882145A
:1043C00008F46ECFF8CF842D867809F47BCF8BE28A
:1043D00041FE80E247FC8DE2B70190E071CFB7016A
:1043E00080E390E00E940F229A946CCF8FEF9FEFB2
:1043F00099CFFC010590615070400110D8F780956D
:1044000090958E0F9F1F0895FC01615070400190A0
:104410000110D8F7809590958E0F9F1F08950F93E8
:104420001F93CF93DF93182F092FEB018B8181FD11
:1044300009C01FEF0FEF812F902FDF91CF911F91B8
:104440000F91089582FF14C02E813F818C819D8140
:10445000281739073CF4E881F981CF010196998347
:10446000888310838E819F8101969F838E83E3CF03
:10447000E885F985812F0995892BA1F3DACFFA0117
:10448000AA27283051F1203181F1E8946F936E7F93
:104490006E5F7F4F8F4F9F4FAF4FB1E03ED0B4E084
:1044A0003CD0670F781F891F9A1FA11D680F791FC5
:1044B0008A1F911DA11D6A0F711D811D911DA11DD6
:1044C00020D009F468943F912AE0269F11243019E6
:1044D000305D3193DEF6CF010895462F4770405D81
:1044E0004193B3E00FD0C9F7F6CF462F4F70405D30
:1044F0004A3318F0495D31FD4052419302D0A9F78B
:10450000EACFB4E0A6959795879577956795BA9584
:10451000C9F700976105710508959B01AC010A2E4A
:1045200006945795479537952795BA95C9F7620F21
:10453000731F841F951FA01D0895F894FFCF6A6E06
:10454000190000000000000009048000004014541D
:104550002C343C444C545C5C0000000000096008B2
:104560008D084D09BE089C08B00800000000130B20
:10457000E60A9F0BC30AB900D30AC40A0000000070
:10458000B80D60089F0B9E0B0D0A004A4B2D31346D
:10459000342D56302E303400256C64004572726F15
:1045A000722030303031203A2045727265757220A9
:1045B000646520666F726D617461676520436F6E1C
:1045C00076657273696F6E206672657175656E636C
:1045D000650053796E7468C3A97469736575722038
:1045E0006E6F6E2064C3A974656374C3A92073756C
:1045F00072206C6520627573204932432100463475
:0A46000044454220323032340000FD
:107800000C94343C0C94513C0C94513C0C94513CE1
:107810000C94513C0C94513C0C94513C0C94513CB4
:107820000C94513C0C94513C0C94513C0C94513CA4
:107830000C94513C0C94513C0C94513C0C94513C94
:107840000C94513C0C94513C0C94513C0C94513C84
:107850000C94513C0C94513C0C94513C0C94513C74
:107860000C94513C0C94513C11241FBECFEFD8E036
:10787000DEBFCDBF11E0A0E0B1E0ECE9FFE702C060
:1078800005900D92A230B107D9F712E0A2E0B1E065
:1078900001C01D92AD30B107E1F70E942D3D0C945F
:1078A000CC3F0C94003C982F959595959595959582
:1078B000905D8F708A307CF0282F295A8091C0000B
:1078C00085FFFCCF9093C6008091C00085FFFCCF60
:1078D0002093C6000895282F205DF0CF982F809127
:1078E000C00085FFFCCF9093C6000895EF92FF92F1
:1078F0000F931F93EE24FF2487018091C00087FD22
:1079000017C00894E11CF11C011D111D81E4E8164B
:1079100082E4F8068FE0080780E0180770F3E09132
:107920000401F091050109958091C00087FFE9CF1E
:107930008091C6001F910F91FF90EF9008950E94D3
:10794000763C982F8091C00085FFFCCF9093C600B5
:1079500091362CF490330CF09053892F089597555D
:10796000892F08951F930E949F3C182F0E949F3CCF
:107970001295107F810F1F9108951F93182F882350
:1079800021F00E94763C1150E1F71F9108951F935A
:10799000182F0E94763C803249F0809103018F5F5E
:1079A000809303018530C1F01F9108958091C0003C
:1079B00085FFFCCF84E18093C6008091C00085FFE5
:1079C000FCCF1093C6008091C00085FFFCCF80E102
:1079D0008093C6001F910895E0910401F091050184
:1079E00009951F9108950E94763C803241F0809164
:1079F00003018F5F80930301853081F008958091AA
:107A0000C00085FFFCCF84E18093C6008091C00058
:107A100085FFFCCF80E18093C6000895E0910401CA
:107A2000F09105010995089540E951E08823A1F0FE
:107A30002D9A28EE33E0FA013197F1F721503040CA
:107A4000D1F72D9828EE33E0FA013197F1F7215064
:107A50003040D1F7815061F708953F924F925F9285
:107A60006F927F928F929F92AF92BF92CF92DF924E
:107A7000EF92FF920F931F93CF93DF93000080E16B
:107A80008093C4001092C50088E18093C10086E015
:107A90008093C2005098589A259A81E00E94143D24
:107AA00024E1F22E9EE1E92E85E9D82E0FE0C02ECA
:107AB00010E1B12EAA24A394B1E49B2EA6E58A2E50
:107AC000F2E57F2EE0E26E2E79E4572E63E5462E36
:107AD00050E5352E0E94763C8033B1F18133B9F107
:107AE000803409F46FC0813409F476C0823409F41B
:107AF00085C0853409F488C0803531F1823521F1A3
:107B0000813511F1853509F485C0863509F48DC0BC
:107B1000843609F496C0843709F403C1853709F423
:107B200072C1863709F466C0809103018F5F80932C
:107B30000301853079F6E0910401F0910501099582
:107B40000E94763C803351F60E94F33CC3CF0E94E2
:107B5000763C803249F78091C00085FFFCCFF092DF
:107B6000C6008091C00085FFFCCF9092C600809136
:107B7000C00085FFFCCF8092C6008091C00085FFC9
:107B8000FCCF7092C6008091C00085FFFCCF609250
:107B9000C6008091C00085FFFCCF5092C600809146
:107BA000C00085FFFCCF4092C6008091C00085FFD9
:107BB000FCCF3092C6008091C00085FFFCCFB09210
:107BC000C60088CF0E94763C863808F4BDCF0E945C
:107BD000763C0E94F33C7ECF0E94763C803809F4CC
:107BE0009CC0813809F40BC1823809F43CC1883942
:107BF00009F48FC080E00E94C73C6CCF84E10E94F2
:107C0000BD3C0E94F33C66CF85E00E94BD3C0E94D3
:107C1000F33C60CF0E94763C809306010E94763C44
:107C2000809307010E94F33C55CF0E94763C80333D
:107C300009F41DC183E00E94BD3C80E00E94C73C66
:107C400049CF0E94763C809309020E94763C809343
:107C5000080280910C028E7F80930C020E94763C79
:107C6000853409F415C18091080290910902892B8D
:107C700089F000E010E00E94763CF801E85FFE4FDA
:107C800080830F5F1F4F80910802909109020817AF
:107C9000190788F30E94763C803209F045CF809125
:107CA0000C0280FF01C16091060170910701660F0F
:107CB000771F7093070160930601A0910802B091AD
:107CC00009021097C9F0E8E0F1E09B01AD014E0F09
:107CD0005F1FF999FECF32BD21BD819180BDFA9A17
:107CE000F99A2F5F3F4FE417F50799F76A0F7B1F4B
:107CF00070930701609306018091C00085FFFCCF5F
:107D0000F092C6008091C00085FFFCCFB092C60003
:107D1000E1CE83E00E94C73CDDCE82E00E94C73CFA
:107D2000D9CE0E94763C809309020E94763C8093D3
:107D300008028091060190910701880F991F909386
:107D40000701809306010E94763C853409F4A6C0A1
:107D500080910C028E7F80930C020E94763C8032D0
:107D600009F0B8CE8091C00085FFFCCFF092C6002C
:107D7000609108027091090261157105B9F140E046
:107D800050E080910C02A82FA170B82FB27011C0E2
:107D9000BB2309F45CC0E0910601F0910701319624
:107DA000F0930701E09306014F5F5F4F46175707B7
:107DB000E8F4AA2369F3F999FECF209106013091E6
:107DC000070132BD21BDF89A90B58091C00085FFB2
:107DD000FCCF9093C6002F5F3F4F30930701209355
:107DE00006014F5F5F4F4617570718F38091C00099
:107DF00085FDE5CE8091C00085FFF8CFE0CE81E023
:107E00000E94C73C67CE0E94763C803209F08CCE3F
:107E10008091C00085FFFCCFF092C6008091C00029
:107E200085FFFCCFE092C6008091C00085FFFCCFAB
:107E3000D092C6008091C00085FFFCCFC092C600E2
:107E40008091C00085FFFCCFB092C60043CEE09188
:107E50000601F091070194918091C00085FFFCCF4D
:107E60009093C6009CCF80E10E94C73C33CE0E9415
:107E7000763C0E94763C182F0E94763C112309F430
:107E800083C0113009F484C08FE00E94C73C22CE29
:107E900080910C02816080930C02E5CE80910C02EF
:107EA000816080930C0259CF809107018823880F4D
:107EB000880B8A2180930B02809106019091070123
:107EC000880F991F90930701809306018091080203
:107ED00080FF09C080910802909109020196909359
:107EE000090280930802F894F999FECF1127E091D6
:107EF0000601F0910701C8E0D1E08091080290915D
:107F00000902103091F40091570001700130D9F34B
:107F100003E000935700E89500915700017001308D
:107F2000D9F301E100935700E89509901990009169
:107F3000570001700130D9F301E000935700E89534
:107F40001395103498F011270091570001700130FB
:107F5000D9F305E000935700E895009157000170B0
:107F60000130D9F301E100935700E895329602976A
:107F700009F0C7CF103011F00296E5CF112480919F
:107F8000C00085FFB9CEBCCE8EE10E94C73CA2CD19
:0E7F900085E90E94C73C9ECDF894FFCF80008B
:00000001FF
