:020000040000FA
:100000000C9462000C948A000C948A000C948A0070
:100010000C948A000C948A000C948A000C948A0038
:100020000C948A000C948A000C948A000C948A0028
:100030000C948A000C948A000C948A000C948A0018
:100040000C94AC0F0C948A000C941C100C94F60FBA
:100050000C948A000C948A000C948A000C948A00F8
:100060000C944E100C948A0000000000240027001D
:100070002A0000000000250028002B0000000000DE
:1000800023002600290004040404040404040202DA
:100090000202020203030303030301020408102007
:1000A0004080010204081020010204081020000012
:1000B0000008000201000003040700000000000027
:1000C00000006D1111241FBECFEFD8E0DEBFCDBF01
:1000D00011E0A0E0B1E0E4E0F9E302C005900D9288
:1000E000A639B107D9F723E0A6E9B1E001C01D9216
:1000F000A53CB207E1F710E0C2E6D0E004C02197CA
:10010000FE010E94A518C136D107C9F70E94DF1170
:100110000C94801C0C9400008091110290911202AA
:10012000891B990B08952F923F924F925F926F9285
:100130007F928F929F92AF92BF92CF92DF92EF9277
:10014000FF920F931F93CF93DF93CDB7DEB7AA979C
:100150000FB6F894DEBF0FBECDBF0D871D8B298F64
:100160003A8F4B8F5C8F6F8F7BA3FE8EED8EE0916D
:10017000A303F091A403892B21F0E091A503F09152
:10018000A603FF27EE0FFF1FEE0FFF1FE955FC4FE1
:10019000608171818281938124E630E040E050E00B
:1001A0000E945817522E632E742E852E962E7A8B0F
:1001B000898B492E86017501110FEE08FE2C8701EF
:1001C0009501A6016E2D7E2D8E2D9E2D0FE10E9494
:1001D0005A18A12CEAECBE2EFAE9CF2EABE3DA2EA8
:1001E000E12CF12C00E010E00E948517A52CB62C24
:1001F000C72CD82CE92CFA880989142D0E940017E5
:100200000FE10E94751829833A834B835C836D83C9
:100210007E838F83988729813A814B815C81550F3A
:10022000220B322FA90129873A874B875C87252D1E
:10023000362D472D582D692D7F2D8989942DA98024
:10024000BA80CB80DC80E984FE2C0E2D1E2D0E940E
:10025000901829833987498B5A8B6B8B7C8B1C01B7
:100260006D847D88898C9A8C3C8D3D8B4F8C5BA0F6
:100270009301A4016B8D7D89C201211534404B4649
:10028000544F644171058105910569F060F0612C5E
:1002900024E0722E3BE6832E44EF942EB4E1BB8F14
:1002A0001D8A412C512CEB8DEF8F9301A4016E2FF1
:1002B0007D89C201211538454744584F6D4071056D
:1002C0008105910560F4612C08E5702E87E4882E85
:1002D00098EF992E2DE02F8F1D8A412C512CA9804B
:1002E000B984C988DA88EB88FC8881019301A4016C
:1002F0006F8D7D89C2010E94B617298F3A8F4B8F6F
:100300005C8F2D873E874F87588B8D859E85AF8567
:10031000B8891FE0A12E0F97A105B10558F02D85D2
:100320003E854F8558892B35310541055105B8F07B
:10033000BAE5AB2EB12CC12CD12CE12CF12C00E074
:1003400010E02981398549895A896B897C89C101E5
:100350000E94001739014A016F8F7D8B2C01A98003
:10036000B984C988DA88EB88FC8881019301A401EB
:100370006F8D7D89C2010E94B417E0E4AE2EF2E4D5
:10038000BF2EAFE0CA2ED12CE12CF12C00E010E002
:100390000E940017A980B984C988DA88EB88FC8894
:1003A00081010E94B61749014CA35BA3C901DA0180
:1003B00021E030E040E050E00097A105B10521F0D8
:1003C00020E432E44FE050E02D8B3E8B4F8B588F72
:1003D000BC01CD0127E0660F771F881F991F2A9562
:1003E000D1F72D893E894F89588D0E94DE1629014B
:1003F0003A016F8F78A389A39AA3A980B984C98889
:10040000DA88EB88FC88810194014CA15BA160E053
:1004100070E080E090E00E9400172BA33CA34DA366
:100420005EA36FA378A789A79AA78D859E85AF85C0
:10043000B88937E0880F991FAA1FBB1F3A95D1F7DB
:100440009250A109B109840D951DA61DB71DED8D12
:10045000FE8D80839183A283B3832F8D38A149A120
:100460005AA124833583468357832D893E894F893A
:10047000588D2087318742875387298D3A8D4B8D40
:100480005C8D60E070E080E090E00E940017290140
:100490003A014B01898799838D899E89AF89B88DEF
:1004A0005C016D01E12CF12C00E010E02BA13CA1DE
:1004B0004DA15EA16FA178A589A59AA50E94B61746
:1004C00059016A017B018C019201A301B401898564
:1004D00099810E949018AA960FB6F894DEBF0FBEBD
:1004E000CDBFDF91CF911F910F91FF90EF90DF90E3
:1004F000CF90BF90AF909F908F907F906F905F90C4
:100500004F903F902F900895DF92EF92FF920F93BC
:100510001F93CF93DF93FC01E080F1800281138170
:10052000D481C581B681D7809701A8016D2F7C2F1A
:100530008B2F9D2D285938424C4151096109710971
:1005400081099109273938424C41510561057105EE
:100550008105910509F0D0F49701A8016D2F7C2F3A
:100560008B2F9D2D07E00E945A18208331834283F0
:100570005383648375838683978387E0DF91CF916C
:100580001F910F91FF90EF90DF9008959701A801C0
:100590006D2F7C2F8B2F9D2D2053314548435109C2
:1005A00061097109810991092F323145484351058B
:1005B000610571058105910509F098F49701A8017D
:1005C0006D2F7C2F8B2F9D2D06E00E945A182083C3
:1005D000318342835383648375838683978386E064
:1005E000CDCF9701A8016D2F7C2F8B2F9D2D2056ED
:1005F000324A4047510961097109810991092F3532
:10060000324A40475105610571058105910509F0A0
:1006100098F49701A8016D2F7C2F8B2F9D2D05E05D
:100620000E945A18208331834283538364837583E5
:100630008683978385E0A2CF9701A8016D2F7C2F39
:100640008B2F9D2D205C3444414E51096109710965
:10065000810991092F3B3444414E510561057105D3
:100660008105910509F098F49701A8016D2F7C2F61
:100670008B2F9D2D04E00E945A18208331834283E2
:100680005383648375838683978384E077CF970150
:10069000A8016D2F7C2F8B2F9D2D20583948424C5F
:1006A000514061097109810991092F373948424C3C
:1006B0005140610571058105910509F098F4970194
:1006C000A8016D2F7C2F8B2F9D2D03E00E945A18BF
:1006D0002083318342835383648375838683978326
:1006E00083E04CCF9701A8016D2F7C2F8B2F9D2D80
:1006F00033514548534061097109810991092F3FE0
:10070000324145485340610571058105910509F065
:1007100098F49701A8016D2F7C2F8B2F9D2D02E05F
:100720000E945A18208331834283538364837583E4
:100730008683978382E022CF9701A8016D2F7C2FBB
:100740008B2F9D2D36524A4057406109710981090E
:1007500091092F3F35424A40574061057105810597
:10076000910509F098F49701A8016D2F7C2F8B2F2C
:100770009D2D01E00E945A182083318342835383C8
:10078000648375838683978381E0F8CE80E0F6CE1C
:100790002F923F924F925F926F927F928F929F9291
:1007A000AF92BF92CF92DF92EF92FF920F931F937F
:1007B000CF93DF93CDB7DEB76C970FB6F894DEBF5B
:1007C0000FBECDBF322E3D87242E5E872B013C010C
:1007D000A982BF86C88AD98AEA8AFB8A0C8B1D8BBC
:1007E000988E8F8A211501EC30070AE140070DE34E
:1007F000500705E0600771058105910509F0A0F536
:100800002F3710EF31071AEF410712E0510761054A
:1008100071058105910509F008F4B4C12F3F354DEC
:1008200041415E47634071058105910509F008F477
:100830008FC029813F85488959896A897B898C893C
:100840009D89A0E0992493940E94991809F08EC084
:1008500011E01E8B94E0892E912CA12CB12C89865D
:100860009A86AB86BC862FC0312CB1ECBD872AE1BD
:10087000222EEDE3EE8735E0432E512C612C712CB6
:10088000D8CFA32CBD84C22CDE847201830120E06A
:1008900034E04BE654EF64E170E080E090E00E94C9
:1008A000B617122FB32FF42FE52FA7E00E94991847
:1008B00021F416E0B0E0F0E0E0E0CF011987BA875C
:1008C0009B87EC871E8A89849A84AB84BC84A501AB
:1008D000940160E070E0CB01A32CBD84C22CDE84C7
:1008E0007201830129833A834B835C836D837E830A
:1008F0008F83988760E070E080E090E00E940017AE
:1009000029833F87488B598B6A8B7B8B8C8B9D8B84
:100910000E89C12CD12C7601C39440E050E0BA017D
:10092000013009F0A9C0AF89B88D1D921D921D92AA
:100930001C921397FD01148215821682178281E0A2
:1009400090E0A0E0B0E080879187A287B387DEC007
:1009500029813F85488959896A897B898C899D8944
:10096000A0E00E94991809F48CCF912CA32CBD848F
:10097000C22CDE847201830129813F85488959890F
:100980006A897B898C899D890E94B61729873A8755
:100990004B875C8729853A854B855C8506E0A02ED0
:1009A000B12C263031054105510568F089859A85BD
:1009B000AB85BC8589309740A105B105D0F0B8E082
:1009C000AB2E17E0B12EC12CD12CE12CF12C00E084
:1009D00010E029813F85488959896A897B898C89FA
:1009E0009D890E94B617322E3D87242E5E872B01EB
:1009F0003C01A32CBD84C22CDE84720183012981B9
:100A00003F85488959896A897B898C899D890E949B
:100A1000B417E0E4AE2EF2E4BF2EAFE0CA2ED12C24
:100A2000E12CF12C00E010E00E940017A32CBD8403
:100A3000C22CDE84720183010E94B617A32FF42F0B
:100A4000E52F422F5A2F6F2F7E2FA0E4CA2EA2E44B
:100A5000DA2EAFE0EA2EF12C411551056105710542
:100A600021F4C12CD12C7601C394AA24A3949A1406
:100A700009F46DC001E00E8BCB01BA0117E0660FDF
:100A8000771F881F991F1A95D1F7A70196010E9419
:100A9000DE16298F3A8F4B8F5C8F89849A84AB84C2
:100AA000BC8407E0880C991CAA1CBB1C0A95D1F7D2
:100AB0009501840112502109310948015901298DFC
:100AC0003A8D4B8D5C8D280D391D4A1D5B1DAF89FC
:100AD000B88D2D933D934D935C931397FD016483E3
:100AE0007583868397831896CD92DD92ED92FC9262
:100AF0001B978E88882051F039829D849F86288A92
:100B0000AE84A98A4A8A5B8A6C8A7D8A29813F855C
:100B1000488959896A897B898C899D896C960FB629
:100B2000F894DEBF0FBECDBFDF91CF911F910F9123
:100B3000FF90EF90DF90CF90BF90AF909F908F90FD
:100B40007F906F905F904F903F902F900895AF8966
:100B5000B88D1D921D921D921C921397FD01148257
:100B600015821682178281E090E0A0E0B0E08087D5
:100B70009187A287B3873982FD85FF87288A8E8473
:100B8000898AC0CF29813F85488959896A897B89AB
:100B90008C899D89A0E0E0E83E2EF0EFFD87FAEF1A
:100BA0002F2E02E00E87412C512C612C712C0E94BB
:100BB000991809F0DACE18E0B7E07DCEDF92EF9217
:100BC000FF920F931F93CF93DF93FC01E080F1809E
:100BD00002811381D481C581B681D7809701A80194
:100BE0006D2F7C2F8B2F9D2D20583A414640510967
:100BF00061097109810991092F373A414640510530
:100C0000610571058105910509F0D0F49701A801EE
:100C10006D2F7C2F8B2F9D2D07E00E945A1820836B
:100C2000318342835383648375838683978387E00C
:100C3000DF91CF911F910F91FF90EF90DF9008957A
:100C40009701A8016D2F7C2F8B2F9D2D35534C4084
:100C5000510961097109810991092F3F34434C40C1
:100C60005105610571058105910509F098F4970119
:100C7000A8016D2F7C2F8B2F9D2D06E00E945A1806
:100C80002083318342835383648375838683978370
:100C900086E0CECF9701A8016D2F7C2F8B2F9D2D45
:100CA0003A564841510961097109810991092F3F5B
:100CB000394648415105610571058105910509F0E5
:100CC00098F49701A8016D2F7C2F8B2F9D2D05E0A7
:100CD0000E945A182083318342835383648375832F
:100CE0008683978385E0A4CF9701A8016D2F7C2F81
:100CF0008B2F9D2D345D4043510961097109810994
:100D000091092F3F334D4043510561057105810520
:100D1000910509F098F49701A8016D2F7C2F8B2F76
:100D20009D2D04E00E945A1820833183428353830F
:100D3000648375838683978384E07ACF9701A801C3
:100D40006D2F7C2F8B2F9D2D385A414651096109FB
:100D50007109810991092F3F374A414651056105C3
:100D600071058105910509F098F49701A8016D2F8F
:100D70007C2F8B2F9D2D03E00E945A1820833183F6
:100D800042835383648375838683978383E050CF44
:100D90009701A8016D2F7C2F8B2F9D2D3055434C33
:100DA000510961097109810991092F3F3F44434C61
:100DB0005105610571058105910509F098F49701C8
:100DC000A8016D2F7C2F8B2F9D2D02E00E945A18B9
:100DD000208331834283538364837583868397831F
:100DE00082E026CF9701A8016D2F7C2F8B2F9D2DA0
:100DF000305A4648514061097109810991092F3FD4
:100E00003F4946485140610571058105910509F04A
:100E100098F49701A8016D2F7C2F8B2F9D2D01E059
:100E20000E945A18208331834283538364837583DD
:100E30008683978381E0FCCE80E0FACE833081F018
:100E400028F4813099F08230A9F008958730A9F014
:100E50008830C9F08430B1F4809180008F7D03C068
:100E6000809180008F7780938000089584B58F777C
:100E700084BD089584B58F7DFBCF8091B0008F77BE
:100E80008093B00008958091B0008F7DF9CFCF930B
:100E9000DF93282F30E0F901E255FF4F8491F901EB
:100EA000E656FF4FD491F901EA57FF4FC491CC2386
:100EB000A1F081110E941E07EC2FF0E0EE0FFF1F42
:100EC000E458FF4FA591B491EC91ED2381E090E0BF
:100ED00009F480E0DF91CF91089580E090E0FACFAF
:100EE0001F93CF93DF93282F30E0F901E255FF4F96
:100EF0008491F901E656FF4FD491F901EA57FF4F6B
:100F0000C491CC23A9F0162F81110E941E07EC2F4B
:100F1000F0E0EE0FFF1FEE58FF4FA591B4918FB791
:100F2000F894EC91111108C0D095DE23DC938FBFAB
:100F3000DF91CF911F910895DE2BF8CFCF93DF93F0
:100F400090E0FC01E656FF4F24918A579F4FFC0129
:100F500084918823C9F090E0880F991FFC01E8591B
:100F6000FF4FA591B491FC01EE58FF4FC591D4916C
:100F700061110DC09FB7F8948C91209582238C93BA
:100F80008881282328839FBFDF91CF910895623005
:100F900051F49FB7F8943C91822F809583238C93D2
:100FA000E8812E2BEFCF8FB7F894EC912E2B2C935A
:100FB0008FBFEACF3FB7F89480910D0290910E0257
:100FC000A0910F02B091100226B5A89B05C02F3F3B
:100FD00019F00196A11DB11D3FBFBA2FA92F982F5F
:100FE0008827BC01CD01620F711D811D911D42E05A
:100FF000660F771F881F991F4A95D1F708958F9222
:101000009F92AF92BF92CF92DF92EF92FF924B01ED
:101010005C010E94DA076B017C010E94DA076C19FF
:101020007D098E099F09683E734081059105A8F3EB
:1010300021E0821A9108A108B10888EEC80E83E069
:10104000D81EE11CF11C81149104A104B10429F7FC
:10105000FF90EF90DF90CF90BF90AF909F908F90D8
:10106000089508950895AF92BF92CF92DF92EF92C4
:10107000FF920F931F93CF93DF936C017B018B0142
:10108000040F151FEB015E01AE18BF08C017D10792
:1010900059F06991D601ED91FC910190F081E02D1C
:1010A000C6010995892B79F7C501DF91CF911F9171
:1010B0000F91FF90EF90DF90CF90BF90AF90089589
:1010C000FC01538D448D252F30E0842F90E0821B4E
:1010D000930B541710F0CF96089501970895FC01D3
:1010E000918D828D981761F0A28DAE0FBF2FB11D2B
:1010F0005D968C91928D9F5F9F73928F90E0089583
:101100008FEF9FEF0895FC01918D828D981731F03C
:10111000828DE80FF11D858D90E008958FEF9FEF90
:101120000895FC01918D228D892F90E0805C9F4F66
:10113000821B91098F739927089583E892E00E949A
:10114000910821E0892B09F420E0822F089580E0A6
:1011500090E0892B29F00E949D0881110C940000D9
:101160000895FC01A48DA80FB92FB11DA35ABF4F3C
:101170002C91848D90E001968F739927848FA68996
:10118000B7892C93A089B1898C91837080648C93EA
:10119000938D848D981306C00288F389E02D808199
:1011A0008F7D80830895EF92FF920F931F93CF93CB
:1011B000DF93EC0181E0888F9B8D8C8D98131AC092
:1011C000E889F989808185FF15C09FB7F894EE8979
:1011D000FF896083E889F9898081837080648083D6
:1011E0009FBF81E090E0DF91CF911F910F91FF9021
:1011F000EF900895F62E0B8D10E00F5F1F4F0F73C9
:101200001127E02E8C8D8E110CC00FB607FCFACF83
:10121000E889F989808185FFF5CFCE010E94B10868
:10122000F1CFEB8DEC0FFD2FF11DE35AFF4FF08254
:101230009FB7F8940B8FEA89FB8980818062CFCFBA
:10124000CF93DF93EC01888D8823B9F0AA89BB89FD
:10125000E889F9898C9185FD03C0808186FD0DC0E8
:101260000FB607FCF7CF8C9185FFF2CF808185FF09
:10127000EDCFCE010E94B108E9CFDF91CF91089563
:101280002091B701260F3327331F21323105ECF4AB
:1012900020915902FC0190E080E0243069F082E066
:1012A0000895A091B7012191AC0149565E4FA40F5A
:1012B000B52FB11D2C930196861798F38091B70135
:1012C000680F6093B70180E0089581E0089510925F
:1012D000590281E0809358021092330261E082E16A
:1012E0000E94700761E083E10E947007E9EBF0E083
:1012F00080818E7F808380818D7F808388E480934E
:10130000B80085E48093BC000895CF93DF9391E00B
:10131000909396018823B9F0C091B800D091BA009B
:101320008091BC008A7B8093BC0060E082E10E94D7
:10133000700760E083E10E9470070E946709D09304
:10134000BA00C093B800DF91CF9108958F929F9219
:10135000AF92BF92CF92DF92EF92FF920F931F93C3
:10136000CF93DF93D0918202D13208F0D7C0182FEB
:10137000C09181020E94DA076B017C0180915902C1
:1013800081116BC082E080935902109358028FEF55
:101390008093570210925602D0935502A1E6B2E014
:1013A000E5E3F2E080E0D81391C01092340280911E
:1013B0003402CC0FC82BC0933402809133028130A9
:1013C00009F088C0109233020E94DA076B017C0199
:1013D000809134028093BB0080915B0290915C020B
:1013E000A0915D02B0915E02892B8A2B8B2BA1F01C
:1013F0000E94DA0700915B0210915C0220915D026D
:1014000030915E026C197D098E099F090617170736
:101410002807390708F442C08091BC0083FDD8CF6B
:1014200085EC8093BC000E94DA076B017C018091FF
:101430005902823009F450C0809157028F3F09F45D
:101440006FC080915702803209F46CC080915702BE
:10145000803309F469C084E026C080915B029091DA
:101460005C02A0915D02B0915E02892B8A2B8B2BCE
:1014700009F484CF0E94DA0780905B0290905C02AE
:10148000A0905D02B0905E026C197D098E099F09E3
:1014900086169706A806B90608F070CF80915A0202
:1014A0000E94850985E010926002109282021092DB
:1014B0005F02DF91CF911F910F91FF90EF90DF902E
:1014C000CF90BF90AF909F908F9008959D919193F2
:1014D0008F5F69CF85EEA5CF80915B0290915C0212
:1014E000A0915D02B0915E02892B8A2B8B2B09F4AF
:1014F0009ECF0E94DA0700915B0210915C0220915E
:101500005D0230915E026C197D098E099F090617F4
:1015100017072807390708F08ACFC0CF81E0C3CF6B
:1015200080E0C1CF82E0BFCF83E0BDCF0895E091DE
:10153000120280911102E81730F4F0E0ED5EFD4FE9
:10154000808190E008958FEF9FEF089590911202AF
:10155000809111022FEF3FEF981748F4E92FF0E048
:10156000ED5EFD4F208130E09F5F90931202C90134
:101570000895CF92DF92EF92FF920F931F93CF9334
:10158000DF937C01CB018A0120915F02222389F045
:10159000EB016B01C40ED51ECC15DD0569F0699118
:1015A000D701ED91FC910190F081E02DC7010995E3
:1015B000F3CF642F0E944009C801DF91CF911F91A2
:1015C0000F91FF90EF90DF90CF900895CF93DF932E
:1015D0001F92CDB7DEB7698320915F022223F9F015
:1015E00020918202203258F021E030E0FC01338368
:1015F000228390E080E00F90DF91CF910895809159
:101600006002E82FF0E0EF59FD4F998190838F5FE2
:10161000809360028093820281E090E0ECCF61E0F1
:10162000CE0101960E944009F7CFEF92FF920F93EF
:101630001F93CF93DF93062F7A019091B80321E097
:1016400020935F02909381021092600210928202B6
:10165000682F80E293E00E94E60AE70110E0CE01E5
:101660008E199F098017910734F4699180E293E005
:101670000E94E60AF4CF81E0DF91CF911F910F9194
:10168000FF90EF900C94A609CF93C62F9091B803CA
:1016900021E020935F0290938102109260021092E9
:1016A0008202682F80E293E00E94E60A6C2F80E2BB
:1016B00093E00E94E60A81E0CF910C94A609FC0118
:1016C000848191E090935F02809381021092600286
:1016D0001092820280E293E00E94E60A81E00C947C
:1016E000A609089590E080E00895CF92DF92EF92EE
:1016F000FF920F931F93CF939091B80321E0209313
:101700005F02909381021092600210928202682F11
:1017100080E293E00E94E60A81E00E94A609C0915F
:10172000B8030E94DA076B017C0180915902811194
:1017300065C081E080935902109258029FEF909308
:1017400057021092560210925502809334028091F3
:101750003402CC0FC82BC093340280913302813005
:1017600009F080C0109233020E94DA076B017C01FD
:10177000809134028093BB0080915B0290915C0267
:10178000A0915D02B0915E02892B8A2B8B2BA1F078
:101790000E94DA0700915B0210915C0220915D02C9
:1017A00030915E026C197D098E099F090617170793
:1017B0002807390708F443C08091BC0083FDD8CFC7
:1017C00085EC8093BC000E94DA076B017C0180915C
:1017D0005902813009F448C080915602C1E081115C
:1017E00002C0C0915602E5E3F2E0A3E1B2E080E07E
:1017F0008C1751F191919D938F5FFACF80915B028D
:1018000090915C02A0915D02B0915E02892B8A2BBF
:101810008B2B09F48ACF0E94DA0700915B021091AA
:101820005C0220915D0230915E026C197D098E0987
:101830009F09061717072807390708F076CF809108
:101840005A020E948509C0E010921202C093110250
:1018500080E090911202C91749F180E293E00E9462
:10186000A60AF7CF85EEADCF80915B0290915C0226
:10187000A0915D02B0915E02892B8A2B8B2B09F41B
:10188000A6CF0E94DA0700915B0210915C022091C2
:101890005D0230915E026C197D098E099F09061761
:1018A00017072807390708F092CFC9CFCF911F91AA
:1018B0000F91FF90EF90DF90CF900895CF93DF933B
:1018C00080E00E94750BCAE3D3E0982F991F9927F7
:1018D000991F9883282F86FB992790F9998385FB78
:1018E000992790F99A83229521702B8383708C839A
:1018F00081E00E94750B982F991F9927991F9D834E
:1019000086FB992790F99E8385FB992790F99F8301
:10191000829581708887DF91CF910895FF920F9310
:101920001F93CF93DF93EC018B01F82E80E1F80E2B
:101930008F2D0E94750B682F0115110581F46F7DA5
:101940008F2D0E94440BCC0FDD1FC65CDC4F1A8725
:101950000987DF91CF911F910F91FF9008956062E9
:10196000EFCF1F93CF93DF93C62F142F825F9E4F2D
:10197000FC01D0818D2F0E94750B837811118C6032
:10198000F0E1CF9FB0011124682B8D2FDF91CF9113
:101990001F910C94440BCF93DF93D62FC0E1C80F57
:1019A0008C2F0E94750B682FD13031F460648C2F1E
:1019B000DF91CF910C94440B6F7BF9CF0F931F9362
:1019C000CF93DF93EC01042F6B8711E01987888593
:1019D000880F9F819460892B2A8598E0299F900128
:1019E0001124822B607F682BCE010E945F0B198629
:1019F0006885660F8A8528E0829FC0011124682BC4
:101A00008F81682B8B85807F682BCE010E945F0BB6
:101A1000011131C08FE890E00197F1F719878F81AC
:101A200084606885660F682B8A8528E0829FC001E4
:101A30001124682B8B8520E1829FC0011124682B23
:101A4000CE010E945F0B19866885660F8A8528E0A3
:101A5000829FC0011124682B8F81682B8B8520E128
:101A6000829FC0011124682BCE01DF91CF911F917D
:101A70000F910C945F0BDF91CF911F910F910895FF
:101A8000ECE2F3E0178210866485862F82608487FB
:101A90006A6040E0CF010E94DE0C8FE890E0019781
:101AA000F1F70895ECE2F3E0178210866485862F43
:101AB00081608487696040E0CF010E94DE0C8FE87E
:101AC00090E00197F1F708951092330310923403D8
:101AD00090913203981708F480E0E82FF0E0EA5E76
:101AE000FE4F6081606840E08CE293E00E94DE0C73
:101AF0008FE890E00197F1F70895ECE2F3E01782A8
:101B0000108640E061E0CF010E94DE0C83E398E1A3
:101B10000197F1F7089521E0FC012783108640E04A
:101B20000E94DE0C8FE990E00197F1F781E090E0F0
:101B300008952F923F924F925F926F927F928F9271
:101B40009F92AF92BF92CF92DF92EF92FF920F934C
:101B50001F93CF93DF93CDB7DEB72D970FB6F894D1
:101B6000DEBF0FBECDBF3C01C982DA82EB82FC82B0
:101B70000D831E832F83388749875A876B877C871D
:101B8000BAA03C2C2D2C5E2C0D87412E922EC984A0
:101B9000DA84EB84FC8484E190E00E94BA188C0122
:101BA000FC01D082C182862D880F880F880F845D4A
:101BB0000E94750BF52DF3705F2E8C7F582AF8016B
:101BC0005282238234828CE0F694E794D794C794AF
:101BD0008A95D1F7FC2DF07FCF2E892D8F70C82AE2
:101BE000F801C58246828D85878393E0691671046A
:101BF00009F46CC0A8F5F1E06F16710409F448C04F
:101C000082E06816710409F452C0A80168E08AE213
:101C10000E94150B6A2D90E080E00E94CB0C4B2DAA
:101C2000682D90E080E00E94B10CC8012D960FB69F
:101C3000F894DEBF0FBECDBFDF91CF911F910F9102
:101C4000FF90EF90DF90CF90BF90AF909F908F90DC
:101C50007F906F905F904F903F902F900C9456190B
:101C600094E06916710409F440C0E5E06E16710451
:101C700061F6A80168E082E50E94150B6A2D85E0F7
:101C800090E00E94CB0C4B2D682D85E090E0CBCFEF
:101C9000A80168E082E30E94150B6A2D81E090E0C4
:101CA0000E94CB0C4B2D682D81E090E0BCCFA801A9
:101CB00068E08AE30E94150B6A2D82E090E00E94A2
:101CC000CB0C4B2D682D82E090E0ADCFA80168E0F1
:101CD00082E40E94150B6A2D83E090E00E94CB0CF9
:101CE0004B2D682D83E090E09ECFA80168E08AE448
:101CF0000E94150B6A2D84E090E00E94CB0C4B2DC6
:101D0000682D84E090E08FCF2F923F924F925F92A8
:101D10006F927F928F929F92AF92BF92CF92DF92FB
:101D2000EF92FF920F931F93CF93DF93CDB7DEB760
:101D30002E970FB6F894DEBF0FBECDBF19013A0142
:101D40004B018D879E872801012B09F073C0E0911C
:101D5000A303F091A403EE0FFF1FEE0FFF1FE15549
:101D6000FC4FA080B180C280D380CE0101967C015F
:101D700089019301AB016D857E8590E080E00E9432
:101D8000930084E190E00E94BA188C0189859A85BD
:101D9000AB85BC85F8019083818339814A812B8191
:101DA00023702283438334832CE0B695A7959795BF
:101DB00087952A95D1F7807F2D813E819F819F70E5
:101DC000892B8583368327834114510409F04BC046
:101DD000A80168E08AE10E94150B209293033092DB
:101DE0009403609295037092960380929703909269
:101DF0009803FD85F09399038E8580939A03C8011B
:101E00002E960FB6F894DEBF0FBECDBFDF91CF91F7
:101E10001F910F91FF90EF90DF90CF90BF90AF9008
:101E20009F908F907F906F905F904F903F902F90FA
:101E30000C945619E091A503F091A603EE0FFF1F35
:101E4000EE0FFF1FE155FC4FA080B180C280D38010
:101E5000FE0131967F0181019A01AB016D857E857E
:101E600081E090E08CCF4A94452849F6A80168E0CB
:101E700082E20E94150B20929B0330929C03609299
:101E80009D0370929E0380929F039092A003ED8524
:101E9000E093A103FE85F093A203B1CFFB01019073
:101EA0000020E9F73197AF01461B570BDC01ED919C
:101EB000FC910280F381E02D0994CF93DF93D0E071
:101EC000C0E0009731F0BC0183E892E00E944E0F21
:101ED000EC016AE471E083E892E00E944E0F8C0FFF
:101EE0009D1FDF91CF91089585ED8093BC00809177
:101EF0005B0290915C02A0915D02B0915E02079638
:101F0000A11DB11D23E0B695A795979587952A95B4
:101F1000D1F72091BC0024FD03C01092590208950E
:101F200040915B0250915C0260915D0270915E0293
:101F3000452B462B472B69F30097A105B10541F0CE
:101F40002AE22A95F1F700C00197A109B109E1CF72
:101F500080915A020C9485091F920F920FB60F922E
:101F600011242F933F938F939F93AF93BF938091AF
:101F7000090290910A02A0910B02B0910C023091DB
:101F8000080223E0230F2D3758F50196A11DB11D3E
:101F9000209308028093090290930A02A0930B02F7
:101FA000B0930C0280910D0290910E02A0910F024D
:101FB000B09110020196A11DB11D80930D02909366
:101FC0000E02A0930F02B0931002BF91AF919F91A8
:101FD0008F913F912F910F900FBE0F901F901895EA
:101FE00026E8230F0296A11DB11DD2CF1F920F929A
:101FF0000FB60F9211242F933F934F935F936F93DC
:102000007F938F939F93AF93BF93EF93FF9383E857
:1020100092E00E94B108FF91EF91BF91AF919F9123
:102020008F917F916F915F914F913F912F910F9081
:102030000FBE0F901F9018951F920F920FB60F9220
:1020400011242F938F939F93EF93FF93E09193022B
:10205000F09194028081E0919902F0919A0282FDC0
:102060001BC0908180919C028F5F8F7320919D0295
:10207000821741F0E0919C02F0E0ED57FD4F958F03
:1020800080939C02FF91EF919F918F912F910F90E0
:102090000FBE0F901F9018958081F4CF1F920F9262
:1020A0000FB60F9211242F933F934F935F936F932B
:1020B0007F938F939F93AF93BF93EF93FF93809101
:1020C000B900887F803609F44AC0F0F5883209F4F7
:1020D000A7C018F5803109F49BC0B8F4882309F42F
:1020E000F9C0883009F494C0FF91EF91BF91AF918E
:1020F0009F918F917F916F915F914F913F912F9120
:102100000F900FBE0F901F901895883109F488C06A
:10211000803251F78093570214C0803409F49DC077
:1021200040F48033B9F38833F9F68093570285EC95
:10213000B0C0803509F485C0883509F496C088346C
:1021400099F60E94740FD0CF883909F48CC038F505
:10215000883729F050F4883611F0803729F683E06B
:10216000809359021092D90157C0883809F47BC076
:10217000803919F0803809F0B7CF8091D9018032C9
:1021800008F071C0E091D90181E08E0F8093D901F0
:102190008091BB00F0E0E754FE4F80833DC0803B60
:1021A00039F0E0F4803A09F479C0883A09F09CCF1C
:1021B00084E0809359021092B8011092B701E09127
:1021C000DC01F091DD0109958091B70181110FC00B
:1021D00081E08093B7011092970109C0803C09F417
:1021E000A6CF883C09F4A3CF883B09F07DCFE091CE
:1021F000B80181E08E0F8093B801F0E0E956FE4F00
:1022000080818093BB009091B8018091B70129C073
:10221000809134028093BB0085EC8093BC0064CF36
:102220009091560280915502981758F5E091560208
:1022300081E08E0F80935602F0E0EB5CFD4F8081D1
:10224000E9CFE091560281E08E0F80935602809193
:10225000BB00F0E0EB5CFD4F8083909156028091D3
:1022600055029817C8F285E8D8CFE091560281E070
:102270008E0F809356028091BB00F0E0EB5CFD4F27
:1022800080838091580281115CCF81E0809333027A
:1022900084EA8093BC001092590226CF85EC80938B
:1022A000BC00109259028091D901803230F4E09143
:1022B000D901F0E0E754FE4F10826091D90170E03F
:1022C000E091DA01F091DB0189EB91E00995109240
:1022D000D9010ACF1092570234CFE3E8F2E013821B
:1022E000128288EE93E0A0E0B0E084839583A68319
:1022F000B7832EE131E03183208325EC30E0358750
:10230000248724EC30E03787268720EC30E0318BBF
:10231000208B21EC30E0338B228B22EC30E0358BAC
:10232000248B26EC30E0378B268B118E128E138E89
:10233000148EE0E2F3E01382128284839583A683F5
:10234000B78380E391E091838083EAE3F3E085E063
:10235000DF011D928A95E9F7158216821782108691
:1023600080E68093B80380E498E7ADE7B1E080931E
:10237000A7039093A803A093A903B093AA03109274
:10238000A4031092A3031092A6031092A503109227
:10239000B703ECE2F3E01382128282E491E09183CE
:1023A000808387E284838FE0858381E08683178240
:1023B0001086118612861386148615860895CF938B
:1023C000DF93CDB7DEB76E970FB6F894DEBF0FBEC2
:1023D000CDBF789484B5826084BD84B5816084BDAE
:1023E00085B5826085BD85B5816085BD80916E00B3
:1023F000816080936E0010928100809181008260E4
:102400008093810080918100816080938100809120
:1024100080008160809380008091B100846080930F
:10242000B1008091B00081608093B00080917A000B
:10243000846080937A0080917A00826080937A0031
:1024400080917A00816080937A0080917A00806820
:1024500080937A001092C100E0919302F09194026F
:1024600082E08083E0918F02F09190021082E091EF
:102470009102F091920280E1808310929B02E091A0
:102480009702F091980286E08083E0919502F091A6
:102490009602808180618083E0919502F09196029E
:1024A000808188608083E0919502F091960280811E
:1024B00080688083E0919502F091960280818F7D03
:1024C000808361E08BE00E949E0760E08BE00E94C9
:1024D0007007109212021092110210926002109274
:1024E00082020E94670981E398E09093DD01809366
:1024F000DC0182E398E09093DB018093DA01809124
:10250000B80391E090935F028093810281E00E9482
:10251000A609F12C811137C180E00E94750B90E073
:10252000880F892F881F990B0197B1F362E987EB18
:102530000E94440B80E498E7ADE7B1E08093A703E5
:102540009093A803A093A903B093AA031092AF039A
:102550001092B0031092B1031092B2032091930332
:1025600030919403409195035091960360919703A5
:102570007091980310E000E08091990390919A0384
:102580000E94840E20919B0330919C0340919D03F7
:1025900050919E0360919F037091A00301E010E0B1
:1025A0008091A1039091A2030E94840E60E880E1D3
:1025B0000E94440B60E881E10E94440B60E882E1E4
:1025C0000E94440B60E883E10E94440B60E884E1D0
:1025D0000E94440B60E885E10E94440B60E886E1BC
:1025E0000E94440B60E887E10E94440B6CE080E1AC
:1025F0000E94440B6CE081E10E94440B6CE082E19C
:102600000E94440B6CE083E10E94440B6CE084E187
:102610000E94440B6CE085E10E94440B6CE086E173
:102620000E94440B6CE087E10E94440B10E000E044
:1026300020E030E24FE550EA62E170E080E090E0B7
:102640000E94840E01E010E020E030E24FE550EA05
:1026500062E170E080E090E00E94840E10924403FA
:1026600010924303109246031092450310924803C0
:102670001092470310924A031092490310924C03A0
:1026800010924B0310924E0310924D0381E090E0A4
:102690009093500380934F03909352038093510380
:1026A00070E060E090E080E00E948E0C70E060E0FE
:1026B00081E090E00E948E0C70E060E082E090E0AB
:1026C0000E948E0C70E060E083E090E00E948E0C2F
:1026D00070E060E084E090E00E948E0C70E060E0CA
:1026E00085E090E00E948E0C61E070E086E090E072
:1026F0000E948E0C61E070E087E090E00E948E0CFA
:1027000060E082EA0E94440B60E083EA0E94440B8E
:1027100060E084EA0E94440B60E281EB0E94440B7B
:1027200060E881EB0E94440B03E513E039EBE32EF4
:1027300033E0F32E912C812CCC24C394D12CF801BE
:1027400010821182128213821482158216821782DD
:10275000085F1F4F83E00E94750BB601082C01C073
:10276000660F0A94EAF7682B83E00E94440BF70196
:1027700011927F01FFEF8F1A9F0A28E082169104C1
:10278000F1F6FF24F3948FE00E94750B1092A403DE
:102790001092A303682F6B7F8FE00E94440B20915F
:1027A0009303309194034091950350919603609167
:1027B00097037091980310E000E080919903909145
:1027C0009A030E94840E20919B0330919C034091B8
:1027D0009D0350919E0360919F037091A00301E0BF
:1027E00010E08091A1039091A2030E94840EF11049
:1027F00004C08DE491E00E945D0F0E945E0C64E6CF
:1028000070E080E090E00E94FF07109212021092A8
:10281000110210926002109282020E94670981E305
:1028200098E09093DD018093DC0182E398E090933F
:10283000DB018093DA0160E08CE293E00E945F0BA1
:1028400062E370E080E090E00E94FF0710923303A3
:102850001092340362E370E080E090E00E94FF0792
:1028600041E060E38CE293E00E94DE0C8BE991E4AE
:102870000197F1F741E060E38CE293E00E94DE0C07
:1028800083E592E00197F1F741E060E38CE293E0A9
:102890000E94DE0C0FE810E0C8010197F1F741E05B
:1028A00060E28CE293E00E94DE0CC8010197F1F730
:1028B00040E068E28CE293E00E94DE0CC8010197E0
:1028C000F1F71092330310923403609138036B7F59
:1028D00060933803686040E08CE293E00E94DE0C75
:1028E000C8010197F1F70E947D0D109233031092F9
:1028F000340360913903862F8260809339036660C8
:1029000040E08CE293E00E94DE0CC8010197F1F7F1
:10291000109233031092340360913803862F846041
:10292000809338036C6040E08CE293E00E94DE0C00
:10293000C8010197F1F781E08093360368E08CE2EB
:1029400093E00E945F0B0E947D0D69E771E08CE2CD
:1029500093E00E944E0F81E00E94640D66E871E0F2
:102960008CE293E00E944E0F89E791E00E945D0F98
:102970000E945E0C64E670E080E090E00E94FF0739
:1029800062E082E00E949E0762E084E00E949E076F
:1029900062E083E00E949E0782E00E94470783E096
:1029A0000E9447070E947D0D89E791E00E945D0F1C
:1029B0001F921F921F921F9288E08F938CEA8F9331
:1029C00089EB8F938DED8F9381E991E09F938F93A6
:1029D000CE0101964C019F938F930E94DF19F40161
:1029E0008E01035F1F4FCE010B960FB6F894DEBF2A
:1029F0000FBECDBFD80121912D938E179F07D9F718
:102A00000FB6F894DEBF0FBECDBFC8010E945D0FA8
:102A100080E00E94640DB8018CE293E00E944E0FAA
:102A2000F80101900020E9F7CF010197801B910B7D
:102A3000AC015595479555954795480F591FEEEDB3
:102A4000F1E0D80130E020E06EE27D01E01AF10A09
:102A5000E816F906BCF47C91708311967C9111976D
:102A6000718312967C9112977283790173E0E70E5D
:102A7000F11C4E155F0509F063832C5F3F4F1396E1
:102A80003496E3CF23523E4FF90110828EED91E050
:102A90000E945D0F81E00E94640D6EED71E08CE29A
:102AA00093E00E944E0F60E085E00E949E0760E088
:102AB00086E00E949E0760E087E00E949E0760E03B
:102AC00088E00E949E0764E670E080E090E00E944B
:102AD000FF0780910002811116C02FB7F8948091F2
:102AE000090290910A02A0910B02B0910C022FBF33
:102AF0008093FC019093FD01A093FE01B093FF0130
:102B000081E08093000286E00E944707892B09F04C
:102B10004AC0209100013091010140910201509181
:102B2000030160910401709105019AE0A92EB12C76
:102B3000C12CD12CE12CF12C00E010E08091060199
:102B4000909107010E94B617209300013093010174
:102B500040930201509303016093040170930501B7
:102B60008093060190930701A3E60E94991809F04B
:102B700088F484E680930001109201011092020112
:102B800010920301109204011092050110920601A7
:102B90001092070186E00E944707892BD9F30E9413
:102BA000400D0E94520D85E00E944707892B09F0D5
:102BB00051C08AE0A82EB12CC12CD12CE12CF12CD3
:102BC00000E010E0209100013091010140910201EC
:102BD00050910301609104017091050180910601FB
:102BE000909107010E94001720930001309301018A
:102BF0004093020150930301609304017093050117
:102C000080930601909307012115314E454F5540A1
:102C10006105710581059105A1F098F01092000100
:102C200081EE8093010185EF8093020185E080931E
:102C300003011092040110920501109206011092F6
:102C4000070185E00E944707892BD9F30E94400DB8
:102C50000E94520D0E945E0C80913C03811105C0C0
:102C600080913B0361E08823E9F02FB7F8948091CD
:102C7000090290910A02A0910B02B0910C022FBFA1
:102C80004091FC015091FD016091FE017091FF01A6
:102C9000841B950BA60BB70B893E9340A105B1058C
:102CA000B8F060E08BE00E9470072FB7F894809135
:102CB000090290910A02A0910B02B0910C022FBF61
:102CC0008093FC019093FD01A093FE01B093FF015E
:102CD0003CE83F8B2DE6288F95E7998F86E88A8F11
:102CE0001B8E1C8E1D8E1E8E309353032093540317
:102CF00090935503809356031092570310925803F4
:102D00001092590310925A038091B90381110BC09C
:102D100083E00E94750B682F6E7F83E00E94440B56
:102D200081E08093B903CE0147960E94DE05782E9C
:102D3000E0914303F09144032F89388D498D5A8DDA
:102D40006B8D7C8D8D8D9E8DEF2B39F5A09093032F
:102D5000B0909403C0909503D0909603E0909703B1
:102D6000F09098030091990310919A030E94C80370
:102D70001F92872CA12CC980DA80EB80FC800D810A
:102D80001E812F81388549855A856B857C8590E029
:102D900080E00E94990D0F90FFCFA0909B03B09010
:102DA0009C03C0909D03D0909E03E0909F03F09001
:102DB000A0030091A1031091A203D8CFA1E21A2E83
:102DC000AA1BBB1BFD010DC0AA1FBB1FEE1FFF1FCF
:102DD000A217B307E407F50720F0A21BB30BE40B1F
:102DE000F50B661F771F881F991F1A9469F7609566
:102DF0007095809590959B01AC01BD01CF01089520
:102E0000DF93CF931F930F939A9DF02D219FF00D89
:102E10008B9DF00D8A9DE02DF10D039FF00D029F1B
:102E2000E00DF11D4E9DE00DF11D5E9DF00D4F9DDD
:102E3000F00D7F936F93BF92AF925F934F93D50145
:102E40000E94AB188B01AC01D7010E94AB18EB01BB
:102E5000E80FF91FD6010E944F172F913F91D6011D
:102E60000E94AB18C60FD71FE81FF91FAF91BF9183
:102E70000E944F172F913F910E94AB18C60FD71F8A
:102E8000E81FF91FD6010E94AB18E60FF71F980143
:102E9000BE01CF010F911F91CF91DF9108950E9444
:102EA000AB18460F571FC81FD91F08F43196089555
:102EB000E894DF93CF93FC01DB010E94AB187F9372
:102EC0006F93E9019A01AC01BF93AF933F932F93A6
:102ED000DF010E94AB1826F46C1B7D0B820B930B59
:102EE0009E01EB01FC010E944F17AF91BF912F9102
:102EF0003F910E944F17BE01CF01F9012F913F91E1
:102F0000CF91DF910895689401C0E894F92FF12BD7
:102F100012F00C94B717A0E0B0E0E1E9F7E10C94EF
:102F20002918092E059422F40E941318112392F4F3
:102F3000F0E80F26FFEFE094F09400951095B09420
:102F4000C094D094A194BF0ACF0ADF0AEF0AFF0A07
:102F50000F0B1F0B0E94C21707FC0E941318CDB75E
:102F6000DEB7ECE00C944518689401C0E8948F92A9
:102F70009F92CF93DF930E94C217DF91CF919F90D2
:102F80008F90089588249924F401E401B0E49F937C
:102F9000AA279A158B049C04ED05FE05CF05D007E2
:102FA000A10798F4AD2FDC2FCF2FFE2FE92D982C01
:102FB000892E982F872F762F652F542F432F322F4E
:102FC0002227B85031F7BF9127C01B2EBF91BB27D6
:102FD000220F331F441F551F661F771F881F991F1D
:102FE000881C991CEE1FFF1FCC1FDD1FAA1FBB1FD3
:102FF0008A149B04EC05FD05CE05DF05A007B1078B
:1030000048F08A189B08EC09FD09CE09DF09A00BDE
:10301000B10B21601A94E1F62EF49401AF01BE01C8
:10302000CD01000C08956095709580959095309530
:103030004095509521953F4F4F4F5F4F6F4F7F4FBA
:103040008F4F9F4F08952F923F924F925F926F92B2
:103050007F928F929F92AF92BF92CF92DF92EF9228
:10306000FF920F931F93CF93DF93CDB7DEB7CA1BA9
:10307000DB0B0FB6F894DEBF0FBECDBF09942A88D4
:10308000398848885F846E847D848C849B84AA847C
:10309000B984C884DF80EE80FD800C811B81AA8109
:1030A000B981CE0FD11D0FB6F894DEBF0FBECDBFD4
:1030B000ED010895002E083090F0982F872F762F7D
:1030C000652F542F432F322F22270850F4CF220F81
:1030D000331F441F551F661F771F881F991F0A95AE
:1030E000B2F7002D089597FD1094002E083098F047
:1030F0000850232F342F452F562F672F782F892FD5
:10310000912DF4CF15949795879577956795579559
:103110004795379527950A95AAF71124002D08950C
:103120002A0D3B1D4C1D5D1D6E1D7F1D801F911FB7
:1031300008950024A7FD00942A1730054005500586
:1031400060057005800590050895EE0FFF1F05903E
:10315000F491E02D0994A29FB001B39FC001A39FF9
:10316000700D811D1124911DB29F700D811D1124C0
:10317000911D08950F931F93CF93DF938230910594
:1031800010F482E090E0E091C303F091C40330E0DA
:1031900020E0B0E0A0E0309799F42115310509F462
:1031A0004AC0281B390B24303105D8F58A819B8110
:1031B0006115710589F1FB0193838283FE0111C0C2
:1031C000408151810281138148175907E0F0481767
:1031D000590799F4109761F012960C931297139671
:1031E0001C933296CF01DF91CF911F910F910895DB
:1031F0000093C3031093C403F4CF2115310551F09C
:103200004217530738F0A901DB019A01BD01DF0124
:10321000F801C1CFEF01F9CF9093C4038093C303AA
:10322000CDCFFE01E20FF31F81939193225031091C
:1032300039832883D7CF2091C1033091C203232B38
:1032400041F420910A0130910B013093C203209385
:10325000C10320910801309109012115310541F484
:103260002DB73EB740910C0150910D01241B350B39
:10327000E091C103F091C203E217F307A0F42E1B03
:103280003F0B2817390778F0AC014E5F5F4F2417CA
:10329000350748F04E0F5F1F5093C2034093C103A0
:1032A000819391939FCFF0E0E0E09CCFCF93DF93A9
:1032B0000097E9F0FC01329713821282A091C303B8
:1032C000B091C403ED0130E020E01097A1F420811B
:1032D0003181820F931F2091C1033091C2032817BF
:1032E000390709F061C0F093C203E093C103DF9195
:1032F000CF910895EA01CE17DF07E8F54A815B8197
:103300009E0141155105B1F7E901FB83EA8349911B
:103310005991C40FD51FEC17FD0761F4808191818D
:103320000296840F951FE901998388838281938196
:103330009B838A83F0E0E0E012968D919C91139735
:103340000097B9F52D913C911197CD010296820F0E
:10335000931F2091C1033091C2032817390739F612
:10336000309751F51092C4031092C303B093C20377
:10337000A093C103BCCFD383C28340815181840F0A
:10338000951FC817D90761F44E5F5F4F88819981F7
:10339000480F591F518340838A819B819383828385
:1033A0002115310509F0B0CFF093C403E093C303B6
:1033B0009ECFFD01DC01C0CF13821282D7CFAEE0D9
:1033C000B0E0E5EEF9E10C9431180D891E8986E034
:1033D0008C831A8309838FEF9FE79E838D83AE01D1
:1033E000475E5F4F6F89788DCE0101960E94021A69
:1033F0002F813885020F131FF80110822E96E4E00A
:103400000C944D18ABE0B0E0E8E0FAE10C9423181E
:103410007C013B018A01FC0117821682838181FFB6
:10342000C8C1CE0101965C01F7019381F30193FDC0
:10343000859193FF81913F01882309F453C185321F
:1034400039F493FD859193FF81913F01853229F4F1
:10345000B70190E00E94F21BE7CF912C212C312C78
:10346000FFE1F31538F08B3211F190F4803209F15D
:10347000833229F137FC3CC020ED280F2A3050F56B
:1034800036FE20C08AE0989E200D1124922E06C0A0
:103490008D3291F0803371F7689430F8F30193FD29
:1034A000859193FF81913F018111DACF21C068940A
:1034B00031F8689432F8F2CF689433F8EFCF68941B
:1034C00034F8ECCFEAE02E9E200D1124222E6894D1
:1034D00035F8E4CF8E3229F436FC04C1689436F80E
:1034E000DDCF8C3619F4689437F8D8CF8836B1F22E
:1034F000982F9F7D95549330E0F08336A1F1833768
:10350000C1F1833509F063C02801F2E04F0E511C70
:10351000F801C080D180692D70E036FC02C06FEFE9
:103520007FEFC6010E94DC1B4C01689437F88201D2
:103530000AC00C5F1F4FFFE3F98388248394912C0A
:103540006501E89437F833FE2DC0522C81149104A4
:1035500071F5552009F468CFB70180E290E00E9430
:10356000F21B5A94F6CFF801808189830E5F1F4FBA
:10357000E4CF2801F2E04F0E511CF801C080D18049
:10358000692D70E036FC02C06FEF7FEFC6010E942C
:10359000E71B4C018201D5CFB70180E290E00E9489
:1035A000F21B2A942814190409F0B0F7CECFF601C3
:1035B00037FC859137FE81916F01B70190E00E9441
:1035C000F21B51105A94F1E08F1A9108BFCF843644
:1035D00019F0893609F077C0F80137FE6BC06081B9
:1035E0007181828193810C5F1F4FF32DFF763F2EF7
:1035F00097FF09C090958095709561957F4F8F4F8B
:103600009F4F689437F82AE030E0A5010E94221C01
:10361000C82ECA188C2C432C36FE0CC0E89440F8F7
:10362000C91440F434FE05C032FC03C0F32DFE7E05
:103630004F2E892C44FE95C0FE01EC0DF11D8081BA
:10364000803309F087C0242D297E422E842D887076
:10365000582E43FC95C040FE8FC09C2C821418F459
:103660002C0C922C981844FE91C0B70180E390E096
:103670000E94F21B42FE09C088E790E041FE02C0B2
:1036800088E590E0B7010E94F21BC91408F48AC0D3
:10369000CA94D12C9FEFC91AD90ACA0CDB1CF601B7
:1036A00082916F01B70190E00E94F21BAC14BD043F
:1036B000B1F74FCF60817181072E000C880B990BF9
:1036C0000E5F1F4F92CFD32CE894D4F82AE030E05D
:1036D000853739F1232D297FD22E8F3601F148F419
:1036E0008835A9F0F701868197812B96E2E10C9449
:1036F0003F18803749F08837A9F7D4FE02C0689494
:10370000D2F820E130E00DC06894D4F8F6CF34FE52
:1037100003C0822F8660D82E20E132E002C028E06C
:1037200030E0F801D7FE0FC0608171818281938102
:103730000C5F1F4FA5010E94221CC82ECA183D2CE9
:10374000E89437F867CF6081718190E080E00E5F88
:103750001F4FF0CF42FC02C0839478CF83948394B0
:1037600075CF842D867809F471CFF6CFB70180E24A
:1037700090E00E94F21B83948214C0F3512C73CF0B
:10378000522C5818821408F46ECFF8CF842D867806
:1037900009F47BCF8BE241FE80E247FC8DE2B7016A
:1037A00090E071CFB70180E390E00E94F21B9A9401
:1037B0006CCF8FEF9FEF99CFFC0105906150704067
:1037C0000110D8F7809590958E0F9F1F0895FC01EA
:1037D0006150704001900110D8F7809590958E0F40
:1037E0009F1F08950F931F93CF93DF93182F092FD7
:1037F000EB018B8181FD09C01FEF0FEF812F902F0F
:10380000DF91CF911F910F91089582FF14C02E81F7
:103810003F818C819D81281739073CF4E881F9812B
:10382000CF0101969983888310838E819F810196B1
:103830009F838E83E3CFE885F985812F0995892BB6
:10384000A1F3DACFFA01AA27283051F1203181F112
:10385000E8946F936E7F6E5F7F4F8F4F9F4FAF4F98
:10386000B1E03ED0B4E03CD0670F781F891F9A1FAB
:10387000A11D680F791F8A1F911DA11D6A0F711D5F
:10388000811D911DA11D20D009F468943F912AE06B
:10389000269F11243019305D3193DEF6CF01089553
:1038A000462F4770405D4193B3E00FD0C9F7F6CF84
:1038B000462F4F70405D4A3318F0495D31FD40524C
:1038C000419302D0A9F7EACFB4E0A69597958795E2
:1038D00077956795BA95C9F70097610571050895C1
:1038E0009B01AC010A2E069457954795379527956D
:1038F000BA95C9F7620F731F841F951FA01D089505
:10390000F894FFCF6A6E1900000000000000C503A4
:1039100080002C343C444C545C5C00401454000047
:103920000000D30833086008200991086F08830855
:1039300000000000E60AB90A720B960A8C00A60A7B
:10394000970A000000008B0D3308720B710B0D0AF3
:103950000053796E7468C3A9746973657572206EBB
:103960006F6E2064C3A974656374C3A920737572F4
:10397000206C65206275732049324321004A4B2D2B
:103980003134342D56302E303400463444454220F4
:0A3990003230323400256C64000070
:107800000C94343C0C94513C0C94513C0C94513CE1
:107810000C94513C0C94513C0C94513C0C94513CB4
:107820000C94513C0C94513C0C94513C0C94513CA4
:107830000C94513C0C94513C0C94513C0C94513C94
:107840000C94513C0C94513C0C94513C0C94513C84
:107850000C94513C0C94513C0C94513C0C94513C74
:107860000C94513C0C94513C11241FBECFEFD8E036
:10787000DEBFCDBF11E0A0E0B1E0ECE9FFE702C060
:1078800005900D92A230B107D9F712E0A2E0B1E065
:1078900001C01D92AD30B107E1F70E942D3D0C945F
:1078A000CC3F0C94003C982F959595959595959582
:1078B000905D8F708A307CF0282F295A8091C0000B
:1078C00085FFFCCF9093C6008091C00085FFFCCF60
:1078D0002093C6000895282F205DF0CF982F809127
:1078E000C00085FFFCCF9093C6000895EF92FF92F1
:1078F0000F931F93EE24FF2487018091C00087FD22
:1079000017C00894E11CF11C011D111D81E4E8164B
:1079100082E4F8068FE0080780E0180770F3E09132
:107920000401F091050109958091C00087FFE9CF1E
:107930008091C6001F910F91FF90EF9008950E94D3
:10794000763C982F8091C00085FFFCCF9093C600B5
:1079500091362CF490330CF09053892F089597555D
:10796000892F08951F930E949F3C182F0E949F3CCF
:107970001295107F810F1F9108951F93182F882350
:1079800021F00E94763C1150E1F71F9108951F935A
:10799000182F0E94763C803249F0809103018F5F5E
:1079A000809303018530C1F01F9108958091C0003C
:1079B00085FFFCCF84E18093C6008091C00085FFE5
:1079C000FCCF1093C6008091C00085FFFCCF80E102
:1079D0008093C6001F910895E0910401F091050184
:1079E00009951F9108950E94763C803241F0809164
:1079F00003018F5F80930301853081F008958091AA
:107A0000C00085FFFCCF84E18093C6008091C00058
:107A100085FFFCCF80E18093C6000895E0910401CA
:107A2000F09105010995089540E951E08823A1F0FE
:107A30002D9A28EE33E0FA013197F1F721503040CA
:107A4000D1F72D9828EE33E0FA013197F1F7215064
:107A50003040D1F7815061F708953F924F925F9285
:107A60006F927F928F929F92AF92BF92CF92DF924E
:107A7000EF92FF920F931F93CF93DF93000080E16B
:107A80008093C4001092C50088E18093C10086E015
:107A90008093C2005098589A259A81E00E94143D24
:107AA00024E1F22E9EE1E92E85E9D82E0FE0C02ECA
:107AB00010E1B12EAA24A394B1E49B2EA6E58A2E50
:107AC000F2E57F2EE0E26E2E79E4572E63E5462E36
:107AD00050E5352E0E94763C8033B1F18133B9F107
:107AE000803409F46FC0813409F476C0823409F41B
:107AF00085C0853409F488C0803531F1823521F1A3
:107B0000813511F1853509F485C0863509F48DC0BC
:107B1000843609F496C0843709F403C1853709F423
:107B200072C1863709F466C0809103018F5F80932C
:107B30000301853079F6E0910401F0910501099582
:107B40000E94763C803351F60E94F33CC3CF0E94E2
:107B5000763C803249F78091C00085FFFCCFF092DF
:107B6000C6008091C00085FFFCCF9092C600809136
:107B7000C00085FFFCCF8092C6008091C00085FFC9
:107B8000FCCF7092C6008091C00085FFFCCF609250
:107B9000C6008091C00085FFFCCF5092C600809146
:107BA000C00085FFFCCF4092C6008091C00085FFD9
:107BB000FCCF3092C6008091C00085FFFCCFB09210
:107BC000C60088CF0E94763C863808F4BDCF0E945C
:107BD000763C0E94F33C7ECF0E94763C803809F4CC
:107BE0009CC0813809F40BC1823809F43CC1883942
:107BF00009F48FC080E00E94C73C6CCF84E10E94F2
:107C0000BD3C0E94F33C66CF85E00E94BD3C0E94D3
:107C1000F33C60CF0E94763C809306010E94763C44
:107C2000809307010E94F33C55CF0E94763C80333D
:107C300009F41DC183E00E94BD3C80E00E94C73C66
:107C400049CF0E94763C809309020E94763C809343
:107C5000080280910C028E7F80930C020E94763C79
:107C6000853409F415C18091080290910902892B8D
:107C700089F000E010E00E94763CF801E85FFE4FDA
:107C800080830F5F1F4F80910802909109020817AF
:107C9000190788F30E94763C803209F045CF809125
:107CA0000C0280FF01C16091060170910701660F0F
:107CB000771F7093070160930601A0910802B091AD
:107CC00009021097C9F0E8E0F1E09B01AD014E0F09
:107CD0005F1FF999FECF32BD21BD819180BDFA9A17
:107CE000F99A2F5F3F4FE417F50799F76A0F7B1F4B
:107CF00070930701609306018091C00085FFFCCF5F
:107D0000F092C6008091C00085FFFCCFB092C60003
:107D1000E1CE83E00E94C73CDDCE82E00E94C73CFA
:107D2000D9CE0E94763C809309020E94763C8093D3
:107D300008028091060190910701880F991F909386
:107D40000701809306010E94763C853409F4A6C0A1
:107D500080910C028E7F80930C020E94763C8032D0
:107D600009F0B8CE8091C00085FFFCCFF092C6002C
:107D7000609108027091090261157105B9F140E046
:107D800050E080910C02A82FA170B82FB27011C0E2
:107D9000BB2309F45CC0E0910601F0910701319624
:107DA000F0930701E09306014F5F5F4F46175707B7
:107DB000E8F4AA2369F3F999FECF209106013091E6
:107DC000070132BD21BDF89A90B58091C00085FFB2
:107DD000FCCF9093C6002F5F3F4F30930701209355
:107DE00006014F5F5F4F4617570718F38091C00099
:107DF00085FDE5CE8091C00085FFF8CFE0CE81E023
:107E00000E94C73C67CE0E94763C803209F08CCE3F
:107E10008091C00085FFFCCFF092C6008091C00029
:107E200085FFFCCFE092C6008091C00085FFFCCFAB
:107E3000D092C6008091C00085FFFCCFC092C600E2
:107E40008091C00085FFFCCFB092C60043CEE09188
:107E50000601F091070194918091C00085FFFCCF4D
:107E60009093C6009CCF80E10E94C73C33CE0E9415
:107E7000763C0E94763C182F0E94763C112309F430
:107E800083C0113009F484C08FE00E94C73C22CE29
:107E900080910C02816080930C02E5CE80910C02EF
:107EA000816080930C0259CF809107018823880F4D
:107EB000880B8A2180930B02809106019091070123
:107EC000880F991F90930701809306018091080203
:107ED00080FF09C080910802909109020196909359
:107EE000090280930802F894F999FECF1127E091D6
:107EF0000601F0910701C8E0D1E08091080290915D
:107F00000902103091F40091570001700130D9F34B
:107F100003E000935700E89500915700017001308D
:107F2000D9F301E100935700E89509901990009169
:107F3000570001700130D9F301E000935700E89534
:107F40001395103498F011270091570001700130FB
:107F5000D9F305E000935700E895009157000170B0
:107F60000130D9F301E100935700E895329602976A
:107F700009F0C7CF103011F00296E5CF112480919F
:107F8000C00085FFB9CEBCCE8EE10E94C73CA2CD19
:0E7F900085E90E94C73C9ECDF894FFCF80008B
:00000001FF
