:020000040000FA
:100000000C948F000C94B7000C94B7000C94B700BC
:100010000C94B7000C94B7000C94B7000C94B70084
:100020000C94B7000C94B7000C94B7000C94B70074
:100030000C94B7000C94B7000C94B7000C94B70064
:100040000C94EB100C94B7000C945B110C943511CC
:100050000C94B7000C94B7000C94B7000C94B70044
:100060000C948D110C94B70008000000BE92244936
:10007000123EABAAAA2ABECDCCCC4C3E00000080DA
:10008000BEABAAAAAA3E00000000BF000000803F4D
:100090000000000000084178D3BB4387D1133D190D
:1000A0000E3CC3BD4282AD2B3E68EC8276BED98F3A
:1000B000E1A93E4C80EFFFBE01C4FF7F3F0000007E
:1000C000000000000000240027002A0000000000BB
:1000D000250028002B000000000023002600290036
:1000E00004040404040404040202020202020303DE
:1000F00003030303010204081020408001020408E6
:100100001020010204081020000000080002010075
:10011000000304070000000000000000AC121124DE
:100120001FBECFEFD8E0DEBFCDBF11E0A0E0B1E051
:10013000EEEAF6E402C005900D92A03EB107D9F7B1
:1001400024E0A0EEB1E001C01D92A731B207E1F7B3
:1001500010E0CFE8D0E004C02197FE010E947A1F92
:10016000CE38D107C9F70E943E130C9455230C9446
:1001700000008091610290916202891B990B0895A1
:100180002F923F924F925F926F927F928F929F92A7
:10019000AF92BF92CF92DF92EF92FF920F931F9395
:1001A000CF93DF93CDB7DEB7AA970FB6F894DEBF33
:1001B0000FBECDBF0D871D8B298F3A8F4B8F5C8F64
:1001C0006F8F7BA3FE8EED8EE091F503F091F60329
:1001D000892B21F0E091F703F091F803FF27EE0F50
:1001E000FF1FEE0FFF1FE750FC4F6081718182817E
:1001F000938124E630E040E050E00E94211E522E20
:10020000632E742E852E962E7A8B898B492E86012D
:100210007501110FEE08FE2C87019501A6016E2DC8
:100220007E2D8E2D9E2D0FE10E94231FA12CEAEC26
:10023000BE2EFAE9CF2EABE3DA2EE12CF12C00E052
:1002400010E00E944E1EA52CB62CC72CD82CE92CF1
:10025000FA880989142D0E94C91D0FE10E943E1FD2
:1002600029833A834B835C836D837E838F83988756
:1002700029813A814B815C81550F220B322FA901D4
:1002800029873A874B875C87252D362D472D582D9A
:10029000692D7F2D8989942DA980BA80CB80DC803F
:1002A000E984FE2C0E2D1E2D0E94591F29833987AB
:1002B000498B5A8B6B8B7C8B1C016D847D88898C60
:1002C0009A8C3C8D3D8B4F8C5BA09301A4016B8D70
:1002D0007D89C201211534404B46544F644171055C
:1002E0008105910569F060F0612C24E0722E3BE6F7
:1002F000832E44EF942EB4E1BB8F1D8A412C512CE8
:10030000EB8DEF8F9301A4016E2F7D89C201211522
:1003100038454744584F6D4071058105910560F49B
:10032000612C08E5702E87E4882E98EF992E2DE039
:100330002F8F1D8A412C512CA980B984C988DA8855
:10034000EB88FC8881019301A4016F8D7D89C20136
:100350000E947F1E298F3A8F4B8F5C8F2D873E879F
:100360004F87588B8D859E85AF85B8891FE0A12E5C
:100370000F97A105B10558F02D853E854F85588909
:100380002B35310541055105B8F0BAE5AB2EB12C3E
:10039000C12CD12CE12CF12C00E010E02981398511
:1003A00049895A896B897C89C1010E94C91D39011B
:1003B0004A016F8F7D8B2C01A980B984C988DA88A6
:1003C000EB88FC8881019301A4016F8D7D89C201B6
:1003D0000E947D1EE0E4AE2EF2E4BF2EAFE0CA2EF6
:1003E000D12CE12CF12C00E010E00E94C91DA98065
:1003F000B984C988DA88EB88FC8881010E947F1E55
:1004000049014CA35BA3C901DA0121E030E040E0DF
:1004100050E00097A105B10521F020E432E44FE05F
:1004200050E02D8B3E8B4F8B588FBC01CD0127E0C8
:10043000660F771F881F991F2A95D1F72D893E894E
:100440004F89588D0E94A71D29013A016F8F78A30B
:1004500089A39AA3A980B984C988DA88EB88FC8823
:10046000810194014CA15BA160E070E080E090E02C
:100470000E94C91D2BA33CA34DA35EA36FA378A725
:1004800089A79AA78D859E85AF85B88937E0880FA3
:10049000991FAA1FBB1F3A95D1F79250A109B10924
:1004A000840D951DA61DB71DED8DFE8D8083918356
:1004B000A283B3832F8D38A149A15AA12483358308
:1004C000468357832D893E894F89588D20873187F0
:1004D00042875387298D3A8D4B8D5C8D60E070E0AB
:1004E00080E090E00E94C91D29013A014B018987F3
:1004F00099838D899E89AF89B88D5C016D01E12C4E
:10050000F12C00E010E02BA13CA14DA15EA16FA158
:1005100078A589A59AA50E947F1E59016A017B01D1
:100520008C019201A301B401898599810E94591F10
:10053000AA960FB6F894DEBF0FBECDBFDF91CF9164
:100540001F910F91FF90EF90DF90CF90BF90AF90F1
:100550009F908F907F906F905F904F903F902F90E3
:100560000895DF92EF92FF920F931F93CF93DF9343
:10057000FC01E080F18002811381D481C581B681C4
:10058000D7809701A8016D2F7C2F8B2F9D2D285987
:1005900038424C4151096109710981099109273992
:1005A00038424C415105610571058105910509F0FD
:1005B000D0F49701A8016D2F7C2F8B2F9D2D07E084
:1005C0000E94231F20833183428353836483758376
:1005D0008683978387E0DF91CF911F910F91FF90E2
:1005E000EF90DF9008959701A8016D2F7C2F8B2F3E
:1005F0009D2D2053314548435109610971098109F5
:1006000091092F3231454843510561057105810536
:10061000910509F098F49701A8016D2F7C2F8B2F7D
:100620009D2D06E00E94231F208331834283538344
:10063000648375838683978386E0CDCF9701A80175
:100640006D2F7C2F8B2F9D2D2056324A404751090C
:1006500061097109810991092F35324A40475105D5
:10066000610571058105910509F098F49701A801CC
:100670006D2F7C2F8B2F9D2D05E00E94231F208343
:10068000318342835383648375838683978385E0B4
:10069000A2CF9701A8016D2F7C2F8B2F9D2D205C61
:1006A0003444414E510961097109810991092F3B77
:1006B0003444414E5105610571058105910509F0EC
:1006C00098F49701A8016D2F7C2F8B2F9D2D04E0AE
:1006D0000E94231F20833183428353836483758365
:1006E0008683978384E077CF9701A8016D2F7C2FB5
:1006F0008B2F9D2D20583948424C5140610971097A
:10070000810991092F373948424C514061057105E3
:100710008105910509F098F49701A8016D2F7C2FB0
:100720008B2F9D2D03E00E94231F20833183428362
:100730005383648375838683978383E04CCF9701CB
:10074000A8016D2F7C2F8B2F9D2D33514548534091
:1007500061097109810991092F3F32414548534090
:10076000610571058105910509F098F49701A801CB
:100770006D2F7C2F8B2F9D2D02E00E94231F208345
:10078000318342835383648375838683978382E0B6
:1007900022CF9701A8016D2F7C2F8B2F9D2D3652D4
:1007A0004A40574061097109810991092F3F35423B
:1007B0004A405740610571058105910509F098F49B
:1007C0009701A8016D2F7C2F8B2F9D2D01E00E949A
:1007D000231F2083318342835383648375838683FD
:1007E000978381E0F8CE80E0F6CE2F923F924F9231
:1007F0005F926F927F928F929F92AF92BF92CF92B1
:10080000DF92EF92FF920F931F93CF93DF93CDB7B9
:10081000DEB76C970FB6F894DEBF0FBECDBF322E99
:100820003D87242E5E872B013C01A982BF86C88AA2
:10083000D98AEA8AFB8A0C8B1D8B988E8F8A2115A8
:1008400001EC30070AE140070DE3500705E06007BF
:1008500071058105910509F0A0F52F3710EF3107DB
:100860001AEF410712E051076105710581059105F5
:1008700009F008F4B4C12F3F354D41415E47634054
:1008800071058105910509F008F48FC029813F8524
:10089000488959896A897B898C899D89A0E0992436
:1008A00093940E946E1F09F08EC011E01E8B94E09D
:1008B000892E912CA12CB12C89869A86AB86BC8678
:1008C0002FC0312CB1ECBD872AE1222EEDE3EE875B
:1008D00035E0432E512C612C712CD8CFA32CBD8434
:1008E000C22CDE847201830120E034E04BE654EF39
:1008F00064E170E080E090E00E947F1E122FB32F31
:10090000F42FE52FA7E00E946E1F21F416E0B0E05F
:10091000F0E0E0E0CF011987BA879B87EC871E8A59
:1009200089849A84AB84BC84A501940160E070E062
:10093000CB01A32CBD84C22CDE84720183012983E8
:100940003A834B835C836D837E838F83988760E0DB
:1009500070E080E090E00E94C91D29833F87488BAA
:10096000598B6A8B7B8B8C8B9D8B0E89C12CD12CE8
:100970007601C39440E050E0BA01013009F0A9C00B
:10098000AF89B88D1D921D921D921C921397FD0187
:10099000148215821682178281E090E0A0E0B0E018
:1009A00080879187A287B387DEC029813F854889E8
:1009B00059896A897B898C899D89A0E00E946E1F74
:1009C00009F48CCF912CA32CBD84C22CDE8472013F
:1009D000830129813F85488959896A897B898C8966
:1009E0009D890E947F1E29873A874B875C872985CE
:1009F0003A854B855C8506E0A02EB12C263031056A
:100A00004105510568F089859A85AB85BC8589309B
:100A10009740A105B105D0F0B8E0AB2E17E0B12E9C
:100A2000C12CD12CE12CF12C00E010E029813F8574
:100A3000488959896A897B898C899D890E947F1E92
:100A4000322E3D87242E5E872B013C01A32CBD84D2
:100A5000C22CDE847201830129813F85488959892E
:100A60006A897B898C899D890E947D1EE0E4AE2E77
:100A7000F2E4BF2EAFE0CA2ED12CE12CF12C00E025
:100A800010E00E94C91DA32CBD84C22CDE8472011B
:100A900083010E947F1EA32FF42FE52F422F5A2F90
:100AA0006F2F7E2FA0E4CA2EA2E4DA2EAFE0EA2E4A
:100AB000F12C411551056105710521F4C12CD12C92
:100AC0007601C394AA24A3949A1409F46DC001E09A
:100AD0000E8BCB01BA0117E0660F771F881F991F95
:100AE0001A95D1F7A70196010E94A71D298F3A8F69
:100AF0004B8F5C8F89849A84AB84BC8407E0880C1C
:100B0000991CAA1CBB1C0A95D1F7950184011250AF
:100B10002109310948015901298D3A8D4B8D5C8D90
:100B2000280D391D4A1D5B1DAF89B88D2D933D934E
:100B30004D935C931397FD0164837583868397833C
:100B40001896CD92DD92ED92FC921B978E888820AC
:100B500051F039829D849F86288AAE84A98A4A8A68
:100B60005B8A6C8A7D8A29813F85488959896A898F
:100B70007B898C899D896C960FB6F894DEBF0FBE79
:100B8000CDBFDF91CF911F910F91FF90EF90DF903C
:100B9000CF90BF90AF909F908F907F906F905F901D
:100BA0004F903F902F900895AF89B88D1D921D9260
:100BB0001D921C921397FD011482158216821782D2
:100BC00081E090E0A0E0B0E080879187A287B387C2
:100BD0003982FD85FF87288A8E84898AC0CF298142
:100BE0003F85488959896A897B898C899D89A0E0DC
:100BF000E0E83E2EF0EFFD87FAEF2F2E02E00E87A1
:100C0000412C512C612C712C0E946E1F09F0DACE00
:100C100018E0B7E07DCEDF92EF92FF920F931F9323
:100C2000CF93DF93FC01E080F18002811381D481B6
:100C3000C581B681D7809701A8016D2F7C2F8B2F9E
:100C40009D2D20583A414640510961097109810999
:100C500091092F373A4146405105610571058105DB
:100C6000910509F0D0F49701A8016D2F7C2F8B2FEF
:100C70009D2D07E00E94231F2083318342835383ED
:100C8000648375838683978387E0DF91CF911F917B
:100C90000F91FF90EF90DF9008959701A8016D2FBD
:100CA0007C2F8B2F9D2D35534C40510961097109C3
:100CB000810991092F3F34434C405105610571056D
:100CC0008105910509F098F49701A8016D2F7C2FFB
:100CD0008B2F9D2D06E00E94231F208331834283AA
:100CE0005383648375838683978386E0CECF970191
:100CF000A8016D2F7C2F8B2F9D2D3A56484151090D
:100D000061097109810991092F3F3946484151050F
:100D1000610571058105910509F098F49701A80115
:100D20006D2F7C2F8B2F9D2D05E00E94231F20838C
:100D3000318342835383648375838683978385E0FD
:100D4000A4CF9701A8016D2F7C2F8B2F9D2D345D93
:100D50004043510961097109810991092F3F334DC0
:100D600040435105610571058105910509F098F42D
:100D70009701A8016D2F7C2F8B2F9D2D04E00E94E1
:100D8000231F208331834283538364837583868347
:100D9000978384E07ACF9701A8016D2F7C2F8B2F4A
:100DA0009D2D385A414651096109710981099109FE
:100DB0002F3F374A4146510561057105810591056F
:100DC00009F098F49701A8016D2F7C2F8B2F9D2D92
:100DD00003E00E94231F2083318342835383648373
:100DE00075838683978383E050CF9701A8016D2F89
:100DF0007C2F8B2F9D2D3055434C51096109710972
:100E0000810991092F3F3F44434C5105610571050C
:100E10008105910509F098F49701A8016D2F7C2FA9
:100E20008B2F9D2D02E00E94231F2083318342835C
:100E30005383648375838683978382E026CF9701EB
:100E4000A8016D2F7C2F8B2F9D2D305A4648514085
:100E500061097109810991092F3F3F494648514075
:100E6000610571058105910509F098F49701A801C4
:100E70006D2F7C2F8B2F9D2D01E00E94231F20833F
:100E8000318342835383648375838683978381E0B0
:100E9000FCCE80E0FACE833081F028F4813099F0E6
:100EA0008230A9F008958730A9F08830C9F08430E5
:100EB000B1F4809180008F7D03C0809180008F7796
:100EC00080938000089584B58F7784BD089584B59C
:100ED0008F7DFBCF8091B0008F778093B000089515
:100EE0008091B0008F7DF9CFCF93DF93282F30E032
:100EF000F901E85FFE4F8491F901EC50FF4FD49166
:100F0000F901E052FF4FC491CC23A1F081110E945E
:100F10004B07EC2FF0E0EE0FFF1FEA52FF4FA591B9
:100F2000B491EC91ED2381E090E009F480E0DF9151
:100F3000CF91089580E090E0FACF1F93CF93DF9395
:100F4000282F30E0F901E85FFE4F8491F901EC5061
:100F5000FF4FD491F901E052FF4FC491CC23A9F087
:100F6000162F81110E944B07EC2FF0E0EE0FFF1FB0
:100F7000E453FF4FA591B4918FB7F894EC91111100
:100F800008C0D095DE23DC938FBFDF91CF911F91F6
:100F90000895DE2BF8CFCF93DF9390E0FC01EC5067
:100FA000FF4F249180529F4FFC0184918823C9F008
:100FB00090E0880F991FFC01EE53FF4FA591B4916B
:100FC000FC01E453FF4FC591D49161110DC09FB74F
:100FD000F8948C91209582238C93888128232883F0
:100FE0009FBFDF91CF910895623051F49FB7F8947D
:100FF0003C91822F809583238C93E8812E2BEFCF19
:101000008FB7F894EC912E2B2C938FBFEACF3FB77C
:10101000F89480913F0290914002A0914102B091DA
:10102000420226B5A89B05C02F3F19F00196A11DCD
:10103000B11D3FBFBA2FA92F982F8827BC01CD0122
:10104000620F711D811D911D42E0660F771F881F81
:10105000991F4A95D1F708958F929F92AF92BF92B0
:10106000CF92DF92EF92FF924B015C010E94070842
:101070006B017C010E9407086C197D098E099F098C
:10108000683E734081059105A8F321E0821A91081A
:10109000A108B10888EEC80E83E0D81EE11CF11C3F
:1010A00081149104A104B10429F7FF90EF90DF901F
:1010B000CF90BF90AF909F908F900895089508951E
:1010C000AF92BF92CF92DF92EF92FF920F931F9356
:1010D000CF93DF936C017B018B01040F151FEB0194
:1010E0005E01AE18BF08C017D10759F06991D6014B
:1010F000ED91FC910190F081E02DC6010995892BBD
:1011000079F7C501DF91CF911F910F91FF90EF907B
:10111000DF90CF90BF90AF900895FC01538D448D28
:10112000252F30E0842F90E0821B930B541710F092
:10113000CF96089501970895FC01918D828D98179F
:1011400061F0A28DAE0FBF2FB11D5D968C91928D77
:101150009F5F9F73928F90E008958FEF9FEF0895A8
:10116000FC01918D828D981731F0828DE80FF11D71
:10117000858D90E008958FEF9FEF0895FC01918D8C
:10118000228D892F90E0805C9F4F821B91098F7385
:101190009927089583ED92E00E94BE0821E0892BF3
:1011A00009F420E0822F089580E090E0892B29F057
:1011B0000E94CA0881110C9400000895FC01A48DBE
:1011C000A80FB92FB11DA35ABF4F2C91848D90E069
:1011D00001968F739927848FA689B7892C93A0894C
:1011E000B1898C91837080648C93938D848D9813D6
:1011F00006C00288F389E02D80818F7D8083089569
:10120000EF92FF920F931F93CF93DF93EC0181E056
:10121000888F9B8D8C8D98131AC0E889F9898081FD
:1012200085FF15C09FB7F894EE89FF896083E88930
:10123000F98980818370806480839FBF81E090E022
:10124000DF91CF911F910F91FF90EF900895F62EAF
:101250000B8D10E00F5F1F4F0F731127E02E8C8D49
:101260008E110CC00FB607FCFACFE889F98980818E
:1012700085FFF5CFCE010E94DE08F1CFEB8DEC0F9C
:10128000FD2FF11DE35AFF4FF0829FB7F8940B8FAB
:10129000EA89FB8980818062CFCFCF93DF93EC0115
:1012A000888D8823B9F0AA89BB89E889F9898C914E
:1012B00085FD03C0808186FD0DC00FB607FCF7CF0A
:1012C0008C9185FFF2CF808185FFEDCFCE010E940A
:1012D000DE08E9CFDF91CF91089520910102260F1A
:1012E0003327331F21323105ECF42091A902FC0190
:1012F00090E080E0243069F082E00895A09101023E
:101300002191AC014F515E4FA40FB52FB11D2C930D
:101310000196861798F380910102680F609301028D
:1013200080E0089581E008951092A90281E0809301
:10133000A8021092830261E082E10E949D0761E0B1
:1013400083E10E949D07E9EBF0E080818E7F80833E
:1013500080818D7F808388E48093B80085E48093CA
:10136000BC000895CF93DF9391E09093E001882330
:10137000B9F0C091B800D091BA008091BC008A7BCE
:101380008093BC0060E082E10E949D0760E083E101
:101390000E949D070E949409D093BA00C093B800A0
:1013A000DF91CF9108958F929F92AF92BF92CF928B
:1013B000DF92EF92FF920F931F93CF93DF93D09121
:1013C000D202D13208F0D7C0182FC091D1020E94AA
:1013D00007086B017C018091A90281116BC082E03A
:1013E0008093A9021093A8028FEF8093A702109216
:1013F000A602D093A502A1EBB2E0E5E8F2E080E01E
:10140000D81391C01092840280918402CC0FC82B13
:10141000C093840280918302813009F088C01092C9
:1014200083020E9407086B017C01809184028093F3
:10143000BB008091AB029091AC02A091AD02B09143
:10144000AE02892B8A2B8B2BA1F00E9407080091FA
:10145000AB021091AC022091AD023091AE026C193A
:101460007D098E099F09061717072807390708F411
:1014700042C08091BC0083FDD8CF85EC8093BC0036
:101480000E9407086B017C018091A902823009F457
:1014900050C08091A7028F3F09F46FC08091A702CE
:1014A000803209F46CC08091A702803309F469C0CE
:1014B00084E026C08091AB029091AC02A091AD0275
:1014C000B091AE02892B8A2B8B2B09F484CF0E941A
:1014D00007088090AB029090AC02A090AD02B09053
:1014E000AE026C197D098E099F0986169706A8061B
:1014F000B90608F070CF8091AA020E94B20985E077
:101500001092B0021092D2021092AF02DF91CF91EE
:101510001F910F91FF90EF90DF90CF90BF90AF9011
:101520009F908F9008959D9191938F5F69CF85EEE5
:10153000A5CF8091AB029091AC02A091AD02B09189
:10154000AE02892B8A2B8B2B09F49ECF0E940708B1
:101550000091AB021091AC022091AD023091AE022D
:101560006C197D098E099F09061717072807390787
:1015700008F08ACFC0CF81E0C3CF80E0C1CF82E046
:10158000BFCF83E0BDCF0895E091620280916102F8
:10159000E81730F4F0E0ED59FD4F808190E00895B8
:1015A0008FEF9FEF089590916202809161022FEF7B
:1015B0003FEF981748F4E92FF0E0ED59FD4F2081F7
:1015C00030E09F5F90936202C9010895CF92DF924D
:1015D000EF92FF920F931F93CF93DF937C01CB0188
:1015E0008A012091AF02222389F0EB016B01C40E26
:1015F000D51ECC15DD0569F06991D701ED91FC91FF
:101600000190F081E02DC7010995F3CF642F0E946E
:101610006D09C801DF91CF911F910F91FF90EF905D
:10162000DF90CF900895CF93DF931F92CDB7DEB7B1
:1016300069832091AF022223F9F02091D202203257
:1016400058F021E030E0FC013383228390E080E019
:101650000F90DF91CF9108958091B002E82FF0E0D4
:10166000EF54FD4F998190838F5F8093B0028093F8
:10167000D20281E090E0ECCF61E0CE0101960E94C1
:101680006D09F7CFCF93C62F90910A0421E02093E4
:10169000AF029093D1021092B0021092D202682F42
:1016A00080E793E00E94130B6C2F80E793E00E9489
:1016B000130B81E0CF910C94D309EF92FF920F931B
:1016C0001F93CF93DF93062F7A0190910A0421E0B4
:1016D0002093AF029093D1021092B0021092D202E6
:1016E000682F80E793E00E94130BE70110E0CE0122
:1016F0008E199F098017910734F4699180E793E070
:101700000E94130BF4CF81E0DF91CF911F910F91D5
:10171000FF90EF900C94D309FC01848191E09093A9
:10172000AF028093D1021092B0021092D20280E7F1
:1017300093E00E94130B81E00C94D309089590E08C
:1017400080E00895209108013091090140910A013B
:1017500050910B0160910C0170910D0180910E016F
:1017600090910F010E94E11B0E94701C20E030E06C
:1017700040E85FE30E943F1B9B01AC0160E070E02A
:1017800080E391E40E943E1B0E94AB1B6530710513
:101790003CF46250710970937D0360937C0308955B
:1017A00068307105C4F761507109F5CFCF92DF92AF
:1017B000EF92FF920F931F93CF9390910A0421E031
:1017C0002093AF029093D1021092B0021092D202F5
:1017D000682F80E793E00E94130B81E00E94D309F9
:1017E000C0910A040E9407086B017C018091A90244
:1017F000811165C081E08093A9021092A8029FEF39
:101800009093A7021092A6021092A50280938402E0
:1018100080918402CC0FC82BC093840280918302F4
:10182000813009F080C0109283020E9407086B018A
:101830007C01809184028093BB008091AB029091E7
:10184000AC02A091AD02B091AE02892B8A2B8B2BFA
:10185000A1F00E9407080091AB021091AC02209108
:10186000AD023091AE026C197D098E099F090617F1
:1018700017072807390708F443C08091BC0083FD8F
:10188000D8CF85EC8093BC000E9407086B017C01D7
:101890008091A902813009F448C08091A602C1E07C
:1018A000811102C0C091A602E5E8F2E0A3E6B2E031
:1018B00080E08C1751F191919D938F5FFACF8091C9
:1018C000AB029091AC02A091AD02B091AE02892B17
:1018D0008A2B8B2B09F48ACF0E9407080091AB0258
:1018E0001091AC022091AD023091AE026C197D09CD
:1018F0008E099F09061717072807390708F076CFC2
:101900008091AA020E94B209C0E010926202C093C4
:10191000610280E090916202C91749F180E793E08B
:101920000E94D30AF7CF85EEADCF8091AB029091A4
:10193000AC02A091AD02B091AE02892B8A2B8B2B09
:1019400009F4A6CF0E9407080091AB021091AC02E7
:101950002091AD023091AE026C197D098E099F096C
:10196000061717072807390708F092CFC9CFCF917C
:101970001F910F91FF90EF90DF90CF9008951F93EC
:10198000CF93DF93C62F142F865E9E4FFC01D0812C
:101990008D2F0E94D60B837811118C60F0E1CF9FC0
:1019A000B0011124682B8D2FDF91CF911F910C94E2
:1019B000420BCF93DF93D62FC0E1C80F8C2F0E942C
:1019C000D60B682FD13031F460648C2FDF91CF912A
:1019D0000C94420B6F7BF9CFCF93DF9380E00E9492
:1019E000D60BCCE8D3E0982F991F9927991F98839D
:1019F000282F86FB992790F9998385FB992790F9E1
:101A00009A83229521702B8383708C8381E00E94BE
:101A1000D60B982F991F9927991F9D8386FB99278D
:101A200090F99E8385FB992790F99F838295817019
:101A30008887DF91CF910895FF920F931F93CF93E3
:101A4000DF93EC018B01F82E80E1F80E8F2D0E94C0
:101A5000D60B682F0115110581F46F7D8F2D0E9423
:101A6000420BCC0FDD1FC457DC4F1A870987DF916B
:101A7000CF911F910F91FF9008956062EFCF0F9368
:101A80001F93CF93DF93EC01042F6B8711E019872D
:101A90008885880F9F819460892B2A8598E0299FEB
:101AA00090011124822B607F682BCE010E948C0B49
:101AB00019866885660F8A8528E0829FC0011124F7
:101AC000682B8F81682B8B85807F682BCE010E94CD
:101AD0008C0B011131C08FE890E00197F1F7198765
:101AE0008F8184606885660F682B8A8528E0829FD5
:101AF000C0011124682B8B8520E1829FC001112435
:101B0000682BCE010E948C0B19866885660F8A852A
:101B100028E0829FC0011124682B8F81682B8B8560
:101B200020E1829FC0011124682BCE01DF91CF916B
:101B30001F910F910C948C0BDF91CF911F910F91FE
:101B4000089510928503109286039091830389175C
:101B500008F4982F80918403861708F460E0E62F3C
:101B6000F0E0EA5EFE4F6081690F606840E08EE75A
:101B700093E00E943F0D8FE890E00197F1F7089500
:101B8000EEE7F3E0178210866485862F81608487F4
:101B9000696040E0CF010E943F0D8FE890E001971F
:101BA000F1F70895EEE7F3E0178210866485862F3B
:101BB000826084876A6040E0CF010E943F0D8FE819
:101BC00090E00197F1F7089521E0FC01278310864A
:101BD00040E00E943F0D8FE990E00197F1F781E02E
:101BE00090E008952F923F924F925F926F927F9272
:101BF0008F929F92AF92BF92CF92DF92EF92FF921D
:101C00000F931F93CF93DF93CDB7DEB72D970FB60A
:101C1000F894DEBF0FBECDBF3C01C982DA82EB82F1
:101C2000FC820D831E832F83388749875A876B87F1
:101C30007C87BAA03C2C2D2C5E2C0D87412E922E39
:101C4000C984DA84EB84FC8484E190E00E948F1FD5
:101C50008C01FC01D082C182862D880F880F880FED
:101C6000845D0E94D60BF52DF3705F2E8C7F582A71
:101C7000F8015282238234828CE0F694E794D79460
:101C8000C7948A95D1F7FC2DF07FCF2E892D8F70C8
:101C9000C82AF801C58246828D85878393E069163C
:101CA000710409F46CC0A8F5F1E06F16710409F431
:101CB00048C082E06816710409F452C0A80168E0C7
:101CC0008AE20E945D0B6A2D90E080E00E94D90CB0
:101CD0004B2D682D90E080E00E94BF0CC8012D962E
:101CE0000FB6F894DEBF0FBECDBFDF91CF911F912D
:101CF0000F91FF90EF90DF90CF90BF90AF909F90AB
:101D00008F907F906F905F904F903F902F900C94AA
:101D10002B2094E06916710409F440C0E5E06E16CA
:101D2000710461F6A80168E082E50E945D0B6A2DEE
:101D300085E090E00E94D90C4B2D682D85E090E065
:101D4000CBCFA80168E082E30E945D0B6A2D81E0A1
:101D500090E00E94D90C4B2D682D81E090E0BCCF23
:101D6000A80168E08AE30E945D0B6A2D82E090E0A2
:101D70000E94D90C4B2D682D82E090E0ADCFA801D8
:101D800068E082E40E945D0B6A2D83E090E00E948F
:101D9000D90C4B2D682D83E090E09ECFA80168E020
:101DA0008AE40E945D0B6A2D84E090E00E94D90CC9
:101DB0004B2D682D84E090E08FCF2F923F924F9271
:101DC0005F926F927F928F929F92AF92BF92CF92CB
:101DD000DF92EF92FF920F931F93CF93DF93CDB7D4
:101DE000DEB72E970FB6F894DEBF0FBECDBF190138
:101DF0003A014B018D879E872801012B09F073C0A2
:101E0000E091F503F091F603EE0FFF1FEE0FFF1FB9
:101E1000EF5FFB4FA080B180C280D380CE010196DE
:101E20007C0189019301AB016D857E8590E080E0A6
:101E30000E94C00084E190E00E948F1F8C01898580
:101E40009A85AB85BC85F8019083818339814A816D
:101E50002B8123702283438334832CE0B695A7958E
:101E6000979587952A95D1F7807F2D813E819F8117
:101E70009F70892B8583368327834114510409F091
:101E80004BC0A80168E08AE10E945D0B2092E50347
:101E90003092E6036092E7037092E8038092E903D0
:101EA0009092EA03FD85F093EB038E858093EC031B
:101EB000C8012E960FB6F894DEBF0FBECDBFDF91DE
:101EC000CF911F910F91FF90EF90DF90CF90BF9037
:101ED000AF909F908F907F906F905F904F903F90CA
:101EE0002F900C942B20E091F703F091F803EE0F64
:101EF000FF1FEE0FFF1FEF5FFB4FA080B180C2807E
:101F0000D380FE0131967F0181019A01AB016D857D
:101F10007E8581E090E08CCF4A94452849F6A8015F
:101F200068E082E20E945D0B2092ED033092EE03A6
:101F30006092EF037092F0038092F1039092F203AB
:101F4000ED85E093F303FE85F093F403B1CFFB013D
:101F500001900020E9F73197AF01461B570BDC01D8
:101F6000ED91FC910280F381E02D0994CF93DF93F2
:101F7000D0E0C0E0009731F0BC0183ED92E00E9418
:101F8000A70FEC0162E571E083ED92E00E94A70FDC
:101F90008C0F9D1FDF91CF9108952F923F924F920A
:101FA0005F926F927F928F929F92AF92BF92CF92E9
:101FB000DF92EF92FF920F931F93CF93DF93CDB7F2
:101FC000DEB765970FB6F894DEBF0FBECDBFF22E19
:101FD000E32E742E652E562E472E382E292E8DB7C1
:101FE0009EB79D8B8C8B832D922D0E94E11B0E94AE
:101FF000701C20E030E040E85FE30E943F1B0E943D
:10200000AB1B4B018E010F5F1F4F9AE089169104A5
:102010000CF070C02F923F924F925F926F927F921E
:10202000EF92FF9285E591E09F938F937E01EBE025
:10203000EE0EF11CFF92EF920E94B420E9E0F0E076
:10204000E819F9090FB6F894DEBF0FBECDBFD8016D
:1020500020E32D93CD01801B910BE817F907CCF7F6
:10206000D701E00FF11FCF01801B910B0A971CF4E1
:102070008D918193F8CF0FB6F894DEBF0FBECDBF20
:102080000FB6F894DEBF0FBECDBFC8010E94B60FD9
:10209000F80101900020E9F7CF010197801B910B17
:1020A000AC015595479555954795480F591FE3E461
:1020B000F2E0D80130E020E06EE27D01E01AF10AA2
:1020C000E816F906F4F47C91708311967C911197CF
:1020D000718312967C9112977283790173E0E70EF7
:1020E000F11CE416F50609F063832C5F3F4F13964D
:1020F0003496E3CF69E571E083ED92E00E94A70F8B
:10210000BFCF2E5B3D4FF901108260E080E00E945E
:10211000A10D63E472E08EE793E00E94A70F6FE8E1
:1021200071E08EE793E00E94A70F60E080917C034E
:102130000E94A10D65960FB6F894DEBF0FBECDBF0D
:10214000DF91CF911F910F91FF90EF90DF90CF9093
:10215000BF90AF909F908F907F906F905F904F90C7
:102160003F902F90089585ED8093BC008091AB0245
:102170009091AC02A091AD02B091AE020796A11D64
:10218000B11D23E0B695A795979587952A95D1F728
:102190002091BC0024FD03C01092A9020895409133
:1021A000AB025091AC026091AD027091AE02452B32
:1021B000462B472B69F30097A105B10541F02AE2B0
:1021C0002A95F1F700C00197A109B109E1CF8091EB
:1021D000AA020C94B2091F920F920FB60F9211240B
:1021E0002F933F938F939F93AF93BF9380913B0225
:1021F00090913C02A0913D02B0913E0230913A0292
:1022000023E0230F2D3758F50196A11DB11D209312
:102210003A0280933B0290933C02A0933D02B0931C
:102220003E0280913F0290914002A0914102B09104
:1022300042020196A11DB11D80933F02909340027E
:10224000A0934102B0934202BF91AF919F918F91B1
:102250003F912F910F900FBE0F901F90189526E879
:10226000230F0296A11DB11DD2CF1F920F920FB660
:102270000F9211242F933F934F935F936F937F930C
:102280008F939F93AF93BF93EF93FF9383ED92E070
:102290000E94DE08FF91EF91BF91AF919F918F91C6
:1022A0007F916F915F914F913F912F910F900FBE52
:1022B0000F901F9018951F920F920FB60F92112436
:1022C0002F938F939F93EF93FF93E091E302F0910D
:1022D000E4028081E091E902F091EA0282FD1BC0F4
:1022E00090818091EC028F5F8F732091ED028217B5
:1022F00041F0E091EC02F0E0ED52FD4F958F8093BC
:10230000EC02FF91EF919F918F912F910F900FBE53
:102310000F901F9018958081F4CF1F920F920FB6E7
:102320000F9211242F933F934F935F936F937F935B
:102330008F939F93AF93BF93EF93FF938091B900D7
:10234000887F803609F44AC0F0F5883209F4A7C0C6
:1023500018F5803109F49BC0B8F4882309F4F9C05A
:10236000883009F494C0FF91EF91BF91AF919F9194
:102370008F917F916F915F914F913F912F910F902E
:102380000FBE0F901F901895883109F488C08032D5
:1023900051F78093A70214C0803409F49DC040F423
:1023A0008033B9F38833F9F68093A70285ECB0C087
:1023B000803509F485C0883509F496C0883499F6CB
:1023C0000E94B310D0CF883909F48CC038F5883713
:1023D00029F050F4883611F0803729F683E0809395
:1023E000A9021092230257C0883809F47BC08039B3
:1023F00019F0803809F0B7CF80912302803208F0BD
:1024000071C0E091230281E08E0F809323028091BE
:10241000BB00F0E0ED5FFD4F80833DC0803B39F0B5
:10242000E0F4803A09F479C0883A09F09CCF84E05E
:102430008093A9021092020210920102E0912602FA
:10244000F091270209958091010281110FC081E06E
:10245000809301021092E10109C0803C09F4A6CFEB
:10246000883C09F4A3CF883B09F07DCFE0910202BC
:1024700081E08E0F80930202F0E0EF51FE4F8081E9
:102480008093BB00909102028091010229C080914B
:1024900084028093BB0085EC8093BC0064CF909154
:1024A000A6028091A502981758F5E091A60281E056
:1024B0008E0F8093A602F0E0EB57FD4F8081E9CFAD
:1024C000E091A60281E08E0F8093A6028091BB006E
:1024D000F0E0EB57FD4F80839091A6028091A5021A
:1024E0009817C8F285E8D8CFE091A60281E08E0F58
:1024F0008093A6028091BB00F0E0EB57FD4F8083F4
:102500008091A80281115CCF81E08093830284EAEC
:102510008093BC001092A90226CF85EC8093BC006A
:102520001092A90280912302803230F4E0912302BC
:10253000F0E0ED5FFD4F10826091230270E0E091CA
:102540002402F091250283E092E009951092230283
:102550000ACF1092A70234CFE3EDF2E01382128289
:1025600088EE93E0A0E0B0E084839583A683B783F0
:1025700026E231E03183208325EC30E03587248763
:1025800024EC30E03787268720EC30E0318B208B3D
:1025900021EC30E0338B228B22EC30E0358B248B26
:1025A00026EC30E0378B268B118E128E138E148E14
:1025B000E0E7F3E01382128284839583A683B783D6
:1025C00088E391E091838083ECE8F3E085E0DF012C
:1025D0001D928A95E9F7158216821782108680E689
:1025E00080930A0480E498E7ADE7B1E08093F903B3
:1025F0009093FA03A093FB03B093FC031092F603AD
:102600001092F5031092F8031092F7031092090448
:10261000EEE7F3E0138212828AE491E091838083F3
:1026200087E284838FE0858381E08683178210862A
:102630001186128613861486158620910801309122
:10264000090140910A0150910B0160910C017091B8
:102650000D0180910E0190910F010E94E11B0E94DB
:10266000701C20E030E040E85FE30E943F1B0E94C6
:10267000AB1B70937D0360937C030895CF93DF932E
:10268000CDB7DEB7CE54D1090FB6F894DEBF0FBE7A
:10269000CDBF789484B5826084BD84B5816084BDEB
:1026A00085B5826085BD85B5816085BD80916E00F0
:1026B000816080936E001092810080918100826021
:1026C000809381008091810081608093810080915E
:1026D00080008160809380008091B100846080934D
:1026E000B1008091B00081608093B00080917A0049
:1026F000846080937A0080917A00826080937A006F
:1027000080917A00816080937A0080917A0080685D
:1027100080937A001092C100E091E302F091E4020C
:1027200082E08083E091DF02F091E0021082E0918C
:10273000E102F091E20280E180831092EB02E091ED
:10274000E702F091E80286E08083E091E502F091F3
:10275000E602808180618083E091E502F091E602EB
:10276000808188608083E091E502F091E6028081BB
:1027700080688083E091E502F091E60280818F7DA0
:10278000808361E08BE00E94CB0760E08BE00E94D9
:102790009D0710926202109261021092B002109294
:1027A000D2020E9494098EE598E0909327028093CC
:1027B00026028FE598E09093250280932402809171
:1027C0000A0491E09093AF028093D10281E00E94CD
:1027D000D309F12C811144C180E00E94D60B90E016
:1027E000880F892F881F990B0197B1F362E987EB56
:1027F0000E94420B80E498E7ADE7B1E08093F903D3
:102800009093FA03A093FB03B093FC03109201048E
:102810001092020410920304109204042091E50324
:102820003091E6034091E7035091E8036091E9039A
:102830007091EA0310E000E08091EB039091EC03CB
:102840000E94DD0E2091ED033091EE034091EF03E5
:102850005091F0036091F1037091F20301E010E0F8
:102860008091F3039091F4030E94DD0E60E880E113
:102870000E94420B60E881E10E94420B60E882E125
:102880000E94420B60E883E10E94420B60E884E111
:102890000E94420B60E885E10E94420B60E886E1FD
:1028A0000E94420B60E887E10E94420B6CE080E1ED
:1028B0000E94420B6CE081E10E94420B6CE082E1DD
:1028C0000E94420B6CE083E10E94420B6CE084E1C9
:1028D0000E94420B6CE085E10E94420B6CE086E1B5
:1028E0000E94420B6CE087E10E94420B10E000E086
:1028F00020E030E24FE550EA62E170E080E090E0F5
:102900000E94DD0E01E010E020E030E24FE550EAE9
:1029100062E170E080E090E00E94DD0E109296038C
:1029200010929503109298031092970310929A03B5
:102930001092990310929C0310929B0310929E0395
:1029400010929D031092A00310929F0381E090E0EB
:102950009093A2038093A1039093A4038093A30375
:1029600070E060E090E080E00E941C0D70E060E0AC
:1029700081E090E00E941C0D70E060E082E090E059
:102980000E941C0D70E060E083E090E00E941C0D4E
:1029900070E060E084E090E00E941C0D70E060E078
:1029A00085E090E00E941C0D61E070E086E090E020
:1029B0000E941C0D61E070E087E090E00E941C0D19
:1029C00060E082EA0E94420B60E083EA0E94420BD0
:1029D00060E084EA0E94420B60E281EB0E94420BBD
:1029E00060E881EB0E94420B05EA13E0ABE04A2E5F
:1029F000A4E05A2E712C612C22242394312CD8016E
:102A00001C9211961C92119712961C921297139673
:102A10001C92139714961C92149715961C92159756
:102A200016961C92169717961C92085F1F4F83E00C
:102A30000E94D60BB101062C01C0660F0A94EAF77A
:102A4000682B83E00E94420BF20111922F01FFEFED
:102A50006F1A7F0A28E06216710489F6FF24F39446
:102A60008FE00E94D60B1092F6031092F503682FA8
:102A70006B7F8FE00E94420B2091E5033091E603CB
:102A80004091E7035091E8036091E9037091EA03F4
:102A900010E000E08091EB039091EC030E94DD0ECA
:102AA0002091ED033091EE034091EF035091F0033C
:102AB0006091F1037091F20301E010E08091F30363
:102AC0009091F4030E94DD0EF11004C082E991E0C0
:102AD0000E94B60F0E94EC0C64E670E080E090E08B
:102AE0000E942C0810926202109261021092B002B1
:102AF0001092D2020E9494098EE598E090932702EA
:102B0000809326028FE598E090932502809324021B
:102B100060E08EE793E00E948C0B62E370E080E05F
:102B200090E00E942C08109285031092860362E3C5
:102B300070E080E090E00E942C0841E060E38EE7C6
:102B400093E00E943F0D8BE991E40197F1F741E09A
:102B500060E38EE793E00E943F0D83E592E00197EA
:102B6000F1F741E060E38EE793E00E943F0D0FE84C
:102B700010E0C8010197F1F741E060E28EE793E0D1
:102B80000E943F0DC8010197F1F740E068E28EE72F
:102B900093E00E943F0DC8010197F1F71092850361
:102BA0001092860360918A036B7F60938A0368604A
:102BB00040E08EE793E00E943F0DC8010197F1F7D6
:102BC000109285031092860340E061E08EE793E067
:102BD0000E943F0DF3E36F2EF8E17F2EC3010197B2
:102BE000F1F7109285031092860360918B03862F74
:102BF000826080938B03666040E08EE793E00E94E2
:102C00003F0DC8010197F1F71092850310928603DA
:102C100060918A03862F846080938A036C6040E011
:102C20008EE793E00E943F0DC8010197F1F781E024
:102C30008093880368E08EE793E00E948C0B0E94EB
:102C4000C00D109285031092860340E061E08EE78C
:102C500093E00E943F0DC3010197F1F76EEB71E025
:102C60008EE793E00E94A70F61E080E00E94A10D33
:102C70006BEC71E08EE793E00E94A70F8EEB91E082
:102C80000E94B60F68EE73E080E090E00E942C088E
:102C90000E94A20B62E082E00E94CB0762E084E027
:102CA0000E94CB0762E083E00E94CB0782E00E9493
:102CB000740790932D0280932C0283E00E94740786
:102CC00090932B0280932A02209100013091010100
:102CD000409102015091030160910401709105013E
:102CE00080910601909107010E94CD0F60E085E080
:102CF0000E94CB0760E086E00E94CB0760E087E09F
:102D00000E94CB0760E088E00E94CB0764E670E099
:102D100080E090E00E942C0880913202811116C060
:102D20002FB7F89480913B0290913C02A0913D0214
:102D3000B0913E022FBF80932E0290932F02A0935A
:102D40003002B093310281E0809332020E94EC0C99
:102D500080918E03811105C080918D0361E08823ED
:102D6000E9F02FB7F89480913B0290913C02A0913A
:102D70003D02B0913E022FBF40912E0250912F0292
:102D80006091300270913102841B950BA60BB70B3A
:102D9000893E9340A105B105B8F060E08BE00E9448
:102DA0009D072FB7F89480913B0290913C02A0912F
:102DB0003D02B0913E022FBF80932E0290932F02CE
:102DC000A0933002B0933102F09100012196FFAF41
:102DD00021972091010122962FAF22978091020125
:102DE00023968FAF23979091030124969FAF24974A
:102DF000A09104012596AFAF2597B09105012696C5
:102E0000BFAF2697E09106012796EFAF2797F09185
:102E100007012896FFAF289734E6A32EB12CC12CCA
:102E2000D12CE12CF12C00E010E021962FAD219760
:102E300022963FAD2297AC01BD01CF010E94C91D72
:102E4000205237414745554361097109810991096C
:102E5000E6E0AE2E0E947F1E722EA32EF42E052FCA
:102E6000162FB72FF82FE92FAFEF0E94621F2E37D2
:102E70003A4146405105610571058105910509F00A
:102E800008F434C37EAAAFAAF8AE09AF1AAFBBAF3D
:102E9000FCAFEDAF2EA93FA948AD59AD6AAD7BADF2
:102EA0008CAD9DAD2115314C4A415D4365407105A6
:102EB0008105910569F060F01EAA81EC8FAB8AE173
:102EC00088AF8DE389AFE5E0EAAF1BAE1CAE1DAE67
:102ED0007EA8AFA808AD19ADBAADABADFCADFDACE9
:102EE000272D3A2DA8016B2F7A2F8F2F9F2D21157B
:102EF000344E4B405445624071058105910509F0FF
:102F000008F400C3E0909503F090960325EA422E62
:102F100023E0522E8CE893E09FAF8EAF8C01F2013C
:102F2000D12C2081318142815381648175818681D8
:102F3000978138962115344E4B40544562407105B7
:102F40008105910559F050F0DD2041F0D801199626
:102F50008D919C918E159F0509F4F8C0D3940E5F56
:102F60001F4FB6E0DB12DDCF80910B0481110BC047
:102F700083E00E94D60B682F6E7F83E00E94420B95
:102F800081E080930B042EA93FA948AD59AD6AADED
:102F90007BAD8CAD9DAD2093A5033093A6034093EC
:102FA000A7035093A8036093A9037093AA03809387
:102FB000AB039093AC03FE01B2964F01A12CB12C50
:102FC000C12CD12CE12CF12C00E010E00E94F50383
:102FD00029962FAF29972A963FAF2A972B964FAF66
:102FE0002B972C965FAF2C972D966FAF2D972E9623
:102FF0007FAF2E972F968FAF2F97392E0091950385
:10300000109196030E94DD0E712C612CD201FC9070
:1030100011962C9011971296AC90129713960C91D2
:10302000139714961C9114971596BC91F201E680A3
:10303000D780F8E04F0E511C2F2D322D4A2D502FE6
:10304000612F7B2F8E2D9D2DA0E00E946E1F09F415
:1030500063C0EEADFFAD21853285809195039091DF
:1030600096032817390709F057C0FEA62FA6A8AA6D
:1030700009AB1AABBBABECAADDAACE018E960E94BF
:103080000B06282E2EA53FA548A959A96AA97BA9F8
:10309000CE0101964C012996AFAC29972A96BFAC78
:1030A0002A972B96CFAC2B972C96DFAC2C972D968E
:1030B000EFAC2D972E96FFAC2E972F960FAD2F9736
:1030C000132D8CA99DA90E94F503AA24A3942EA5D3
:1030D0003FA548A959A96AA97BA98CA99DA92F3FF9
:1030E000354D41415E47634071058105910509F009
:1030F00008F4A12CAF92822CC980DA80EB80FC808E
:103100000D811E812F81388549855A856B857C8587
:10311000C3010E94F20D0F90BFEF6B1A7B0AEEAD58
:10312000FFAD3296FFAFEEAFF6E06F16710409F017
:103130006DCF809195039091960360E2009719F00E
:10314000019721F460E881EB0E94420B86E00E9427
:103150007407892B09F05BC02091080130910901A7
:1031600040910A0150910B0160910C0170910D0189
:103170009AE0A92EB12CC12CD12CE12CF12C00E02D
:1031800010E080910E0190910F010E947F1E390185
:10319000A0E00E946E1F09F428C2209308017092DB
:1031A000090140930A0150930B0160930C01709345
:1031B0000D0180930E0190930F0186E00E94740729
:1031C000892BD9F30E94D20D0E94C00D0E94A20B40
:1031D00060E080917C030E94A10D21962FAD219784
:1031E00022963FAD229723964FAD239724965FAD4D
:1031F000249725966FAD259726967FAD269727961F
:103200008FAD279728969FAD28970E94CD0F85E018
:103210000E947407892B09F09FC08AE0A82EB12C68
:10322000C12CD12CE12CF12C00E010E02091080100
:103230003091090140910A0150910B0160910C01FC
:1032400070910D0180910E0190910F010E94C91D96
:103250008A012115E1EE3E07E5EF4E07E5E05E0746
:10326000610571058105910511F008F0D0C1209329
:1032700008013093090140930A0110930B016093F8
:103280000C0170930D0180930E0190930F0185E066
:103290000E947407892BD9F30E94D20D0E94C00DA1
:1032A00066ED71E083ED92E00E94A70F5091080156
:1032B0004091090130910A0120910B01452E542EB5
:1032C000632E722E77FEB7C16DE283ED92E00E940D
:1032D000000922273327A90124193509460957096E
:1032E00019A28E010F5D1F4FCA01B9012AE030E01B
:1032F00040E050E00E94A71D605DD8016E938D01F3
:10330000211531054105510579F70115110529F000
:10331000B80183ED92E00E94A70F62E571E083EDB2
:1033200092E00E94A70F0E94A20B60E080917C03B4
:103330000E94A10D209100013091010140910201F4
:103340005091030160910401709105018091060183
:10335000909107010E94CD0F83E00E9474078C01B9
:1033600082E00E9474072C0184E00E9474073C01F3
:1033700080912C0290912D024816590609F442C002
:1033800050922D0240922C021092850310928603D7
:1033900060918A036E7F60938A03686040E08EE7E5
:1033A00093E00E943F0D8FE890E00197F1F71092B3
:1033B00085031092860360918A036D7F60938A0370
:1033C000686040E08EE793E00E943F0D8FE890E058
:1033D0000197F1F765E070E080E090E00E942C0832
:1033E00020910001309101014091020150910301AF
:1033F000609104017091050180910601909107018F
:103400000E94CD0F80912A0290912B020817190774
:1034100009F45FC010932B0200932A02012B09F0DC
:1034200058C0672809F423C181E090E090932902F5
:10343000809328020E94A20B60E080917C030E948E
:10344000A10D65E070E080E090E00E942C083091D2
:10345000290220912802932F990F990BA09008011F
:10346000B0900901C0900A01D0900B01E0900C01CE
:10347000F0900D0100910E0110910F01492F592F6D
:10348000692F792F892F0E94C91DA0900001B0904B
:103490000101C0900201D0900301E0900401F0907E
:1034A000050100910601109107010E94591F209308
:1034B0000001309301014093020150930301609396
:1034C00004017093050180930601909307010E9407
:1034D000CD0FE0E0F0E0EF2B09F41ECC0E94CA080B
:1034E000882309F419CC0E94000016CC80E88EAB2A
:1034F0008AE18FAB86E088AF19AE1AAE1BAE1CAE68
:103500001DAEC8CC7092A503A092A6030093A7039A
:103510001093A803B093A903A093AA03F093AB035D
:10352000F092AC0380910B0481110BC083E00E94E8
:10353000D60B682F6E7F83E00E94420B81E0809360
:103540000B04CE01C6960E940B06782E809195033F
:10355000909196032EA93FA948AD892B79F5A090AB
:10356000E503B090E603C090E703D090E803E09055
:10357000E903F090EA030091EB031091EC0359ADDD
:103580006AAD7BADCE0182964C018CAD9DAD0E94A3
:10359000F5031F92872CA12CCAA0DBA0ECA0FDA0F4
:1035A0000EA11FA128A539A54AA55BA56CA57DA5DF
:1035B00090E080E00E94F20D0F90C8CDA090ED0346
:1035C000B090EE03C090EF03D090F003E090F103D1
:1035D000F090F2030091F3031091F40359AD6AAD3A
:1035E0007BADDE0192964D01D0CF81E08093080142
:1035F0001092090110920A0110920B0110920C0115
:1036000010920D0110920E0110920F01D6CD109262
:10361000080181EE8093090185EF80930A01F5E0AE
:10362000F0930B0110920C0110920D0110920E01FB
:1036300010920F012CCEBA01C901272F362F492F26
:10364000582F19A28E010F5D1F4FCA01B9012AE040
:1036500030E040E050E00E94A71D605DF8016293F9
:103660008F01211531054105510579F74ECEAFEF98
:10367000BFEFB0932902A0932802DCCE5058BB279D
:10368000AA270E94561B0C94361C0E94281C38F056
:103690000E942F1C20F039F49F3F19F426F40C945B
:1036A000251C0EF4E095E7FB0C941F1CE92F0E94EB
:1036B000471C58F3BA17620773078407950720F071
:1036C00079F4A6F50C94691C0EF4E0950B2EBA2F34
:1036D000A02D0B01B90190010C01CA01A001112418
:1036E000FF27591B99F0593F50F4503E68F11A16C4
:1036F000F040A22F232F342F4427585FF3CF469555
:1037000037952795A795F0405395C9F77EF41F1676
:10371000BA0B620B730B840BBAF09150A1F0FF0F40
:10372000BB1F661F771F881FC2F70EC0BA0F621F2C
:10373000731F841F48F4879577956795B795F7951C
:103740009E3F08F0B0CF9395880F08F09927EE0FB1
:103750009795879508950E94B21B6894B1110C94B7
:103760006A1C08950E944F1C88F09F5798F0B92F4B
:103770009927B751B0F0E1F0660F771F881F991FA6
:103780001AF0BA95C9F714C0B13091F00E94691CC3
:10379000B1E008950C94691C672F782F8827B85FD3
:1037A00039F0B93FCCF3869577956795B395D9F7FE
:1037B0003EF490958095709561957F4F8F4F9F4F08
:1037C0000895E894F92F96EBFF2381F01216130663
:1037D0001406440B9395F6958795779567955795BD
:1037E0004040FF23B9F71BC099270895882351F45F
:1037F0009850D2F7872B762F652F542F432F322FD7
:1038000020E0B1F3121613061406440B88233AF095
:103810009A95440F551F661F771F881FCAF75523B7
:103820004AF4440F551F11F460FF04C06F5F7F4FCF
:103830008F4F9F4F880F9695879597F9089597F921
:103840009F6780E870E060E008959FEF80EC089546
:1038500000240A941616170618060906089500246F
:103860000A9412161306140605060895092E0394E9
:10387000000C11F4882352F0BB0F40F4BF2B11F45D
:1038800060FF04C06F5F7F4F8F4F9F4F089557FDBC
:103890009058440F551F59F05F3F71F04795880FBE
:1038A00097FB991F61F09F3F79F087950895121655
:1038B00013061406551FF2CF4695F1DF08C0161601
:1038C00017061806991FF1CF8695710561050894B2
:1038D0000895E894BB2766277727CB0197F90895C9
:1038E0000E94801C29ED3BE54EED5EE30C94C81C64
:1038F00016F00C94721D0C94251C68940C941F1CDB
:103900000E944F1CA8F39923C1F3AEF3DF93CF932A
:103910001F930F93FF92C92FDD2788232AF0219749
:10392000660F771F881FDAF720E030E040E85FEB92
:103930009FE3883920F0803E38F021968F770E94EF
:103940003F1BE8E6F0E004C00E943F1BE5E9F0E021
:103950000E94801D8B01BE01EC01FB2E6F57710987
:103960007595771F880B990B0E94371D28E132E768
:1039700041E35FE30E94DB1CAF2D9801AE01FF9095
:103980000F911F91CF91DF910E94561B0C94361C12
:103990000E94DB1C0C94361C0E94281C38F00E94EC
:1039A0002F1C20F0952311F00C941F1C0C94251C47
:1039B00011240C946A1C0E94471C70F3959FC1F35C
:1039C000950F50E0551F629FF001729FBB27F00DCD
:1039D000B11D639FAA27F00DB11DAA1F649F662722
:1039E000B00DA11D661F829F2227B00DA11D621F71
:1039F000739FB00DA11D621F839FA00D611D221F2B
:103A0000749F3327A00D611D231F849F600D211D0E
:103A1000822F762F6A2F11249F5750409AF0F1F091
:103A200088234AF0EE0FFF1FBB1F661F771F881FFA
:103A300091505040A9F79E3F510580F00C941F1CF7
:103A40000C946A1C5F3FE4F3983ED4F38695779517
:103A50006795B795F795E7959F5FC1F7FE2B880FA0
:103A6000911D9695879597F90895E89409C097FB5D
:103A70003EF490958095709561957F4F8F4F9F4F45
:103A80009923A9F0F92F96E9BB279395F695879589
:103A900077956795B795F111F8CFFAF4BB0F11F44C
:103AA00060FF1BC06F5F7F4F8F4F9F4F16C08823F3
:103AB00011F096E911C0772321F09EE8872F762F29
:103AC00005C0662371F096E8862F70E060E02AF06A
:103AD0009A95660F771F881FDAF7880F9695879556
:103AE00097F908959F3F31F0915020F4879577958D
:103AF0006795B795880F911D9695879597F90895C5
:103B0000DF93CF931F930F93FF92EF92DF927B018E
:103B10008C01689406C0DA2EEF010E94DB1CFE01C6
:103B2000E894A5912591359145915591A6F3EF0122
:103B30000E94561BFE019701A801DA9469F7DF90F5
:103B4000EF90FF900F911F91CF91DF910895A1E227
:103B50001A2EAA1BBB1BFD010DC0AA1FBB1FEE1F07
:103B6000FF1FA217B307E407F50720F0A21BB30B52
:103B7000E40BF50B661F771F881F991F1A9469F7CE
:103B800060957095809590959B01AC01BD01CF012A
:103B90000895DF93CF931F930F939A9DF02D219F4C
:103BA000F00D8B9DF00D8A9DE02DF10D039FF00D22
:103BB000029FE00DF11D4E9DE00DF11D5E9DF00D8B
:103BC0004F9DF00D7F936F93BF92AF925F934F9392
:103BD000D5010E94801F8B01AC01D7010E94801F7C
:103BE000EB01E80FF91FD6010E94181E2F913F919B
:103BF000D6010E94801FC60FD71FE81FF91FAF9183
:103C0000BF910E94181E2F913F910E94801FC60FE6
:103C1000D71FE81FF91FD6010E94801FE60FF71F6C
:103C20009801BE01CF010F911F91CF91DF910895AF
:103C30000E94801F460F571FC81FD91F08F43196D6
:103C40000895E894DF93CF93FC01DB010E94801F6D
:103C50007F936F93E9019A01AC01BF93AF933F93B8
:103C60002F93DF010E94801F26F46C1B7D0B820BBB
:103C7000930B9E01EB01FC010E94181EAF91BF91B6
:103C80002F913F910E94181EBE01CF01F9012F9183
:103C90003F91CF91DF910895689401C0E894F92F86
:103CA000F12B12F00C94801EA0E0B0E0EAE5FEE1FA
:103CB0000C94F21E092E059422F40E94DC1E11239E
:103CC00092F4F0E80F26FFEFE094F0940095109541
:103CD000B094C094D094A194BF0ACF0ADF0AEF0A2F
:103CE000FF0A0F0B1F0B0E948B1E07FC0E94DC1E9D
:103CF000CDB7DEB7ECE00C940E1F689401C0E894D9
:103D00008F929F92CF93DF930E948B1EDF91CF9172
:103D10009F908F90089588249924F401E401B0E4E1
:103D20009F93AA279A158B049C04ED05FE05CF05E9
:103D3000D007A10798F4AD2FDC2FCF2FFE2FE92D50
:103D4000982C892E982F872F762F652F542F432F4D
:103D5000322F2227B85031F7BF9127C01B2EBF91B9
:103D6000BB27220F331F441F551F661F771F881F55
:103D7000991F881C991CEE1FFF1FCC1FDD1FAA1F57
:103D8000BB1F8A149B04EC05FD05CE05DF05A007CB
:103D9000B10748F08A189B08EC09FD09CE09DF0934
:103DA000A00BB10B21601A94E1F62EF49401AF013F
:103DB000BE01CD01000C0895609570958095909599
:103DC00030954095509521953F4F4F4F5F4F6F4F26
:103DD0007F4F8F4F9F4F08952F923F924F925F9248
:103DE0006F927F928F929F92AF92BF92CF92DF920B
:103DF000EF92FF920F931F93CF93DF93CDB7DEB770
:103E0000CA1BDB0B0FB6F894DEBF0FBECDBF099403
:103E10002A88398848885F846E847D848C849B845A
:103E2000AA84B984C884DF80EE80FD800C811B8168
:103E3000AA81B981CE0FD11D0FB6F894DEBF0FBE97
:103E4000CDBFED010895002E083090F0982F872FF8
:103E5000762F652F542F432F322F22270850F4CF6F
:103E6000220F331F441F551F661F771F881F991F7E
:103E70000A95B2F7002D089597FD1094002E083092
:103E800098F00850232F342F452F562F672F782F67
:103E9000892F912DF4CF15949795879577956795F0
:103EA00057954795379527950A95AAF71124002D20
:103EB00008952A0D3B1D4C1D5D1D6E1D7F1D801F2D
:103EC000911F08950024A7FD00942A0F301D401D66
:103ED000501D601D701D801D901D08950024A7FDBC
:103EE00000942A17300540055005600570058005CF
:103EF00090050895EE0FFF1F0590F491E02D0994B1
:103F0000A29FB001B39FC001A39F700D811D11241A
:103F1000911DB29F700D811D1124911D08950F9365
:103F20001F93CF93DF938230910510F482E090E0ED
:103F3000E0911504F091160430E020E0B0E0A0E03C
:103F4000309799F42115310509F44AC0281B390B23
:103F500024303105D8F58A819B816115710589F17D
:103F6000FB0193838283FE0111C040815181028154
:103F7000138148175907E0F04817590799F410972B
:103F800061F012960C93129713961C933296CF0100
:103F9000DF91CF911F910F91089500931504109315
:103FA0001604F4CF2115310551F04217530738F0AC
:103FB000A901DB019A01BD01DF01F801C1CFEF01C9
:103FC000F9CF9093160480931504CDCFFE01E20F34
:103FD000F31F819391932250310939832883D7CFDE
:103FE0002091130430911404232B41F420911201E9
:103FF0003091130130931404209313042091100185
:10400000309111012115310541F42DB73EB7409192
:10401000140150911501241B350BE0911304F0910C
:104020001404E217F307A0F42E1B3F0B28173907DF
:1040300078F0AC014E5F5F4F2417350748F04E0F04
:104040005F1F5093140440931304819391939FCF67
:10405000F0E0E0E09CCFCF93DF930097E9F0FC0124
:10406000329713821282A0911504B0911604ED01CB
:1040700030E020E01097A1F420813181820F931F5E
:1040800020911304309114042817390709F061C0F6
:10409000F0931404E0931304DF91CF910895EA01A3
:1040A000CE17DF07E8F54A815B819E014115510576
:1040B000B1F7E901FB83EA8349915991C40FD51FF8
:1040C000EC17FD0761F4808191810296840F951FA2
:1040D000E90199838883828193819B838A83F0E0BD
:1040E000E0E012968D919C9113970097B9F52D9170
:1040F0003C911197CD010296820F931F20911304DA
:10410000309114042817390739F6309751F5109279
:10411000160410921504B0931404A0931304BCCF9A
:10412000D383C28340815181840F951FC817D9075B
:1041300061F44E5F5F4F88819981480F591F518309
:1041400040838A819B81938382832115310509F005
:10415000B0CFF0931604E09315049ECFFD01DC016F
:10416000C0CF13821282D7CFAEE0B0E0EAEBF0E22C
:104170000C94FA1E0D891E8986E08C831A830983AC
:104180008FEF9FE79E838D83AE01475E5F4F6F8900
:10419000788DCE0101960E94D7202F813885020F9D
:1041A000131FF80110822E96E4E00C94161FABE06A
:1041B000B0E0EDEDF0E20C94EC1E7C013B018A01D5
:1041C000FC0117821682838181FFC8C1CE0101964E
:1041D0005C01F7019381F30193FD859193FF819138
:1041E0003F01882309F453C1853239F493FD859149
:1041F00093FF81913F01853229F4B70190E00E943D
:10420000C722E7CF912C212C312CFFE1F31538F098
:104210008B3211F190F4803209F1833229F137FCAD
:104220003CC020ED280F2A3050F536FE20C08AE031
:10423000989E200D1124922E06C08D3291F080336D
:1042400071F7689430F8F30193FD859193FF8191A4
:104250003F018111DACF21C0689431F8689432F8B7
:10426000F2CF689433F8EFCF689434F8ECCFEAE0FB
:104270002E9E200D1124222E689435F8E4CF8E3224
:1042800029F436FC04C1689436F8DDCF8C3619F475
:10429000689437F8D8CF8836B1F2982F9F7D95541F
:1042A0009330E0F08336A1F18337C1F1833509F013
:1042B00063C02801F2E04F0E511CF801C080D1808C
:1042C000692D70E036FC02C06FEF7FEFC6010E94DF
:1042D000B1224C01689437F882010AC00C5F1F4F6D
:1042E000FFE3F98388248394912C6501E89437F8DF
:1042F00033FE2DC0522C8114910471F5552009F420
:1043000068CFB70180E290E00E94C7225A94F6CFAE
:10431000F801808189830E5F1F4FE4CF2801F2E00E
:104320004F0E511CF801C080D180692D70E036FC21
:1043300002C06FEF7FEFC6010E94BC224C018201D8
:10434000D5CFB70180E290E00E94C7222A942814BA
:10435000190409F0B0F7CECFF60137FC859137FE8E
:1043600081916F01B70190E00E94C72251105A94C9
:10437000F1E08F1A9108BFCF843619F0893609F021
:1043800077C0F80137FE6BC06081718182819381B3
:104390000C5F1F4FF32DFF763F2E97FF09C09095BE
:1043A0008095709561957F4F8F4F9F4F689437F838
:1043B0002AE030E0A5010E94F722C82ECA188C2CF2
:1043C000432C36FE0CC0E89440F8C91440F434FE87
:1043D00005C032FC03C0F32DFE7E4F2E892C44FE17
:1043E00095C0FE01EC0DF11D8081803309F087C07E
:1043F000242D297E422E842D8870582E43FC95C092
:1044000040FE8FC09C2C821418F42C0C922C98180F
:1044100044FE91C0B70180E390E00E94C72242FEB3
:1044200009C088E790E041FE02C088E590E0B7014E
:104430000E94C722C91408F48AC0CA94D12C9FEFE5
:10444000C91AD90ACA0CDB1CF60182916F01B701A7
:1044500090E00E94C722AC14BD04B1F74FCF608139
:104460007181072E000C880B990B0E5F1F4F92CFA6
:10447000D32CE894D4F82AE030E0853739F1232DA5
:10448000297FD22E8F3601F148F48835A9F0F70143
:10449000868197812B96E2E10C94081F803749F0C2
:1044A0008837A9F7D4FE02C06894D2F820E130E042
:1044B0000DC06894D4F8F6CF34FE03C0822F866016
:1044C000D82E20E132E002C028E030E0F801D7FE2B
:1044D0000FC060817181828193810C5F1F4FA501A4
:1044E0000E94F722C82ECA183D2CE89437F867CFEF
:1044F0006081718190E080E00E5F1F4FF0CF42FC41
:1045000002C0839478CF8394839475CF842D86786A
:1045100009F471CFF6CFB70180E290E00E94C72284
:1045200083948214C0F3512C73CF522C58188214E8
:1045300008F46ECFF8CF842D867809F47BCF8BE218
:1045400041FE80E247FC8DE2B70190E071CFB701F8
:1045500080E390E00E94C7229A946CCF8FEF9FEF88
:1045600099CFFC010590615070400110D8F78095FB
:1045700090958E0F9F1F0895FC016150704001902F
:104580000110D8F7809590958E0F9F1F08950F9377
:104590001F93CF93DF93182F092FEB018B8181FDA0
:1045A00009C01FEF0FEF812F902FDF91CF911F9147
:1045B0000F91089582FF14C02E813F818C819D81CF
:1045C000281739073CF4E881F981CF0101969983D6
:1045D000888310838E819F8101969F838E83E3CF92
:1045E000E885F985812F0995892BA1F3DACFFA01A6
:1045F000AA27283051F1203181F1E8946F936E7F22
:104600006E5F7F4F8F4F9F4FAF4FB1E03ED0B4E012
:104610003CD0670F781F891F9A1FA11D680F791F53
:104620008A1F911DA11D6A0F711D811D911DA11D64
:1046300020D009F468943F912AE0269F1124301974
:10464000305D3193DEF6CF010895462F4770405D0F
:104650004193B3E00FD0C9F7F6CF462F4F70405DBE
:104660004A3318F0495D31FD4052419302D0A9F719
:10467000EACFB4E0A6959795879577956795BA9513
:10468000C9F700976105710508959B01AC010A2ED9
:1046900006945795479537952795BA95C9F7620FB0
:1046A000731F841F951FA01D0895F894FFCFE0D7B6
:1046B00099080000000064000000000000000000F5
:1046C00017048000004014542C343C444C545C5C6F
:1046D00000000000000960088D084D09BE089C0814
:1046E000B00800000000130BE60A9F0BC30AB900D4
:1046F000D30AC40A00000000E40D60089F0B9E0B63
:104700000D0A00256C64004572726F7220303030E3
:1047100031203A2045727265757220646520666F9B
:10472000726D617461676520436F6E76657273693F
:104730006F6E206672657175656E636500487A00FC
:1047400053796E7468C3A9746973657572206E6F4E
:104750006E2064C3A974656374C3A9207375722045
:104760006C65206275732049324321004A4B2D311C
:1047700034342D56302E30350046344445422032F4
:0E478000303234007368696674203A200000FD
:107800000C94343C0C94513C0C94513C0C94513CE1
:107810000C94513C0C94513C0C94513C0C94513CB4
:107820000C94513C0C94513C0C94513C0C94513CA4
:107830000C94513C0C94513C0C94513C0C94513C94
:107840000C94513C0C94513C0C94513C0C94513C84
:107850000C94513C0C94513C0C94513C0C94513C74
:107860000C94513C0C94513C11241FBECFEFD8E036
:10787000DEBFCDBF11E0A0E0B1E0ECE9FFE702C060
:1078800005900D92A230B107D9F712E0A2E0B1E065
:1078900001C01D92AD30B107E1F70E942D3D0C945F
:1078A000CC3F0C94003C982F959595959595959582
:1078B000905D8F708A307CF0282F295A8091C0000B
:1078C00085FFFCCF9093C6008091C00085FFFCCF60
:1078D0002093C6000895282F205DF0CF982F809127
:1078E000C00085FFFCCF9093C6000895EF92FF92F1
:1078F0000F931F93EE24FF2487018091C00087FD22
:1079000017C00894E11CF11C011D111D81E4E8164B
:1079100082E4F8068FE0080780E0180770F3E09132
:107920000401F091050109958091C00087FFE9CF1E
:107930008091C6001F910F91FF90EF9008950E94D3
:10794000763C982F8091C00085FFFCCF9093C600B5
:1079500091362CF490330CF09053892F089597555D
:10796000892F08951F930E949F3C182F0E949F3CCF
:107970001295107F810F1F9108951F93182F882350
:1079800021F00E94763C1150E1F71F9108951F935A
:10799000182F0E94763C803249F0809103018F5F5E
:1079A000809303018530C1F01F9108958091C0003C
:1079B00085FFFCCF84E18093C6008091C00085FFE5
:1079C000FCCF1093C6008091C00085FFFCCF80E102
:1079D0008093C6001F910895E0910401F091050184
:1079E00009951F9108950E94763C803241F0809164
:1079F00003018F5F80930301853081F008958091AA
:107A0000C00085FFFCCF84E18093C6008091C00058
:107A100085FFFCCF80E18093C6000895E0910401CA
:107A2000F09105010995089540E951E08823A1F0FE
:107A30002D9A28EE33E0FA013197F1F721503040CA
:107A4000D1F72D9828EE33E0FA013197F1F7215064
:107A50003040D1F7815061F708953F924F925F9285
:107A60006F927F928F929F92AF92BF92CF92DF924E
:107A7000EF92FF920F931F93CF93DF93000080E16B
:107A80008093C4001092C50088E18093C10086E015
:107A90008093C2005098589A259A81E00E94143D24
:107AA00024E1F22E9EE1E92E85E9D82E0FE0C02ECA
:107AB00010E1B12EAA24A394B1E49B2EA6E58A2E50
:107AC000F2E57F2EE0E26E2E79E4572E63E5462E36
:107AD00050E5352E0E94763C8033B1F18133B9F107
:107AE000803409F46FC0813409F476C0823409F41B
:107AF00085C0853409F488C0803531F1823521F1A3
:107B0000813511F1853509F485C0863509F48DC0BC
:107B1000843609F496C0843709F403C1853709F423
:107B200072C1863709F466C0809103018F5F80932C
:107B30000301853079F6E0910401F0910501099582
:107B40000E94763C803351F60E94F33CC3CF0E94E2
:107B5000763C803249F78091C00085FFFCCFF092DF
:107B6000C6008091C00085FFFCCF9092C600809136
:107B7000C00085FFFCCF8092C6008091C00085FFC9
:107B8000FCCF7092C6008091C00085FFFCCF609250
:107B9000C6008091C00085FFFCCF5092C600809146
:107BA000C00085FFFCCF4092C6008091C00085FFD9
:107BB000FCCF3092C6008091C00085FFFCCFB09210
:107BC000C60088CF0E94763C863808F4BDCF0E945C
:107BD000763C0E94F33C7ECF0E94763C803809F4CC
:107BE0009CC0813809F40BC1823809F43CC1883942
:107BF00009F48FC080E00E94C73C6CCF84E10E94F2
:107C0000BD3C0E94F33C66CF85E00E94BD3C0E94D3
:107C1000F33C60CF0E94763C809306010E94763C44
:107C2000809307010E94F33C55CF0E94763C80333D
:107C300009F41DC183E00E94BD3C80E00E94C73C66
:107C400049CF0E94763C809309020E94763C809343
:107C5000080280910C028E7F80930C020E94763C79
:107C6000853409F415C18091080290910902892B8D
:107C700089F000E010E00E94763CF801E85FFE4FDA
:107C800080830F5F1F4F80910802909109020817AF
:107C9000190788F30E94763C803209F045CF809125
:107CA0000C0280FF01C16091060170910701660F0F
:107CB000771F7093070160930601A0910802B091AD
:107CC00009021097C9F0E8E0F1E09B01AD014E0F09
:107CD0005F1FF999FECF32BD21BD819180BDFA9A17
:107CE000F99A2F5F3F4FE417F50799F76A0F7B1F4B
:107CF00070930701609306018091C00085FFFCCF5F
:107D0000F092C6008091C00085FFFCCFB092C60003
:107D1000E1CE83E00E94C73CDDCE82E00E94C73CFA
:107D2000D9CE0E94763C809309020E94763C8093D3
:107D300008028091060190910701880F991F909386
:107D40000701809306010E94763C853409F4A6C0A1
:107D500080910C028E7F80930C020E94763C8032D0
:107D600009F0B8CE8091C00085FFFCCFF092C6002C
:107D7000609108027091090261157105B9F140E046
:107D800050E080910C02A82FA170B82FB27011C0E2
:107D9000BB2309F45CC0E0910601F0910701319624
:107DA000F0930701E09306014F5F5F4F46175707B7
:107DB000E8F4AA2369F3F999FECF209106013091E6
:107DC000070132BD21BDF89A90B58091C00085FFB2
:107DD000FCCF9093C6002F5F3F4F30930701209355
:107DE00006014F5F5F4F4617570718F38091C00099
:107DF00085FDE5CE8091C00085FFF8CFE0CE81E023
:107E00000E94C73C67CE0E94763C803209F08CCE3F
:107E10008091C00085FFFCCFF092C6008091C00029
:107E200085FFFCCFE092C6008091C00085FFFCCFAB
:107E3000D092C6008091C00085FFFCCFC092C600E2
:107E40008091C00085FFFCCFB092C60043CEE09188
:107E50000601F091070194918091C00085FFFCCF4D
:107E60009093C6009CCF80E10E94C73C33CE0E9415
:107E7000763C0E94763C182F0E94763C112309F430
:107E800083C0113009F484C08FE00E94C73C22CE29
:107E900080910C02816080930C02E5CE80910C02EF
:107EA000816080930C0259CF809107018823880F4D
:107EB000880B8A2180930B02809106019091070123
:107EC000880F991F90930701809306018091080203
:107ED00080FF09C080910802909109020196909359
:107EE000090280930802F894F999FECF1127E091D6
:107EF0000601F0910701C8E0D1E08091080290915D
:107F00000902103091F40091570001700130D9F34B
:107F100003E000935700E89500915700017001308D
:107F2000D9F301E100935700E89509901990009169
:107F3000570001700130D9F301E000935700E89534
:107F40001395103498F011270091570001700130FB
:107F5000D9F305E000935700E895009157000170B0
:107F60000130D9F301E100935700E895329602976A
:107F700009F0C7CF103011F00296E5CF112480919F
:107F8000C00085FFB9CEBCCE8EE10E94C73CA2CD19
:0E7F900085E90E94C73C9ECDF894FFCF80008B
:00000001FF
